:100000000C949A000C94C2000C94C2000C94C20090
:100010000C94C2000C94C2000C94C2000C94C20058
:100020000C94C2000C94C2000C9484020C94ED0257
:100030000C94C2000C94C2000C94C2000C94C20038
:100040000C94C2000C94C2000C94C2000C94C20028
:100050000C94C2000C94C2000C94C2000C94EC05E9
:100060000C94C2000C94C2000C94C2000C94C20008
:100070000C94C2000C94C2000C94C2000C94C200F8
:100080000C94C2000C94C2000C94C2000C94C200E8
:100090000C94C2000C94C2000C94C2000C94C200D8
:1000A0000C94C2000C94C2000C94C200080B000215
:1000B0000202010009040000010202000005240000
:1000C0001001052401010104240206052406000193
:1000D0000705810310004009040100020A00000026
:1000E00007050202400000070583024000000403E8
:1000F000090412010002EF020140D80493EE00014E
:10010000010203014D6963726F6368697020546571
:1001100063686E6F6C6F677920496E63004F70651E
:100120006E74726F6E732054656D704465636B00FE
:100130000009F40811241FBECFEFDAE0DEBFCDBF07
:1001400022E0A6E7B1E001C01D92A633B207E1F7B5
:1001500011E0A0E0B1E0E0E7FAE102C005900D9205
:10016000A637B107D9F710E0C9E9D0E004C021975C
:10017000FE010E94190BC839D107C9F70E943B093B
:100180000C942B0D0C940000409181015091820140
:1001900020917F013091800142175307B4F4909170
:1001A000E8009570E1F39091E80092FD19C080930A
:1001B000F100809181019091820101968F739927BE
:1001C000892B19F48EEF8093E80080918101909142
:1001D00082010196909382018093810181E00895CC
:1001E00080E00895CF92DF92EF92FF920F931F93DA
:1001F000CF93DF931F92CDB7DEB7182F062FE42ED3
:10020000862F880F8E5F99830E94C40083E00E942E
:10021000C400F12EC12E9981D92E8C2D8F198017F3
:1002200098F4F601E7FE02C0849101C080810E942B
:10023000C400182F80E00E94C4008123FFEFCF1A72
:10024000DF0A8111EACF01C081E00F90DF91CF91E9
:100250001F910F91FF90EF90DF90CF900895DF9264
:10026000EF92FF920F931F93CF93DF93D82E8A01C3
:100270007B01E40EF51EEB01CE15DF0571F0D7FE14
:1002800003C0FE01849101C088810E94C4002196B0
:100290008111F2CF8FEF9FEF01C0C801DF91CF91A5
:1002A0001F910F91FF90EF90DF900895CF92DF9212
:1002B000EF92FF920F931F93CF93DF936C017A011C
:1002C0008B01C0E0D0E0CE15DF0589F0D8016D913B
:1002D0008D01D601ED91FC910190F081E02DC601D8
:1002E0000995892B11F47E0102C02196ECCFC7013C
:1002F000DF91CF911F910F91FF90EF90DF90CF9002
:100300000895CF93DF931F92CDB7DEB76983DC01E9
:10031000ED91FC910280F381E02D41E050E0BE01BF
:100320006F5F7F4F09950F90DF91CF91089583E024
:100330008093E9008091F200882319F08AE380938A
:10034000E8000895FC018485958597FD0BC09FB753
:10035000F89482E08093E9008091F2009FBF90E0E2
:10036000019608959FB7F89482E08093E900809108
:10037000F2009FBF90E00895089580E090E0089516
:100380003FB7F89480917B0190917C01A0917D0111
:10039000B0917E0126B5A89B05C02F3F19F00196AC
:1003A000A11DB11D3FBFBA2FA92F982F8827820FFB
:1003B000911DA11DB11DBC01CD0142E0660F771F4B
:1003C000881F991F4A95D1F708950F931F93CF93D4
:1003D000DF931F92CDB7DEB782E0898342E450E01D
:1003E0006CEA70E080E80E942F010E94E008DC01C6
:1003F00012960D911C9113970115110569F0D80102
:10040000ED91FC910280F381E02DBE016F5F7F4F83
:10041000C801099597FF07C089810F90DF91CF919F
:100420001F910F910895F80100851185E5CF0E9475
:10043000CF0890E00895CF93DF931F92CDB7DEB73A
:10044000FC018485958597FD05C02FEF3FEF35872B
:1004500024870BC0CE0101960E94A608019719F4CB
:10046000898190E002C08FEF9FEF0F90DF91CF91D5
:1004700008950F931F93CF93DF931F92CDB7DEB7ED
:100480008C01FC018485958597FF0EC0CE010196F5
:100490000E94A608019719F4298130E002C02FEFCD
:1004A0003FEFF80135872487F801848595850F9003
:1004B000DF91CF911F910F9108950F931F93CF93C9
:1004C000DF93EC0188819981009729F02A813B8193
:1004D0002617370788F48B016F5F7F4F0E944C0C03
:1004E000009761F0998388831B830A832C813D8167
:1004F000232B11F4FC01108281E001C080E0DF9128
:10050000CF911F910F9108951F920F920FB60F92E6
:1005100011248F939F938091E1009091E100937F4C
:100520009093E10083FF0FC01092E90091E0909357
:10053000EB001092EC0092E39093ED001092880192
:1005400098E09093F00082FF1CC093E09093E90044
:100550009091F200992319F09AE39093E80090911A
:100560008301992329F09091830191509093830105
:1005700090918701992329F0909187019150909350
:10058000870184FF10C08091E2008E7E816080939D
:10059000E2008091E1008F7E8093E10080918501EF
:1005A0008E7E806111C080FF11C08091E2008E7E3E
:1005B00080618093E2008091E1008E7E8093E10073
:1005C000809185018E7E8160809385019F918F91BE
:1005D0000F900FBE0F901F9018951F920F920FB69D
:1005E0000F921124CF92DF92EF92FF920F931F93FD
:1005F0002F933F934F935F936F937F938F939F932B
:10060000AF93BF93EF93FF93CF93DF93CDB7DEB755
:100610006C97DEBFCDBF1092E9008091E80083FFA8
:10062000FFC1FE017596DE2ECF2E88E08E0F8E174D
:1006300029F09091F10090833196F9CF84E6809370
:10064000870182EF8093E8008D8987FF05C0909134
:10065000E80090FFFCCF03C09EEF9093E800982F36
:10066000907609F0C5C09E892F89188D91110CC014
:10067000803829F4809186018093F10002C01092A5
:10068000F1001092F1004FC1422F50E0512B9130F8
:1006900051F4811148C14130510509F044C18091A4
:1006A00086018D7F0BC0933061F481113CC14130D4
:1006B000510509F038C180918601826080938601DE
:1006C00032C1953041F48091E80080FFFCCF206872
:1006D0002093E30028C1963009F05EC0EB8CFC8CBF
:1006E0001092E9001092820110928101123091F56E
:1006F0001092800110927F010E94E50199E0BE01F5
:100700006F5F7F4FDB01E92F1D92EA95E9F799832F
:100710001A8391E09E8390EA98879AEF99872091B7
:10072000810130918201275F3F4F3C832B838D8372
:100730001092E9001092820110928101F0928001E2
:10074000E0927F0149E050E080E00E942F010E948A
:10075000E501E9C0F0928001E0927F010E94E0088B
:10076000DC011296ED90FC901397E114F10409F46A
:10077000C7C0D701ED91FC910480F581E02D6D2D6E
:100780007C2DC7010995009719F00CF0CCC0CFC0A3
:10079000F701E084F184E9CF973009F4C8C09830BC
:1007A00021F481E08093F100BEC0993009F0BBC014
:1007B000837009F0BCC0E4E1F1E081E021E036E3C0
:1007C0009081992361F08093E9002093EB0091914F
:1007D0009093EC003093ED008F5F873089F78EE7C0
:1007E0008093EA001092EA008F89809388019BC071
:1007F0008B8D9C8D1092E9001092820110928101E4
:100800009093800180937F01898D81115FC08E89D3
:100810009D89913A59F4813209F089C047E050E04E
:1008200064E071E080E00E942F017DC0913209F008
:100830007EC0833289F4888D90E0982F88272F8995
:10084000822BA0E0B0E08093000190930101A0937F
:100850000201B093030167C08032B1F48091E800D7
:1008600082FFFCCFE4E0F1E087E08E0F8E1729F0E5
:100870009091F10090833196F9CF84E680938701BF
:100880008BEF8093E80006C0823209F04CC08F895C
:1008900080930B0180918401882319F0EEEFFAE038
:1008A00002C0E0E0F8E08091040190910501A09180
:1008B0000601B0910701803B9440A105B10509F004
:1008C0007AC080910B0180FF92C075C00E94E00841
:1008D000DC0112960D911C9113970115110539F148
:1008E000D801ED91FC910190F081E02D6D2D7C2DD2
:1008F000C8010995811117C0F80100851185EDCF58
:10090000113009F44EC0133091F48F89882309F413
:1009100045C0823081F440E862E18DE191E00E94BF
:10092000F200882321F08EEF8093E80079C081E205
:100930008093EB0075C0813029F440E868E184E0E1
:1009400091E0EDCF833099F70E94E008DC01129628
:10095000ED90FC9013978E010F5F1F4F6801E1141B
:10096000F10479F0D701ED91FC910680F781E02D3B
:10097000B801C7010995080F111DF701E084F18442
:10098000EECFD8011C92F60101900020E9F73197D3
:10099000BF016C197D0940E0C601C1CF6EEE70E069
:1009A00002C062EF70E06115710509F2FB0144912C
:1009B00050E080E838CF0FB6F894A8958091600099
:1009C000886180936000109260000FBEA895EE3F92
:1009D0002AE0F20739F08091FE0A9091FF0A918394
:1009E0008083A1CF1092FF0A1092FE0A9CCFEE3FA7
:1009F0008AE0F80731F0808191819093FF0A80931B
:100A0000FE0A87E797E7918380839BE088E10FB632
:100A1000F894A895809360000FBE9093600083CFF8
:100A20006C960FB6F894DEBF0FBECDBFDF91CF91AD
:100A3000FF91EF91BF91AF919F918F917F916F91B6
:100A40005F914F913F912F911F910F91FF90EF90E8
:100A5000DF90CF900F900FBE0F901F9018958F9240
:100A60009F92AF92BF92CF92DF92EF92FF926B0173
:100A70007C010E94C0014B015C01C114D104E1045E
:100A8000F104F1F00E94C001DC01CB018819990941
:100A9000AA09BB09883E9340A105B10570F321E086
:100AA000C21AD108E108F10888EE880E83E0981E8A
:100AB000A11CB11CC114D104E104F10419F7DDCF6C
:100AC000FF90EF90DF90CF90BF90AF909F908F906E
:100AD00008958F929F92AF92BF92CF92DF92EF9242
:100AE000FF920F931F93CF93DF935C016B017A0109
:100AF00080910B01882309F459C0809188018823D3
:100B000009F454C08091850180FF05C08091E00008
:100B100082608093E000E70110E00AEF83E0882E16
:100B20009AE3992E2097D1F10E94CF08811109C034
:100B30000150E1F161E070E080E090E00E942F055B
:100B4000F1CF282F30E0C217D3070CF48C2F4FB70A
:100B5000F8948092E9009091E80095FF1DC0282F3D
:100B600030E0C21BD30BF601982F915020F08191F9
:100B70008093F100FACFC20ED31E112319F0909288
:100B8000E80009C08091E80085FD06C09092E80069
:100B900011E0209709F010E04FBFC4CF1111C4CF6E
:100BA00084E6809383011E141F0444F081E090E0EA
:100BB000F5019383828380E090E001C0C701DF915B
:100BC000CF911F910F91FF90EF90DF90CF90BF904A
:100BD000AF909F908F9008951F920F920FB60F9233
:100BE00011242F933F938F939F93AF93BF93809143
:100BF000770190917801A0917901B0917A013091BB
:100C0000760123E0230F2D3720F40196A11DB11D9D
:100C100005C026E8230F0296A11DB11D2093760181
:100C20008093770190937801A0937901B0937A0132
:100C300080917B0190917C01A0917D01B0917E011A
:100C40000196A11DB11D80937B0190937C01A0931F
:100C50007D01B0937E01BF91AF919F918F913F91A4
:100C60002F910F900FBE0F901F901895AF92BF92CB
:100C7000CF92DF92EF92FF920F931F93CF93DF9368
:100C80001F92CDB7DEB75C017B018B016C0184E064
:100C9000C80ED11CF80161918F01C50169830E94C2
:100CA000CC0A6981681719F0C5010E94D40AFFEFC8
:100CB000AF1ABF0AAC14BD0469F7C7010F90DF91EA
:100CC000CF911F910F91FF90EF90DF90CF90BF9049
:100CD000AF900895EF92FF920F931F93CF93DF93FE
:100CE0001F92CDB7DEB78C017B01FB016081698368
:100CF0000E94CC0A6981681719F0C8010E94D40AC1
:100D0000C7010F90DF91CF911F910F91FF90EF904E
:100D10000895CF92DF92EF92FF920F931F93CF939C
:100D2000DF93EB017B0124E0E20EF11C8B016C01EF
:100D3000C61AD70AC601800F911F0E94CC0AF8017B
:100D400081938F01EE15FF05A9F7CE01DF91CF91B9
:100D50001F910F91FF90EF90DF90CF90089589E859
:100D600091E00E94A201181619065CF489E891E04E
:100D70000E941B0262E070E080E090E00E942F057C
:100D8000EECF0895E0918901F0918A010280F3810C
:100D9000E02D42E050E06CE671E089E891E00994D2
:100DA0004F925F926F927F928F929F92AF92BF927B
:100DB000CF92DF92EF92FF92412C512C3201CC2442
:100DC000CA94DC2C76014B015C0120E2820E911C5E
:100DD000A11CB11C481459046A047B0408F057C0D4
:100DE000C2010E94CC0AA70196012827DA01C90195
:100DF0008F709927AA27BB27880F991F880F991FE3
:100E0000FC01EB51FE4F80819181A281B38134E0DE
:100E1000F694E794D794C7943A95D1F7C826D92683
:100E2000EA26FB26C2010E94CC0A90E044E0959598
:100E300087954A95E1F7092E000CAA0BBB0B8C2570
:100E40009D25AE25BF258F709927AA27BB27880F20
:100E5000991F880F991FFC01EB51FE4F80819181F2
:100E6000A281B38164E0F694E794D794C7946A951D
:100E7000D1F7C826D926EA26FB26C094D094E09460
:100E8000F0943FEF431A530A630A730AA3CFC701D2
:100E9000B601FF90EF90DF90CF90BF90AF909F9002
:100EA0008F907F906F905F904F9008958F929F9258
:100EB000AF92BF92EF92FF920F931F93CF93DF9366
:100EC0001F92CDB7DEB7009741F0019749F480E259
:100ED000882E912CA12CB12C03C0812C912C540173
:100EE000FB01848195810197809730F57B0100E0BB
:100EF00010E0F70124813581C801880D991D021782
:100F0000130710F019820DC0F701208131812115DE
:100F1000310529F0F901E00FF11F208101C020E027
:100F20002983BE016F5F7F4F0E946A060F5F1F4FCC
:100F300000321105F1F603C081E0809325020F9085
:100F4000DF91CF911F910F91FF90EF90BF90AF90E5
:100F50009F908F9008950E94160DEF92FF920F932D
:100F60001F93CF93DF9300D0CDB7DEB78C01698399
:100F70001A82FC01E480F580FFEFEF1AFF0AB70147
:100F80000E945D02882381F0F801208131818481F3
:100F90009581BE016F5F7F4F820F931F0E94240DCA
:100FA000F801F582E48281E00F900F90DF91CF91FC
:100FB0001F910F91FF90EF900895EF92FF920F9382
:100FC0001F93CF93DF93EC017B018A01BA010E944A
:100FD0005D022881398181110DC02115310519F07B
:100FE000C9010E94B40B198218821D821C821B82C7
:100FF0001A8206C01D830C83B701C9010E94240D0B
:10100000CE01DF91CF911F910F91FF90EF90089546
:101010004F925F926F927F92AF92BF92CF92DF9288
:10102000EF92FF920F931F93CF93DF93CDB7DEB76D
:10103000A0970FB6F894DEBF0FBECDBF8C015B0149
:1010400040E050E06EE671E0C5010E94DD071982C4
:101050001A821B821C820115110589F001301105CD
:10106000E9F460E270E080E090E00E94D0062B019D
:101070003C01BE016F5F7F4F80E690E00CC060E0F6
:1010800070E0CB010E94D0062B013C01BE016F5FD6
:101090007F4F80E490E00E94890603C0412C512CD0
:1010A000320189819A81AB81BC81481659066A0652
:1010B0007B0659F082E08093250244E050E06FE621
:1010C00071E0C5010E94DD072CC00115110549F032
:1010D0000130110549F490E2C92ED12CE12CF12CFC
:1010E00003C0C12CD12C7601FE01319680E2DF01D4
:1010F0001D928A95E9F78F01CE1ADF0A80E2F82E59
:10110000FE0EC601800F911F0E94CC0AF801819348
:101110008F01882331F0682FC5010E94AD07F012BE
:10112000F0CFA0960FB6F894DEBF0FBECDBFDF9113
:10113000CF911F910F91FF90EF90DF90CF90BF90D4
:10114000AF907F906F905F904F900895FC018091D9
:101150008801811103C08FEF9FEF08959FB7F89426
:1011600082E08093E9002091F20030E0121613062D
:1011700014F421E030E02115310551F084E680932C
:1011800087018091F10080838091F200882319F01B
:101190009FBFC90108958BE68093E800F9CF2FB770
:1011A000F89483E08093E9009091E800892F8072A1
:1011B00095FF04C09091F20080E4891B2FBF089531
:1011C00080912A0281110DC082E08093260284E082
:1011D00080932702109229021092280281E08093C6
:1011E0002A0286E292E008958091D9019091DA0175
:1011F0000E94B40B8091DF019091E0010C94B40B3C
:10120000E9E8F1E01382128288EE93E0A0E0B0E01A
:1012100084839583A683B7838EE591E09183808351
:101220008FEF9FEF9587848780E4EAE1F1E0A5EEF8
:10123000B1E001900D928A95E1F7EFEDF1E01182B6
:101240001082138212821582148240E050E06EE612
:1012500071E0CF010E94DD07E9EDF1E0118210821B
:10126000138212821582148240E050E06EE671E033
:10127000CF010C94DD07CF93DF9300D000D0CDB722
:10128000DEB7789484B5826084BD84B5816084BD06
:1012900085B5826085BD85B5816085BD80916E0014
:1012A000816080936E001092810080918100826045
:1012B0008093810080918100816080938100809182
:1012C0008000816080938000809191008260809393
:1012D00091008091910081608093910080919000B5
:1012E0008160809390008091C10084608093C100F0
:1012F0008091C10082608093C1008091C1008160B3
:101300008093C1008091C30081608093C30080916D
:10131000C00082608093C0008091C2008160809391
:10132000C20080917A00846080937A0080917A0074
:10133000826080937A0080917A00816080937A0045
:1013400080917A00806880937A00109288011092D0
:101350008601109285018091D70081608093D7002B
:1013600080EA8093D80089B5806189BD89B58260A3
:1013700089BD09B400FEFDCF61E070E080E090E03F
:101380000E942F058091D8008F7C80618093D800C7
:101390008091E000807F8093E0008091E1008E7E6C
:1013A0008093E1008DE08093E200EEEFFFE785910E
:1013B00094918B3F9C4D19F481E0809384018FEFD1
:1013C0009FEF90939601809395018EE190E0A0E0CD
:1013D000B0E080938D0190938E01A0938F01B09324
:1013E00090010E94AF0600E010E0FF24F39489E82A
:1013F00091E00E94A201181619060CF094C040E07A
:1014000050E06EE671E08FED91E00E94DD0740E074
:1014100050E06EE671E089ED91E00E94DD07F09208
:101420000C0189E891E00E94A201181619060CF03F
:101430006CC062E070E080E090E00E942F0589E8D7
:1014400091E00E941B02682F863209F047C06FEDC1
:1014500071E080E090E00E9408081092250269ED9A
:1014600071E081E090E00E94080810922502E0916E
:101470008901F0918A014091E3015091E40160916A
:10148000DF017091E0010280F381E02D89E891E0B5
:101490000995E0918901F0918A010280F381E02DA4
:1014A00041E050E064E771E089E891E00995E0915E
:1014B0008901F0918A014091DD015091DE01609136
:1014C000D9017091DA010280F381E02D89E891E081
:1014D00009950E94C2060E94AF0625C08A3319F4FE
:1014E00010920C019ECF8D3009F49BCF8A3009F405
:1014F00098CF80910C01882319F08FED91E002C004
:1015000089ED91E00E94AD078CCF8091E30190912D
:10151000E401892B31F08091DD019091DE01892B6E
:1015200049F40E94C2060115110509F460CF0E941A
:1015300000005DCF6FED71E080E090E00E94560703
:1015400060E070E0CB010E94D00669837A838B83D0
:101550009C83BE016F5F7F4F80E490E00E9436065F
:101560001092250269ED71E081E090E00E9456073B
:1015700060E270E080E090E00E94D00669837A83A8
:101580008B839C83BE016F5F7F4F80E690E00E945B
:10159000360610922502C5CFF999FECF92BD81BDC6
:1015A000F89A992780B50895262FF999FECF1FBA8A
:1015B00092BD81BD20BD0FB6F894FA9AF99A0FBE7C
:1015C000019608952F923F924F925F926F927F9271
:1015D0008F929F92AF92BF92CF92DF92EF92FF9243
:1015E0000F931F93CF93DF93CDB7DEB7CA1BDB0BEF
:1015F0000FB6F894DEBF0FBECDBF09942A88398894
:1016000048885F846E847D848C849B84AA84B9849A
:10161000C884DF80EE80FD800C811B81AA81B981A6
:10162000CE0FD11D0FB6F894DEBF0FBECDBFED01BA
:101630000895EE0FFF1F0590F491E02D0994CF93CC
:10164000DF938230910510F482E090E0E091340263
:10165000F091350220E030E0C0E0D0E0309711F1A9
:101660004081518148175907C0F04817590761F464
:1016700082819381209719F09B838A832BC090935A
:1016800035028093340226C02115310519F0421726
:10169000530718F49A01BE01DF01EF010280F381C4
:1016A000E02DDCCF2115310509F1281B390B243041
:1016B000310590F412968D919C91139761157105E7
:1016C00021F0FB019383828304C0909335028093C1
:1016D0003402FD01329644C0FD01E20FF31F8193F5
:1016E0009193225031092D933C933AC020913202BC
:1016F00030913302232B41F420910F0130911001DE
:10170000309333022093320220910D0130910E016B
:101710002115310541F42DB73EB74091110150918B
:101720001201241B350BE0913202F0913302E217D3
:10173000F307A0F42E1B3F0B2817390778F0AC01F4
:101740004E5F5F4F2417350748F04E0F5F1F5093D1
:101750003302409332028193919302C0E0E0F0E0C3
:10176000CF01DF91CF9108950F931F93CF93DF9314
:10177000009709F48CC0FC01329713821282009109
:101780003402109135020115110581F42081318157
:10179000820F931F209132023091330228173907AC
:1017A00079F5F0933302E093320271C0D80140E042
:1017B00050E0AE17BF0750F412962D913C9113974D
:1017C000AD012115310509F1D901F3CF9D01DA01F0
:1017D0003383228360817181860F971F821793075D
:1017E00069F4EC0128813981260F371F2E5F3F4FA6
:1017F000318320838A819B8193838283452B29F4C3
:10180000F0933502E093340242C01396FC93EE93BA
:101810001297ED01499159919E01240F351FE2174E
:10182000F30771F480819181840F951F02961196C0
:101830009C938E938281938113969C938E9312979F
:10184000E0E0F0E0D80112968D919C9113970097FB
:1018500019F0F8018C01F6CF8D919C9198012E5FC3
:101860003F4F820F931F209132023091330228178D
:10187000390769F4309729F4109235021092340236
:1018800002C0138212821093330200933202DF915E
:10189000CF911F910F910895A0E0B0E0E2E5FCE048
:1018A0000C94E60AEC01009721F4CB010E941F0B77
:1018B000B8C0FC01E60FF71F9C0122503109E21766
:1018C000F30708F4ACC0D9010D911C9111970617CC
:1018D0001707B0F00530110508F49FC0C801049740
:1018E0008617970708F499C002501109061B170BB9
:1018F000019311936D937C93CF010E94B40B8DC023
:101900005B01A01AB10A4C01800E911EA091340215
:10191000B091350240E050E0E12CF12C109709F431
:101920004AC0A815B905D1F56D907C901197630157
:1019300082E0C80ED11CCA14DB0480F1A3014A194D
:101940005B096A0182E0C80ED11C1296BC90129706
:101950001396AC91B5E0CB16D10440F0B282A383CC
:1019600051834083D9016D937C930AC00E5F1F4F52
:10197000C301800F911FF90191838083EB2DFA2F12
:10198000E114F10431F0D7011396FC93EE93129712
:1019900044C0F0933502E09334023FC08D919C9196
:1019A00011974817590708F4AC017D0112960D9064
:1019B000BC91A02DB3CF8091320290913302881553
:1019C0009905E1F446175707C8F480910D019091ED
:1019D0000E01009741F48DB79EB7409111015091CF
:1019E0001201841B950BE817F907C8F4F093330232
:1019F000E0933202F901718360830FC0CB010E9432
:101A00001F0B7C01009759F0A801BE010E941B0D1D
:101A1000CE010E94B40BC70104C0CE0102C080E019
:101A200090E0CDB7DEB7EEE00C94020B81E090E0E1
:101A3000F8940C942B0DFB01DC0102C001900D9277
:101A400041505040D8F70895FB01DC0101900D9200
:101A50000020E1F7089510E0C9E9D0E004C0FE01DC
:101A60000E94190B2196CA39D107C9F7F894FFCF04
:101A7000FFFFFFFF00E10000000000000100003652
:101A800002800000C180810000000000000064109E
:101A9000B71DC8206E3BAC30D9269041DC76F4519E
:101AA0006B6B5861B24D3C7105502083B8ED449387
:101AB0000FF0E8A3D6D68CB361CBB0C2649BD4D26E
:101AC000D38678E20AA01CF2BDBD000000008101AF
:101AD000690517029701A2011B0239020D0A006E67
:061AE0006F6E65003A0084
:00000001FF
