:100000000C9427010C944F010C944F010C944F0158
:100010000C944F010C944F010C944F010C944F0120
:100020000C944F010C944F010C94B7030C942004D2
:100030000C944F010C944F010C944F010C944F0100
:100040000C944F010C944F010C944F010C944F01F0
:100050000C944F010C944F010C944F010C944108E7
:100060000C944F010C944F010C944F010C944F01D0
:100070000C944F010C944F010C944F010C944F01C0
:100080000C9462060C944F010C944F010C944F0198
:100090000C948B080C944F010C944F010C944F015D
:1000A0000C944F010C944F010C944F01DF06E206B3
:1000B000D106D506DB06030703070307E606EA06B3
:1000C000EE06F406F8060307FE064E414E494E4979
:1000D0005459494E46CDCCCC3D0AD7233C17B7D115
:1000E0003877CC2B329595E6241FB14F0A000020BB
:1000F000410000C84200401C4620BCBE4CCA1B0E3A
:100100005AAEC59D7400000000240027002A002D6F
:10011000003000080B000202020100090400000187
:10012000020200000524001001052401010104243D
:10013000020605240600010705810310004009049A
:100140000100020A00000007050202400000070546
:1001500083024000000403090412010002EF0201BF
:1001600040D80490EE0001010203014D6963726FF3
:100170006368697020546563686E6F6C6F6779207F
:10018000496E63004F70656E74726F6E73204D61BF
:10019000674465636B005A3A006865696768743A3A
:1001A0000052657374617274696E6720616E6420B9
:1001B000656E746572696E6720626F6F746C6F61D3
:1001C0006465722E2E2E0000000000250028002BF2
:1001D000002E00310003000000002300260029004B
:1001E0002C002F000404040404030405020202028C
:1001F00004030202020206060606060604040202C0
:100200000204040802011040804010204080408019
:10021000080204018040201002011080102040409C
:100220000000000200090F0000030401000C0000A0
:100230002076657273696F6E3A00206D6F64656C2D
:100240003A0073657269616C3A00631941151124B3
:100250001FBECFEFDAE0DEBFCDBF23E0ACEEB1E0F2
:1002600001C01D92A13CB207E1F711E0A0E0B1E0AE
:10027000E8E3F1E402C005900D92AC3EB107D9F776
:1002800011E0C6E2D1E004C02197FE010E945A1E8F
:10029000C532D107C9F70E9468150C948F200C94C1
:1002A000000040918E0250918F0220918C0230917B
:1002B0008D0242175307B4F49091E8009570E1F372
:1002C0009091E80092FD19C08093F10080918E0218
:1002D00090918F0201968F739927892B19F48EEFD5
:1002E0008093E80080918E0290918F020196909306
:1002F0008F0280938E0281E0089580E00895CF926E
:10030000DF92EF92FF920F931F93CF93DF931F9291
:10031000CDB7DEB7182F062FE42E862F880F8E5FFD
:1003200099830E94510183E00E945101F12EC12E58
:100330009981D92E8C2D8F19801798F4F601E7FE3C
:1003400002C0849101C080810E945101182F80E079
:100350000E9451018123FFEFCF1ADF0A8111EACFFA
:1003600001C081E00F90DF91CF911F910F91FF901D
:10037000EF90DF90CF900895DF92EF92FF920F936E
:100380001F93CF93DF93D82E8A017B01E40EF51ED5
:10039000EB01CE15DF0571F0D7FE03C0FE0184919D
:1003A00001C088810E94510121968111F2CF8FEF07
:1003B0009FEF01C0C801DF91CF911F910F91FF9076
:1003C000EF90DF900895CF92DF92EF92FF920F931C
:1003D0001F93CF93DF936C017A018B01C0E0D0E0D3
:1003E000CE15DF0589F0D8016D918D01D601ED9113
:1003F000FC910190F081E02DC6010995892B11F443
:100400007E0102C02196ECCFC701DF91CF911F91F1
:100410000F91FF90EF90DF90CF900895CF93DF93EF
:100420001F92CDB7DEB76983DC01ED91FC910280AC
:10043000F381E02D41E050E0BE016F5F7F4F0995F1
:100440000F90DF91CF91089583E08093E900809130
:10045000F200882319F08AE38093E8000895FC01F4
:100460008485958597FD0BC09FB7F89482E08093B3
:10047000E9008091F2009FBF90E0019608959FB738
:10048000F89482E08093E9008091F2009FBF90E0B1
:1004900008953FB7F8948091880290918902A091C5
:1004A0008A02B0918B0226B5A89B05C02F3F19F098
:1004B0000196A11DB11D3FBFBA2FA92F982F8827E4
:1004C000820F911DA11DB11DBC01CD0142E0660F3F
:1004D000771F881F991F4A95D1F7089585ED80935E
:1004E000BC008091BC0084FDFCCF10929602089560
:1004F00040913A02262F30E0240F311D2132310580
:10050000DCF4209196022430C9F4FC0180E090E0F4
:10051000861758F430913A022191DC01A85EBD4F54
:10052000A30FB11D2C930196F3CF80913A02680F6F
:1005300060933A0280E0089581E0089582E0089592
:10054000089581E090E030919A022091990232174B
:1005500010F480E090E09195819591090895809143
:100560009A0290919902891730F48F5F80939A02D2
:1005700080E090E008958FEF9FEF089580919902B9
:1005800090E020919A02821B91090895CF92DF9208
:10059000EF92FF920F931F93CF93DF937C01262F4F
:1005A000972F8A0180911702882391F0C62FD72FA9
:1005B0006E01C40ED51ECC15DD0571F06991D70111
:1005C000ED91FC910190F081E02DC7010995F3CFE9
:1005D000642F822F0E947802C801DF91CF911F9172
:1005E0000F91FF90EF90DF90CF900895CF93DF931E
:1005F0001F92CDB7DEB76983209117022223D1F075
:1006000020919702203240F021E030E0FC0133835A
:10061000228380E090E015C080919802E82FF0E0FE
:10062000E950FE4F998190838F5F80939802809369
:10063000970205C061E0CE0101960E94780281E038
:1006400090E00F90DF91CF910895089580E090E0C1
:10065000089508950F931F93CF93DF931F92CDB703
:10066000DEB782E0898342E450E063E171E080E834
:100670000E94BC010E94EF0DDC0112960D911C91AD
:1006800013970115110569F0D801ED91FC910280D5
:10069000F381E02DBE016F5F7F4FC801099597FF81
:1006A00007C089810F90DF91CF911F910F9108951D
:1006B000F80100851185E5CF0E94DE0D90E00895D8
:1006C0000F931F93CF93DF931F92CDB7DEB78C01AB
:1006D000FC018485958597FF0EC0CE0101960E948E
:1006E000B50D019719F4298130E002C02FEF3FEFDB
:1006F000F80135872487F801848595850F90DF916F
:10070000CF911F910F910895CF93DF931F92CDB793
:10071000DEB7FC018485958597FD05C02FEF3FEF7F
:10072000358724870BC0CE0101960E94B50D019735
:1007300019F4898190E002C08FEF9FEF0F90DF9155
:10074000CF910895FC0111821082138212821582CA
:1007500014826115710551F0FB0101900020E9F749
:100760003197AF01461B570B0C94330E08951F921F
:100770000F920FB60F9211248F939F938091E100F7
:100780009091E100937F9093E10083FF0FC010925E
:10079000E90091E09093EB001092EC0092E39093CB
:1007A000ED0010929C0298E09093F00082FF1CC034
:1007B00093E09093E9009091F200992319F09AE365
:1007C0009093E80090919002992329F090919002E3
:1007D00091509093900290919B02992329F09091CF
:1007E0009B02915090939B0284FF10C08091E20085
:1007F0008E7E81608093E2008091E1008F7E809305
:10080000E100809192028E7E806111C080FF11C054
:100810008091E2008E7E80618093E2008091E10011
:100820008E7E8093E100809192028E7E8160809323
:1008300092029F918F910F900FBE0F901F9018956D
:100840001F920F920FB60F921124CF92DF92EF9268
:10085000FF920F931F932F933F934F935F936F9349
:100860007F938F939F93AF93BF93EF93FF93CF9318
:10087000DF93CDB7DEB76C97DEBFCDBF1092E90036
:100880008091E80083FFFFC1FE017596DE2ECF2E1A
:1008900088E08E0F8E1729F09091F10090833196A9
:1008A000F9CF84E680939B0282EF8093E8008D89E4
:1008B00087FF05C09091E80090FFFCCF03C09EEF3A
:1008C0009093E800982F907609F0C5C09E892F89F3
:1008D000188D91110CC0803829F480919302809377
:1008E000F10002C01092F1001092F1004FC1422FAE
:1008F00050E0512B913051F4811148C141305105E4
:1009000009F044C1809193028D7F0BC0933061F454
:1009100081113CC14130510509F038C180919302E9
:1009200082608093930232C1953041F48091E80057
:1009300080FFFCCF20682093E30028C1963009F0A7
:100940005EC0EB8CFC8C1092E90010928F0210922A
:100950008E02123091F510928D0210928C020E943C
:100960002A0399E0BE016F5F7F4FDB01E92F1D92E3
:10097000EA95E9F799831A8391E09E8390EA988734
:100980009AEF998720918E0230918F02275F3F4F17
:100990003C832B838D831092E90010928F0210927A
:1009A0008E02F0928D02E0928C0249E050E080E0ED
:1009B0000E94BC010E942A03E9C0F0928D02E092DD
:1009C0008C020E94EF0DDC011296ED90FC901397C3
:1009D000E114F10409F4C7C0D701ED91FC91048042
:1009E000F581E02D6D2D7C2DC7010995009719F03B
:1009F0000CF0CCC0CFC0F701E084F184E9CF973090
:100A000009F4C8C0983021F481E08093F100BEC0A1
:100A1000993009F0BBC0837009F0BCC0ECE2F1E092
:100A200081E021E036E39081992361F08093E90031
:100A30002093EB0091919093EC003093ED008F5F49
:100A4000873089F78EE78093EA001092EA008F8959
:100A500080939C029BC08B8D9C8D1092E90010921C
:100A60008F0210928E0290938D0280938C02898D5A
:100A700081115FC08E899D89913A59F4813209F0C4
:100A800089C047E050E064E171E080E00E94BC0171
:100A90007DC0913209F07EC0833289F4888D90E068
:100AA000982F88272F89822BA0E0B0E08093100137
:100AB00090931101A0931201B093130167C080328B
:100AC000B1F48091E80082FFFCCFE4E1F1E087E03F
:100AD0008E0F8E1729F09091F10090833196F9CF07
:100AE00084E680939B028BEF8093E80006C08232FD
:100AF00009F04CC08F8980931B018091910288235B
:100B000019F0EEEFFAE002C0E0E0F8E080911401A5
:100B100090911501A0911601B0911701803B94406E
:100B2000A105B10509F07AC080911B0180FF92C038
:100B300075C00E94EF0DDC0112960D911C91139768
:100B40000115110539F1D801ED91FC910190F08169
:100B5000E02D6D2D7C2DC8010995811117C0F8017C
:100B600000851185EDCF113009F44EC0133091F49A
:100B70008F89882309F445C0823081F440E861E11F
:100B800084E891E00E947F01882321F08EEF80931A
:100B9000E80079C081E28093EB0075C0813029F4D0
:100BA00040E868E18BE691E0EDCF833099F70E9451
:100BB000EF0DDC011296ED90FC9013978E010F5F04
:100BC0001F4F6801E114F10479F0D701ED91FC9118
:100BD0000680F781E02DB801C7010995080F111DA6
:100BE000F701E084F184EECFD8011C92F601019068
:100BF0000020E9F73197BF016C197D0940E0C6017B
:100C0000C1CF65E571E002C069E571E0611571056C
:100C100009F2FB01449150E080E838CF0FB6F89418
:100C2000A8958091600088618093600010926000B8
:100C30000FBEA895EE3F2AE0F20739F08091FE0A38
:100C40009091FF0A91838083A1CF1092FF0A1092A6
:100C5000FE0A9CCFEE3F8AE0F80731F08081918157
:100C60009093FF0A8093FE0A87E797E7918380833A
:100C70009BE088E10FB6F894A895809360000FBEC2
:100C80009093600083CF6C960FB6F894DEBF0FBED2
:100C9000CDBFDF91CF91FF91EF91BF91AF919F9128
:100CA0008F917F916F915F914F913F912F911F9104
:100CB0000F91FF90EF90DF90CF900F900FBE0F90AD
:100CC0001F9018951F920F920FB60F9211242F9319
:100CD0003F938F939F93AF93BF93EF93FF93809135
:100CE000AD029091AE02A091AF02B091B002892BFB
:100CF0008A2B8B2B51F18091AA02E091AB02F091EB
:100D0000AC029081892780838091AD029091AE02E0
:100D1000A091AF02B091B002181619061A061B0670
:100D20004CF58091AD029091AE02A091AF02B091CE
:100D3000B0020197A109B1098093AD029093AE0270
:100D4000A093AF02B093B00215C0809171008D7F67
:100D5000809371009091AA02E091AB02F091AC02F5
:100D60008081282F30E0892F90E080959095822314
:100D700093238083FF91EF91BF91AF919F918F91CA
:100D80003F912F910F900FBE0F901F90189590E0FC
:100D9000FC013197EF30F105B0F5EA5AFF4F0C94A2
:100DA0005A1E809180008F7703C0809180008F7DD4
:100DB00080938000089580918000877FF9CF84B56B
:100DC0008F7702C084B58F7D84BD08958091900097
:100DD0008F7707C0809190008F7D03C08091900035
:100DE000877F8093900008958091C0008F7703C023
:100DF0008091C0008F7D8093C00008958091C200D3
:100E0000877F8093C20008951F93CF93DF93282F8D
:100E100030E0F901E05EFD4F8491F901EE5FFD4F96
:100E2000D491F901EC51FE4FC491CC23C9F0162F97
:100E300081110E94C706EC2FF0E0EE0FFF1FE9536F
:100E4000FE4FA591B4918FB7F894111105C09C91F4
:100E5000ED2FE095E92302C0EC91ED2BEC938FBFD1
:100E6000DF91CF911F91089561E08DE00E9404070A
:100E700060E085E00C940407CF93DF9390E0FC01E1
:100E8000EE5FFD4F2491FC01EC51FE4F84918823CD
:100E900061F190E0880F991FFC01EB5FFE4FC59157
:100EA000D491FC01E953FE4FA591B491611109C0A1
:100EB0009FB7F8948881209582238883EC912E2314
:100EC0000BC0623061F49FB7F8943881822F80950F
:100ED00083238883EC912E2B2C939FBF06C08FB762
:100EE000F894E8812E2B28838FBFDF91CF9108954E
:100EF0008F929F92AF92BF92CF92DF92EF92FF922A
:100F00006B017C010E9449024B015C01C114D104B8
:100F1000E104F104F1F00E944902DC01CB018819DF
:100F20009909AA09BB09883E9340A105B10570F350
:100F300021E0C21AD108E108F10888EE880E83E0AA
:100F4000981EA11CB11CC114D104E104F10419F7CD
:100F5000DDCFFF90EF90DF90CF90BF90AF909F904C
:100F60008F9008958F929F92AF92BF92CF92DF920F
:100F7000EF92FF920F931F93CF93DF935C016B016E
:100F80007A0180911B01882309F459C080919C0249
:100F9000882309F454C08091920280FF05C080919B
:100FA000E00082608093E000E70110E00AEF83E058
:100FB000882E9AE3992E2097D1F10E94DE0D81119F
:100FC00009C00150E1F161E070E080E090E00E9432
:100FD0007807F1CF282F30E0C217D3070CF48C2FFD
:100FE0004FB7F8948092E9009091E80095FF1DC0FA
:100FF000282F30E0C21BD30BF601982F915020F020
:1010000081918093F100FACFC20ED31E112319F003
:101010009092E80009C08091E80085FD06C090929A
:10102000E80011E0209709F010E04FBFC4CF111184
:10103000C4CF84E6809390021E141F0444F081E024
:1010400090E0F5019383828380E090E001C0C701C6
:10105000DF91CF911F910F91FF90EF90DF90CF9094
:10106000BF90AF909F908F9008952FB7F8946091A4
:1010700084027091850280918602909187022FBF31
:1010800008951F920F920FB60F9211242F933F9342
:101090008F939F93AF93BF93809184029091850229
:1010A000A0918602B09187023091830223E0230F42
:1010B0002D3720F40196A11DB11D05C026E8230F90
:1010C0000296A11DB11D2093830280938402909308
:1010D0008502A0938602B093870280918802909146
:1010E0008902A0918A02B0918B020196A11DB11DC7
:1010F0008093880290938902A0938A02B0938B0216
:10110000BF91AF919F918F913F912F910F900FBE03
:101110000F901F9018951F920F920FB60F921124E7
:101120002F933F934F935F936F937F938F939F93EF
:10113000AF93BF93EF93FF938091B900887F803680
:1011400009F49CC068F5883209F45BC090F48031E2
:1011500009F454C038F4882309F4F6C0883009F43F
:101160004DC0F6C0883109F44CC0803209F45DC02E
:10117000EFC0803409F468C048F4803309F455C0E6
:10118000883309F0E5C080935F02D8C0803509F448
:101190004FC0883509F45DC0883409F0D9C0D6C085
:1011A000883909F4C7C0A8F4883709F467C038F44F
:1011B000883609F463C0803709F460C0C9C0883834
:1011C00009F4B8C0803909F45FC0803809F0C0C0A4
:1011D0005BC0803B09F486C038F4803A09F466C0ED
:1011E000883A09F47FC0B4C0803C09F4A7C0883CA9
:1011F00009F4A4C0883B09F48AC0AAC08091820285
:1012000010C09091810280918002981770F5E09152
:10121000810281E08E0F80938102F0E0E05AFD4F61
:1012200080818093BB0085EC86C080935F028EC076
:10123000E091810281E08E0F809381028091BB005A
:10124000F0E0E05AFD4F808390918102809180020E
:101250006EC0E091810281E08E0F809381028091C7
:10126000BB00F0E0E05AFD4F808380919502811130
:101270006DC081E08093940284EA61C083E0809332
:10128000960210925E02CFCF80915E02803208F00B
:1012900051C0E0915E0281E08E0F80935E028091EA
:1012A000BB00F0E0E25CFD4F8083BDCF85EC809316
:1012B000BC001092960280915E02803230F4E09180
:1012C0005E02F0E0E25CFD4F108260915E0270E031
:1012D000E0913C02F0913D028EE392E0099510927C
:1012E0005E0236C084E08093960210923B02109218
:1012F0003A02E0913802F0913902099580913A0260
:10130000811105C081E080933A0210921802E091A9
:101310003B0281E08E0F80933B02F0E0E85EFD4FE0
:1013200080818093BB0090913B0280913A02981794
:1013300008F479CF85E88093BC000AC085EC8093DF
:10134000BC001092960204C010925F020E946E02CE
:10135000FF91EF91BF91AF919F918F917F916F918D
:101360005F914F913F912F910F900FBE0F901F9063
:101370001895CF92DF92EF92FF920F931F93CF9326
:10138000DF93EB017B0124E0E20EF11C8B016C0189
:10139000C61AD70AC601800F911F0E94A11CF8012E
:1013A00081938F01EE15FF05A9F7CE01DF91CF9153
:1013B0001F910F91FF90EF90DF90CF900895609371
:1013C0000C0170930D0180930E0190930F0120E0AA
:1013D00030E048E452E40E94E01B9B01AC0160E075
:1013E00074E284E799E40E94671D0E94E01DDC011D
:1013F000CB010297A109B1098093080190930901DB
:10140000A0930A01B0930B010895CF92DF92EF925F
:10141000FF92CF93DF93EB01682F89E00E940407CE
:1014200061E086E00E94040783E090E00197F1F715
:1014300060E086E00E940407C230D10538F0CC0F8E
:10144000DD1FCC0FDD1F25972197F1F7C090080114
:10145000D0900901E0900A01F0900B01C701B6019C
:1014600028EE33E040E050E00E94191E6230710522
:101470008105910540F0CB01880F991F880F991FB6
:1014800005970197F1F788EEC81683E0D806E104C6
:10149000F10490F0C701B60128EE33E040E050E0DF
:1014A0000E94191ECA01B901DF91CF91FF90EF9000
:1014B000DF90CF900C947807DF91CF91FF90EF9061
:1014C000DF90CF90089560E08DE00E94040761E016
:1014D00085E00C9404078F929F92AF92BF92CF92B7
:1014E000DF92EF92FF920F931F938091F20182306F
:1014F00009F03FC020912101309122014091230148
:1015000050912401609104017091050180910601C0
:10151000909107010E94FA1C6093040170930501E9
:101520008093060190930701C090F301D090F401DD
:10153000E090F501F090F6010FEFC01AD00AE00A32
:10154000F00AC092F301D092F401E092F501F0921A
:10155000F60120E030E0A9010E947A1B87FF52C00B
:1015600010920401109205011092060110920701D9
:1015700047C0813009F046C02091210130912201FD
:101580004091230150912401609104017091050163
:1015900080910601909107010E94FB1C6B017C0168
:1015A00060930401709305018093060190930701F5
:1015B000409108015091090160910A0170910B015D
:1015C00088EE93E0A0E0B0E08C019D01041B150BB8
:1015D000260B370BC901B8010E947F1B4B015C0130
:1015E0009B01AC01C701B6010E940F1E181654F4EE
:1015F0008092040190920501A0920601B092070129
:101600001092F20160910401709105018091060130
:10161000909107010E94D91DCB011F910F91FF905E
:10162000EF90DF90CF90BF90AF909F908F900895F4
:10163000CF92DF92EF92FF92CF93DF9300D000D052
:10164000CDB7DEB79B01AC0160930001709301013F
:101650008093020190930301C0900801D09009018A
:10166000E0900A01F0900B0188EE93E0A0E0B0E07A
:10167000BC01CD016C197D098E099F0929833A832C
:101680004B835C830E947F1B609304017093050170
:10169000809306019093070129813A814B815C81F7
:1016A00066E676E686E69FE30E94671D6093210169
:1016B00070932201809323019093240182E0809310
:1016C000F2011092F3011092F4011092F5011092C0
:1016D000F6010F900F900F900F90DF91CF91FF9038
:1016E000EF90DF90CF9008954F925F926F927F922C
:1016F0008F929F92AF92BF92CF92DF92EF92FF9222
:101700000F931F93CF93DF936B017C01C42F48018C
:10171000590120E030E0A9010E947A1BD82FDD1F7B
:10172000DD27DD1F20E030E0A901C701B6010E94DE
:101730000F1E20E030E048E452E418161CF4C70104
:10174000B60103C0C701B60190580E94E01B0E9479
:10175000E01D2B013C01C501B4010E94180B60E0A3
:101760008AE00E94040764E170E080E090E00E945B
:101770007807812C912C540111E084149504A6045F
:10178000B704D1F1920128193909C901330FAA0B05
:10179000BB0B4091F3015091F4016091F501709100
:1017A000F601481759076A077B0710F01093F201FA
:1017B0000E946B0ABC018D2F0E94050ACC2321F0E8
:1017C0000E949211892B31F08FEF881A980AA80A8B
:1017D000B80AD3CFDF91CF911F910F91FF90EF9077
:1017E000DF90CF90BF90AF909F908F907F906F9041
:1017F0005F904F900C94B611A70196016091B102D1
:101800007091B2028091B3029091B4020E94FB1CCD
:101810006093B1027093B2028093B3029093B402CA
:1018200061E08AE0DF91CF911F910F91FF90EF90DF
:10183000DF90CF90BF90AF909F908F907F906F90F0
:101840005F904F900C9404078F929F92AF92BF923B
:10185000CF92DF92EF92FF920F931F93CF936B0182
:101860007C01C42F480159012091B1023091B2028C
:101870004091B3025091B4020E947A1B87FF03C0CB
:101880000E94630A02C00E9434072091B102309185
:10189000B2024091B3025091B402C701B6010E9456
:1018A000FA1C950184014C2F0E94740B6091B102C7
:1018B0007091B2028091B3029091B4020E94D91D3E
:1018C000161617066CF0CF911F910F91FF90EF90B5
:1018D000DF90CF90BF90AF909F908F900C94630A51
:1018E000CF911F910F91FF90EF90DF90CF90BF901D
:1018F000AF909F908F900C943407CF93C62F91E0B8
:10190000909317029DE29093F10110929802109229
:101910009702682F85E093E00E94F6026C2F85E025
:1019200093E00E94F60280919702813208F049C04C
:10193000C0919602C111FCCF92E09093960291E083
:10194000909395029FEF90935F0210928102809393
:101950008002A7EFB1E020E632E0F9019E2F921B52
:10196000981718F49D919193F9CF1092820280916B
:1019700082028A658093820280919402813061F4B0
:1019800010929402809182028093BB008091BC00EF
:1019900083FDF8CF85EC01C085EE8093BC0080917B
:1019A00096028230E1F380915F028F3F79F080915F
:1019B0005F02803241F080915F02803331F0C4E0F9
:1019C00005C0C1E003C0C2E001C0C3E010929802AC
:1019D0001092970210921702CC2381F086E991E0D1
:1019E0000E946F0F6C2F70E080E090E04AE00E9450
:1019F00067108AEA91E0CF910C946F0FCF91089510
:101A000020E030E044EE52E40E94E01B0E94D91D29
:101A10006F3F710519F014F06FEF70E080E00E94E5
:101A20007D0C64E170E080E090E00C947807CF9347
:101A3000DF93EC0188819981009711F00E94F51ED7
:101A4000198218821D821C821B821A82DF91CF911B
:101A500008950E945720CF93DF93DC011496ED91F7
:101A6000FC9115976E177F0728F54115510511F167
:101A70009F01261B370B4217530708F49A01DB011D
:101A8000EC0188819981E21BF30BFD83EC83AF01AC
:101A9000461B570B260F371FBC01620F731F8A0F9F
:101AA0009B1F0E948020E881F9818C819D81E80F35
:101AB000F91F1082DF91CF9108950F931F93CF9359
:101AC000DF93EC0188819981009729F02A813B817D
:101AD0002617370788F48B016F5F7F4F0E948D1F99
:101AE000009761F0998388831B830A832C813D8151
:101AF000232B11F4FC01108281E001C080E0DF9112
:101B0000CF911F910F910895EF92FF920F931F9322
:101B1000CF93DF93FB0124813581E080F180FC01CC
:101B200004811581E114F10411F480E017C021153E
:101B3000310599F0EC01020F131FB8010E945D0DF1
:101B4000882399F3288139818C819D81B701820F87
:101B5000931F0E9479201D830C8381E0DF91CF9138
:101B60001F910F91FF90EF900895FC0180919C02CE
:101B7000811103C08FEF9FEF08959FB7F89482E023
:101B80008093E9002091F20030E01216130614F45D
:101B900021E030E02115310551F084E680939B026D
:101BA0008091F10080838091F200882319F09FBF1B
:101BB000C90108958BE68093E800F9CF2FB7F89418
:101BC00083E08093E9009091E800892F807295FF6F
:101BD00004C09091F20080E4891B2FBF089580918A
:101BE000A20281110DC082E080939E0284E0809366
:101BF0009F021092A1021092A00281E08093A202A3
:101C00008EE992E00895EF92FF920F931F93CF9386
:101C1000DF9300D0CDB7DEB78C0169831A82FC0157
:101C2000E480F580FFEFEF1AFF0AB7010E945D0D17
:101C3000882381F0F8012081318184819581BE0162
:101C40006F5F7F4F820F931F0E947920F801F5820A
:101C5000E48281E00F900F90DF91CF911F910F915F
:101C6000FF90EF900895EF92FF920F931F93CF9301
:101C7000DF93EC017B018A01BA010E945D0D8111A5
:101C800004C0CE010E94170D07C01D830C83B7014D
:101C9000888199810E947920CE01DF91CF911F9197
:101CA0000F91FF90EF900895CF93DF93EC016115B2
:101CB000710559F0FB0101900020E9F73197AF0160
:101CC000461B570B0E94330E02C00E94170DCE0117
:101CD000DF91CF9108954F925F926F927F92AF9272
:101CE000BF92CF92DF92EF92FF920F931F93CF9309
:101CF000DF93CDB7DEB7A0970FB6F894DEBF0FBE67
:101D0000CDBF8C015B016CEA71E0C5010E94540EED
:101D100019821A821B821C820115110589F001307B
:101D20001105E9F460E270E080E090E00E94BB14ED
:101D30002B013C01BE016F5F7F4F80E690E00CC03D
:101D400060E070E0CB010E94BB142B013C01BE019E
:101D50006F5F7F4F80E490E00E94B90903C0412C7F
:101D6000512C320189819A81AB81BC814816590678
:101D70006A067B0649F082E0809353036DEA71E0C6
:101D8000C5010E94540E2CC00115110549F0013007
:101D9000110549F490E2C92ED12CE12CF12C03C09D
:101DA000C12CD12C7601FE01319680E2DF011D921B
:101DB0008A95E9F78F01CE1ADF0A80E2F82EFE0E2F
:101DC000C601800F911F0E94A11CF80181938F0111
:101DD000882331F0682FC5010E94030EF012F0CF66
:101DE000A0960FB6F894DEBF0FBECDBFDF91CF91A6
:101DF0001F910F91FF90EF90DF90CF90BF90AF9029
:101E00007F906F905F904F900895FB01DC011196D9
:101E10001C921E9213961C921E92129715961C925B
:101E20001E9214978617970749F06081718161159A
:101E3000710521F0448155810C94330E0895FC0105
:101E4000808191810C94F51EE091B502F091B6026B
:101E5000DC0114964D915C9115976D917C910280F7
:101E6000F381E02D85EB92E009940F931F930E947C
:101E700035086093BD027093BE028093BF029093B9
:101E8000C002E091B502F091B6020284F385E02D24
:101E900085EB92E0099597FF1FC00E9435080091DD
:101EA000BD021091BE022091BF023091C002DC0140
:101EB000CB01801B910BA20BB30B0091B9021091C7
:101EC000BA022091BB023091BC0280179107A20791
:101ED000B307B8F28FEF9FEF1F910F910895BC01E8
:101EE000009791F0FC0101900020E9F73197AF01D4
:101EF000481B590BE091B502F091B6020280F381C4
:101F0000E02D85EB92E0099480E090E008958DED5E
:101F100091E00E946F0F8AEA91E00E946F0F8DEDB1
:101F200091E00E946F0F8AEA91E00C946F0FEF929C
:101F3000FF920F931F93CF93DF9300D000D000D078
:101F4000CDB7DEB7682F8091880390918903892BE4
:101F500009F454C0E0908403F0908503062E000C31
:101F6000770BC7010E946520009709F447C08C01D8
:101F70000E191F0917FD42C06CEA71E0CE010196EF
:101F80000E94A203F12C0F5F1F4F80918803909154
:101F9000890308171907D8F4809184039091850369
:101FA000009729F0FC01E00FF11F608101C060E0A3
:101FB00080ED860F8A3020F16D3229F48D819E816B
:101FC000892BE9F004C06E3211F4FF20F1F0898111
:101FD0009A81009711F410E00BC00E94F1196093F0
:101FE000560370935703809358039093590311E05D
:101FF000CE0101960E941F0F812F13C012C06DE207
:10200000CE0101960E94030EBECF8D819E81892B49
:10201000F1F26EE2CE0101960E94030EFF24F394CA
:10202000B2CF26960FB6F894DEBF0FBECDBFDF91BC
:10203000CF911F910F91FF90EF9008950F931F93F1
:10204000CF93DF938C01C0E0D0E0F801EC0FFD1FCF
:102050006491662371F0E091B502F091B6020190AF
:10206000F081E02D85EB92E00995892B11F0219606
:10207000ECCFCE01DF91CF911F910F910895EF9298
:10208000FF920F931F93CF93DF937C018B01EA01A3
:1020900082E492E00E941E10C7010E94240F8AE38E
:1020A00092E00E941E10C8010E94240F80E392E07B
:1020B0000E941E10CE010E94240F8AEA91E0DF9157
:1020C000CF911F910F91FF90EF900C946F0F8F9213
:1020D0009F92AF92BF920F931F93CF93DF93CDB791
:1020E000DEB7A1970FB6F894DEBF0FBECDBF19A221
:1020F000423008F44AE08E010F5D1F4F842E912C70
:10210000A12CB12CA50194010E94191EE62FB90142
:10211000CA0101501109EA3014F4E05D01C0E95C24
:10212000D801EC93232B242B252B61F7C8010E94A7
:102130006F0FA1960FB6F894DEBF0FBECDBFDF9133
:10214000CF911F910F91BF90AF909F908F90089566
:102150004F925F926F927F928F929F92AF92BF92B7
:10216000CF92DF92EF92FF926B017C01B42E9B0124
:10217000AC010E94141E882319F080EE91E027C064
:1021800026013701E89477F82FEF3FEF4FE75FE73D
:10219000C301B2010E94141E81110DC02FEF3FEF49
:1021A0004FE75FE7C301B2010E947A1B18161CF4C7
:1021B00084EE91E00CC02FEF3FEF4FE75FE4C701E3
:1021C000B6010E940F1E181684F488EE91E0FF906D
:1021D000EF90DF90CF90BF90AF909F908F907F90C7
:1021E0006F905F904F900C946F0F2FEF3FEF4FE782
:1021F0005FECC701B6010E947A1B87FDE6CF20E0A5
:1022000030E0A901C701B6010E947A1B87FF11C007
:10221000E091B502F091B6020190F081E02D6DE2FF
:1022200085EB92E009954C01F7FAF094F7F8F094F9
:1022300002C0812C912CA12C60E070E080E09FE333
:10224000AB1441F020E030E040E251E40E94671D11
:10225000A394F6CF9B01AC01C701B6010E94FB1C01
:102260002B013C010E94E01D6B017C010E947F1B41
:102270009B01AC01C301B2010E94FA1C2B013C017D
:102280004AE0C701B6010E9467107C01E80CF91C06
:10229000BB2069F0E091B502F091B6020190F081A7
:1022A000E02D6EE285EB92E00995E80EF91EDB2C3D
:1022B000DD2021F120E030E040E251E4C301B20131
:1022C0000E94E01B2B013C010E94E01D4B01A12C50
:1022D000B12C4AE0C501B4010E946710E80EF91E56
:1022E000C501B4010E947F1B9B01AC01C301B20177
:1022F0000E94FA1C2B013C01DA94DACFC701FF904F
:10230000EF90DF90CF90BF90AF909F908F907F9095
:102310006F905F904F9008950E94240F8AEA91E099
:102320000C946F0FCF93DF93E7E3F2E08491E9E140
:10233000F2E0D491EBEFF1E0C491CC2391F0811164
:102340000E94C706EC2FF0E0EE0FFF1FEA52FE4F8F
:10235000A591B491EC91ED2381E090E021F480E02F
:1023600002C080E090E0DF91CF9108958F929F921C
:10237000AF92BF92CF92DF92EF92FF920F931F9393
:102380000E94630A60E070E080E89EE30E94000D16
:1023900060E070E080EA91E40E94DF0960E070E0B4
:1023A00080E89FE30E94180B60E08AE00E94040727
:1023B00064E170E080E090E00E947807C12CD12CAD
:1023C00076010E949211892B61F00E946B0ABC0178
:1023D00081E00E94050A8FEFC81AD80AE80AF80AB5
:1023E000F0CF1092B1021092B2021092B30210928A
:1023F000B402C701B60122E330E040E050E00E94A1
:10240000191E4B015C01CA01B9010E947F1B6B01BF
:102410007C01C501B4010E947F1B20E030E048E44C
:1024200052E40E94671D9B01AC01C701B6010E94E6
:10243000FB1C6B017C0100E010E020E83FE340E082
:1024400060E070E080E090E40E94740B1092B102B2
:102450001092B2021092B3021092B40261E08AE0CC
:102460000E9404070E94630A20E030E040E050E44C
:10247000C701B6010E94FA1C1F910F91FF90EF90C7
:10248000DF90CF90BF90AF909F908F9008954F9224
:102490005F926F927F928F929F92AF92BF92CF92F4
:1024A000DF92EF92FF921F93CF93DF932091200151
:1024B0002B3021F02F3F09F04EC204C0E5EDF1E0D2
:1024C00014919BC02BE020932001E5EDF1E01491E5
:1024D0001F3F09F440C2113009F449C0FCF4111146
:1024E0008CC014BC15BC24B5226024BD25B5216068
:1024F00025BDEFEEF1E0E491F0E0EE0FFF1FE953B0
:10250000FE4F259134913093AE032093AD03EDE05F
:10251000F2E0E491E093AC0310E071C0133009F4F1
:1025200049C0143009F069C01092C0001092C10077
:102530002091C10028602093C1002091C10021603A
:102540002093C100EFEEF1E0E491F0E0EE0FFF1F09
:10255000E953FE4F259134913093A8032093A703AC
:10256000EDE0F2E0E491E093A60314E048C010929D
:1025700080001092810020918100286020938100CA
:1025800020918100216020938100EFEEF1E0E49141
:10259000F0E0EE0FFF1FE953FE4F25913491309389
:1025A000AB032093AA03EDE0F2E0E491E093A903EA
:1025B00011E025C01092900010929100209191009E
:1025C0002860209391002091910021602093910038
:1025D000EFEEF1E0E491F0E0EE0FFF1FE953FE4F64
:1025E000259134913093AC022093AB02EDE0F2E000
:1025F000E491E093AA0213E002C017FDACC1EC0124
:1026000061E08BE00E943C074E01A12CB12C812F90
:102610008D7F09F0C7C060E072E18AE790E0A50114
:1026200094010E943B1E29013A0169017A0121E0CF
:10263000C21AD108E108F1088FEFC816D104E104ED
:10264000F10409F008F44AC060E472E48FE090E01D
:10265000A50194010E943B1E69017A0181E0C81A1C
:10266000D108E108F1081230F9F42FEFC216D104B5
:10267000E104F10409F008F4D6C060E970ED83E0EC
:1026800090E0A50194010E943B1E69017A0181E05E
:10269000C81AD108E108F1082FEFC216D104E104ED
:1026A000F10409F010F5BFC08FEFC816D104E104A2
:1026B000F104B1F0A8F068E478EE81E090E0A501C3
:1026C00094010E943B1E69017A0181E0C81AD10879
:1026D000E108F108112309F40CC101C181E001C036
:1026E00082E0112309F459C09EC068E478EE81E0CD
:1026F00090E0A50194010E943B1E69017A0181E0EE
:10270000C81AD108E108F1082FEFC216D104E1047C
:10271000F10409F008F487C064E274EF80E090E00F
:10272000A50194010E943B1E69017A0181E0C81A4B
:10273000D108E108F1082FEFC216D104E104F10439
:1027400009F008F470C062E17AE780E090E0A5014A
:1027500094010E943B1E69017A0181E0C81AD108E8
:10276000E108F1082FEFC216D104E104F10409F0E9
:1027700008F4B3C0D301C2015AE0B595A795979567
:1027800087955A95D1F76C017D0121E0C21AD108D5
:10279000E108F108111147C085E095B5987F892BB4
:1027A00085BD41C060E072E18AE790E0A501940137
:1027B0000E943B1E69017A0181E0C81AD108E10834
:1027C000F108C114D10421E0E206F10488F068E4C4
:1027D00078EE81E090E0A50194010E943B1E690122
:1027E0007A0181E0C81AD108E108F10883E001C04C
:1027F00081E0113039F490918100987F892B80938A
:10280000810011C0133039F490919100987F892B89
:102810008093910008C0143031F49091C100987FEA
:10282000892B8093C1009E01220F331FA8ECB0E0DA
:102830000E94EB1C28EE33E040E050E00E94191E9D
:10284000113039F18CF4111186C0C7BC2093B70345
:102850003093B8034093B9035093BA0380916E004C
:10286000826080936E0077C0133029F1143009F034
:1028700072C0C092CF002093AF033093B003409357
:10288000B1035093B2038091720080648093720010
:1028900062C0D0928900C09288002093B303309325
:1028A000B4034093B5035093B60380916F008260E8
:1028B00080936F0050C0D0929900C09298002093EE
:1028C000AD023093AE024093AF025093B0028091BC
:1028D00071008260809371003EC086E002CF8FEF6E
:1028E000C816D104E104F10411F008F02CCF84E003
:1028F000F8CE8FEFC816D104E104F104C9F0C0F09E
:1029000062E17AE780E090E0A50194010E943B1E1D
:1029100069017A0181E0C81AD108E108F1082FEFB6
:10292000C216D104E104F10409F020F484E035CFAB
:1029300083E033CFD301C2012AE0B595A7959795DF
:1029400087952A95D1F76C017D0121E0C21AD10843
:10295000E108F10821CFDF91CF911F91FF90EF9017
:10296000DF90CF90BF90AF909F908F907F906F90AF
:102970005F904F9008954F925F926F927F928F92E7
:102980009F92AF92BF92CF92DF92EF92FF92412C33
:10299000512C3201CC24CA94DC2C76014B015C0111
:1029A00020E2820E911CA11CB11C481459046A0437
:1029B0007B0408F057C0C2010E94A11CA701960128
:1029C0002827DA01C9018F709927AA27BB27880F0A
:1029D000991F880F991FFC01ED5EFC4F808191814A
:1029E000A281B38134E0F694E794D794C7943A95E2
:1029F000D1F7C826D926EA26FB26C2010E94A11CCF
:102A000090E044E0959587954A95E1F7092E000CF2
:102A1000AA0BBB0B8C259D25AE25BF258F70992752
:102A2000AA27BB27880F991F880F991FFC01ED5E0D
:102A3000FC4F80819181A281B38164E0F694E79498
:102A4000D794C7946A95D1F7C826D926EA26FB26DB
:102A5000C094D094E094F0943FEF431A530A630A71
:102A6000730AA3CFC701B601FF90EF90DF90CF901C
:102A7000BF90AF909F908F907F906F905F904F909E
:102A80000895CF93DF938AE893E00E941F0F84E8B4
:102A900093E00E941F0F8AE593E0892B71F484E98B
:102AA00093E00E941F0F8AE993E00E941F0F80EAC3
:102AB00093E0DF91CF910C941F0FCEE7D3E0CE01CE
:102AC0000E941F0F269783E0C435D807C1F7E7CFD0
:102AD000CF93DF93CDB7DEB763970FB6F894DEBF21
:102AE0000FBECDBF789484B5826084BD84B581600B
:102AF00084BD85B5826085BD85B5816085BD8091C9
:102B00006E00816080936E00109281008091810040
:102B10008260809381008091810081608093810038
:102B2000809180008160809380008091910082601C
:102B300080939100809191008160809391008091B9
:102B400090008160809390008091C10084608093A8
:102B5000C1008091C10082608093C1008091C1005A
:102B600081608093C1008091C30081608093C30025
:102B70008091C00082608093C0008091C20081601B
:102B80008093C20080917A00846080937A00809163
:102B90007A00826080937A0080917A0081608093CD
:102BA0007A0080917A00806880937A0010929C026B
:102BB00010929302109292028091D70081608093CC
:102BC000D70080EA8093D80089B5806189BD89B536
:102BD000826089BD09B400FEFDCF61E070E080E055
:102BE00090E00E9478078091D8008F7C806180936C
:102BF000D8008091E000807F8093E0008091E10028
:102C00008E7E8093E1008DE08093E200EEEFFFE79F
:102C1000859194918B3F9C4D19F481E080939102B2
:102C200061E08DE00E943C0761E085E00E943C0786
:102C300061E08DE00E94040761E085E00E940407E6
:102C400061E08AE00E943C0761E089E00E943C0765
:102C500061E086E00E943C0761E08AE00E94040790
:102C600060E089E00E94040760E086E00E940407BB
:102C700060E087E10E943C0761E08BE00E943C0736
:102C800060E08BE00E94040710929A021092990271
:102C900010929802109297021092960281E080930F
:102CA00095021092940261E082E00E94040761E0C4
:102CB00083E00E9404078091B9008E7F8093B90061
:102CC0008091B9008D7F8093B90088E48093B8002B
:102CD00085E48093BC0088E88093B8006FEF80E4BF
:102CE0000E947D0C6FEF80EA0E947D0C6AE077ED18
:102CF00083EA9CE30E94000D60E070E080E89EE3C0
:102D00000E94000D60E070E080EA91E40E94DF091B
:102D100061E08AE00E94040762EB71E08AE593E0DB
:102D20000E94540E68EB71E080E693E00E94540E1E
:102D30006BEB71E086E693E00E94540E61EC71E06B
:102D40008CE693E00E94540E66EC71E082E793E01B
:102D50000E94540E6DEC71E088E793E00E94540EDF
:102D600062ED71E08EE793E00E94540E8FEF9FEFCB
:102D70009093C2028093C10283E090E0A0E0B0E0B3
:102D80008093B9029093BA02A093BB02B093BC02A5
:102D900060EA73E080E090E00E946B0E10925303B3
:102DA0006AE973E081E090E00E946B0E1092530399
:102DB00068EE73E080E090E00E9478070E94B61110
:102DC00068EE73E080E090E00E94780788EB91E085
:102DD0000E94471280E793E00E94471280EE96E03F
:102DE0000E9447128AEA91E0C82E880FDD0880E928
:102DF00093E033E0932E980E85EB92E00E942F0231
:102E0000892B09F458C280918E0390918F038536E7
:102E1000910530F06CEA71E08AE893E00E94540E6C
:102E20006CEA71E0CE0101960E94A2030E94350F68
:102E300097FD09C08C159D0531F0682FCE010196D4
:102E40000E94030EF3CFBE016F5F7F4F8AE893E0CD
:102E50000E94840DCE0101960E941F0F20918E03C7
:102E600030918F03A901425051094217530708F0CE
:102E700022C260918A0370918B036115710509F478
:102E80001AC2FB01E40FF51F80818D3009F013C2D7
:102E9000C90101978217930708F00DC2FB01E80FE3
:102EA000F91F80818A3009F006C210E0612F70E0BE
:102EB00080918E0390918F036817790710F58091A8
:102EC0008A0390918B03009719F4ADE9B2E003C037
:102ED000DC01A60FB71FE0E9F3E0009711F41092B0
:102EE0009D0221913C91321308C041E050E08AE8F4
:102EF00093E00E942B0D115002C09E12EECF1F5F77
:102F0000D5CF6AE873E084E893E00E94840D6CEA10
:102F100071E08AE893E00E94540EAA24AA94BA2C85
:102F200028E1822EB0925503A09254038091880329
:102F300090918903892B09F4BCC18AE5E82E83E0CE
:102F4000F82E00E010E0F701448055806CEA71E053
:102F5000CE0101960E94A20380918803909189037B
:102F60000097E9F032018615970508F43C01E091DD
:102F70008403F0918503E60DF71D50801082609167
:102F8000840370918503CE0101960E94540E8091B6
:102F9000840390918503FC01E60DF71D50822D817D
:102FA0003E81F701848195812817390719F58981B8
:102FB0009A8160817181009719F061157105A9F4FA
:102FC0006115710551F02115310539F0FB01808142
:102FD00090E09195819591090AC0009769F0232BA3
:102FE00059F0FC01808190E002C00E94702021E035
:102FF000892B19F020E001C021E0CE0101962B8B36
:103000000E941F0F2B89222309F441C1F70144813B
:10301000558160E070E084E893E00E942B0D1093EE
:103020005503009354030330110529F540901C010A
:1030300050901D0160901E0170901F0189E991E080
:103040000EC0053011050CF0CCC04090B10250907C
:10305000B2026090B3027090B40286E991E00E94DF
:103060001E1043E0C301B2010E94A8108AEA91E059
:103070000E946F0F57CF043011050CF085C001304E
:103080001105F1F583E40E94970F882349F06091C0
:10309000560370915703809158039091590304C0CF
:1030A00060E070E080E89EE30E94000D86E40E94EC
:1030B000970F882349F060915603709157038091D0
:1030C00058039091590304C060E070E088E492E4F2
:1030D0000E94DF098AE50E94970F882309F422CF16
:1030E0006091560370915703809158039091590352
:1030F00000E010E020E83FE341E00E94240C12CF02
:103100000230110519F00E94B6110CCF83E40E9421
:10311000970F882349F0609156037091570380916F
:1031200058039091590304C06AE077ED83EA9CE369
:103130000E94000D86E40E94970F882349F0609159
:10314000560370915703809158039091590304C01E
:1031500060E070E080E291E40E94DF0900E010E0AE
:1031600020E030E440E060E070E080E292E40E9421
:10317000240C0E94B61160931C0170931D01809372
:103180001E0190931F01CECE0530110509F059CFD5
:1031900064E973E0CE010D960E94050F6AE973E0C1
:1031A000CE0107960E94050F60EA73E0CE010196FA
:1031B0000E94050FAE01435F5F4FBE01695F7F4F05
:1031C000CE0101960E943F10CE0101960E941F0F72
:1031D000CE0107960E941F0FCE010D960E941F0F71
:1031E000A1CE0630110509F08ECF0E94870F1A82FA
:1031F00019821C821B821E821D8265E270E0CE0154
:1032000001960E945D0D811105C0CE0101960E94BC
:10321000170D0AC085E290E09E838D8361EA71E01C
:1032200089819A810E94F519CE0101960E948C1124
:10323000CE0101960E941F0F0E9435082B013C0110
:103240000E943508DC01CB0184199509A609B7094C
:10325000883B9B40A105B10598F388E00FB6F89430
:10326000A895809260000FBE809360000E94350890
:103270002B013C010E943508DC01CB018419950922
:10328000A609B7094997A105B105A0F34BCE0F5F79
:103290001F4FF6E0EF0EF11C0730110509F053CE79
:1032A00041E050E060E070E084E893E00E942B0D84
:1032B0003DCE0E94870F80E090E0892B09F49CCDE1
:1032C0000E94000094CDCF93DF931092B802109229
:1032D000B70288EE93E0A0E0B0E08093B90290934B
:1032E000BA02A093BB02B093BC0226E731E0309350
:1032F000B6022093B5022FEF3FEF3093C202209326
:10330000C10210920803109207038093090390935F
:103310000A03A0930B03B0930C0388E891E0909309
:103320000603809305036CEA71E080EA93E00E9453
:10333000A2036CEA71E08AE993E00E94A20366EDC1
:1033400071E084E993E00E94A20310925603109268
:1033500057031092580310925903C0E0D0E026960C
:103360006CEA71E0CE018C5A9C4F0E94A203CA32D3
:10337000D105A9F76CEA71E084E893E00E94A2030A
:103380006CEA71E08AE893E00E94A20380E28093F5
:1033900090038DE0809391038AE0809392031092D2
:1033A000930380E4E2E3F1E0A3E1B3E001900D9246
:1033B0008A95E1F72091210130912201409123016A
:1033C0005091240160E070E08AE794E40E94671D58
:1033D0000E94D91D7093120360931103DF91CF9166
:1033E0000895662777270C94FC19FB01DC010590F2
:1033F0000D920020E1F70895A0E0B0E0E2E0FAE1EC
:103400000C94B81CEC017B016115710519F0DB010E
:103410008D939C938E010F5F1F4F7880872D90E0D6
:103420000E94591B892B11F0E801F4CFBDE27B12F9
:1034300005C00F5F1F4F7980C1E008C0EBE27E122C
:1034400004C08E010E5F1F4F7980C0E06801F1E07B
:10345000CF1AD10843E050E062ED70E0C6010E944F
:10346000621B892BF1F4680122E0C20ED11C45E0F9
:1034700050E06DEC70E0C6010E94621B892B21F4C4
:10348000680187E0C80ED11CE114F10419F0D701DE
:10349000CD92DC92C111FFC060E070E080E89FE750
:1034A00003C143E050E06AEC70E0C6010E94621B79
:1034B000892B51F4E114F10409F4F2C00E5F1F4F9F
:1034C000F70111830083ECC0680160E070E0CB017C
:1034D00000E010E0F601D0EDD70DDA3058F52C2FD2
:1034E0002260622E2C2F2870C2FF05C0211128C037
:1034F0000F5F1F4F25C0222311F001501109A5E0D5
:10350000B0E09B01AC010E94A91C4B015C01880C3E
:10351000991CAA1CBB1CC501B4016D0F711D811D36
:10352000911D6839A9E97A078A07A9E19A0740F04D
:10353000C66005C0DE3F51F4C3FD44C0C8606C2EB8
:10354000BFEFCB1ADB0A7080C62DC4CF2D2F2F7D85
:103550002531C1F540814D3211F4C06106C04B32B6
:1035600021F0319621E030E006C03296D601119666
:103570004C9122E030E0A0EDA40FAA3018F0E21B3D
:10358000F30B20C040E050E04038BCE05B075CF447
:103590009A01220F331F220F331F420F531F440F74
:1035A000551F4A0F511D3196DF0111972C91A0ED47
:1035B000A20FAA3048F3C4FF03C0519541955109A9
:1035C000040F151FC1FF07C0E114F10421F031976A
:1035D000D701ED93FC930E947F1BC370C33019F099
:1035E0006B017C0106C06B017C01F7FAF094F7F8DF
:1035F000F09420E030E0A901C701B6010E947A1BD7
:10360000882309F445C017FF06C0119501951109DB
:10361000C9EED0E002C0C1E0D1E05E01B8E1AB1A72
:10362000B1084601BE2DAF2D90E2E92EF12C0E150A
:103630001F0584F0FE012591359145915491B40107
:103640008B2F9A2F0E94E01B4B01B82FA92F0E1928
:103650001F09EDCF2497F594E794CA15DB0539F7D8
:103660006401EB2EFA2E8E2D880F8F2D881F8F3F31
:1036700049F020E030E0A901C701B6010E947A1BA1
:10368000811106C082E290E09093BC038093BB035B
:10369000C701B60109C060E070E080E89FEF04C098
:1036A00060E070E080EC9FE7CDB7DEB7EEE00C9411
:1036B000D41C91110C944D1C803219F08950855006
:1036C000C8F70895FB01DC014150504088F08D910E
:1036D00081341CF08B350CF4805E659161341CF0F4
:1036E0006B350CF4605E861B611171F3990B0895C4
:1036F000881BFCCF0E94BC1B08F481E00895E8946D
:1037000009C097FB3EF490958095709561957F4F29
:103710008F4F9F4F9923A9F0F92F96E9BB279395D7
:10372000F695879577956795B795F111F8CFFAF4E7
:10373000BB0F11F460FF1BC06F5F7F4F8F4F9F4F18
:1037400016C0882311F096E911C0772321F09EE876
:10375000872F762F05C0662371F096E8862F70E0DC
:1037600060E02AF09A95660F771F881FDAF7880FB6
:103770009695879597F90895990F0008550FAA0B0C
:10378000E0E8FEEF16161706E807F907C0F0121674
:103790001306E407F50798F0621B730B840B950B77
:1037A00039F40A2661F0232B242B252B21F40895CC
:1037B0000A2609F4A140A6958FEF811D811D089569
:1037C0000E94F31B0C94671C0E94591C38F00E9445
:1037D000601C20F0952311F00C94501C0C94561C86
:1037E00011240C949B1C0E94781C70F3959FC1F3CC
:1037F000950F50E0551F629FF001729FBB27F00D9F
:10380000B11D639FAA27F00DB11DAA1F649F6627F3
:10381000B00DA11D661F829F2227B00DA11D621F42
:10382000739FB00DA11D621F839FA00D611D221FFC
:10383000749F3327A00D611D231F849F600D211DE0
:10384000822F762F6A2F11249F5750409AF0F1F063
:1038500088234AF0EE0FFF1FBB1F661F771F881FCC
:1038600091505040A9F79E3F510580F00C94501C98
:103870000C949B1C5F3FE4F3983ED4F386957795B8
:103880006795B795F795E7959F5FC1F7FE2B880F72
:10389000911D9695879597F90895992788270895FA
:1038A00097F99F6780E870E060E008959FEF80ECF3
:1038B000089500240A941616170618060906089596
:1038C00000240A9412161306140605060895092EFC
:1038D0000394000C11F4882352F0BB0F40F4BF2B6B
:1038E00011F460FF04C06F5F7F4F8F4F9F4F0895AB
:1038F00057FD9058440F551F59F05F3F71F04795A1
:10390000880F97FB991F61F09F3F79F08795089585
:10391000121613061406551FF2CF4695F1DF08C0A4
:10392000161617061806991FF1CF869571056105C1
:1039300008940895E894BB2766277727CB0197F969
:103940000895F999FECF92BD81BDF89A992780B567
:1039500008950E94EB1CA59F900DB49F900DA49F0D
:10396000800D911D112408952F923F924F925F92E6
:103970006F927F928F929F92AF92BF92CF92DF927F
:10398000EF92FF920F931F93CF93DF93CDB7DEB7E4
:10399000CA1BDB0B0FB6F894DEBF0FBECDBF099478
:1039A0002A88398848885F846E847D848C849B84CF
:1039B000AA84B984C884DF80EE80FD800C811B81DD
:1039C000AA81B981CE0FD11D0FB6F894DEBF0FBE0C
:1039D000CDBFED010895A29FB001B39FC001A39F89
:1039E000700D811D1124911DB29F700D811D112438
:1039F000911D08955058BB27AA270E94121D0C94B0
:103A0000671C0E94591C38F00E94601C20F039F499
:103A10009F3F19F426F40C94561C0EF4E095E7FB36
:103A20000C94501CE92F0E94781C58F3BA176207B7
:103A300073078407950720F079F4A6F50C949A1C77
:103A40000EF4E0950B2EBA2FA02D0B01B9019001B9
:103A50000C01CA01A0011124FF27591B99F0593FFD
:103A600050F4503E68F11A16F040A22F232F342F45
:103A70004427585FF3CF469537952795A795F04093
:103A80005395C9F77EF41F16BA0B620B730B840BA8
:103A9000BAF09150A1F0FF0FBB1F661F771F881F60
:103AA000C2F70EC0BA0F621F731F841F48F48795B8
:103AB00077956795B795F7959E3F08F0B0CF9395AA
:103AC000880F08F09927EE0F9795879508950E9423
:103AD0007B1D0C94671C0E94601C58F00E94591CAE
:103AE00040F029F45F3F29F00C94501C51110C94C4
:103AF0009B1C0C94561C0E94781C68F39923B1F30C
:103B0000552391F3951B550BBB27AA276217730703
:103B1000840738F09F5F5F4F220F331F441FAA1F97
:103B2000A9F335D00E2E3AF0E0E832D09150504053
:103B3000E695001CCAF72BD0FE2F29D0660F771F01
:103B4000881FBB1F261737074807AB07B0E809F0E7
:103B5000BB0B802DBF01FF2793585F4F3AF09E3F6C
:103B6000510578F00C94501C0C949B1C5F3FE4F3BF
:103B7000983ED4F3869577956795B795F7959F5FAF
:103B8000C9F7880F911D9695879597F90895E1E0FB
:103B9000660F771F881FBB1F621773078407BA075A
:103BA00020F0621B730B840BBA0BEE1F88F7E095B5
:103BB00008950E94E01D6894B1110C949B1C089517
:103BC0000E94801C88F09F5798F0B92F9927B75111
:103BD000B0F0E1F0660F771F881F991F1AF0BA95B1
:103BE000C9F714C0B13091F00E949A1CB1E0089559
:103BF0000C949A1C672F782F8827B85F39F0B93F4B
:103C0000CCF3869577956795B395D9F73EF4909563
:103C10008095709561957F4F8F4F9F4F08950E94BB
:103C2000BC1B08F48FEF08950E94BC1B880B990BF6
:103C30000895A1E21A2EAA1BBB1BFD010DC0AA1FED
:103C4000BB1FEE1FFF1FA217B307E407F50720F005
:103C5000A21BB30BE40BF50B661F771F881F991F80
:103C60001A9469F760957095809590959B01AC01C9
:103C7000BD01CF010895052E97FB1EF400940E940C
:103C8000521E57FD07D00E94191E07FC03D04EF4A8
:103C90000C94521E50954095309521953F4F4F4FB3
:103CA0005F4F089590958095709561957F4F8F4FE8
:103CB0009F4F0895EE0FFF1F0590F491E02D09949A
:103CC000CF93DF938230910510F482E090E0E09191
:103CD000BF03F091C00320E030E0C0E0D0E03097B7
:103CE00011F14081518148175907C0F04817590711
:103CF00061F482819381209719F09B838A832BC082
:103D00009093C0038093BF0326C02115310519F09D
:103D10004217530718F49A01BE01DF01EF01028038
:103D2000F381E02DDCCF2115310509F1281B390B7A
:103D30002430310590F412968D919C911397611562
:103D4000710521F0FB019383828304C09093C0032B
:103D50008093BF03FD01329644C0FD01E20FF31FC3
:103D600081939193225031092D933C933AC0209135
:103D7000BD033091BE03232B41F4209127013091E4
:103D800028013093BE032093BD032091250130917B
:103D900026012115310541F42DB73EB74091290187
:103DA00050912A01241B350BE091BD03F091BE0315
:103DB000E217F307A0F42E1B3F0B2817390778F002
:103DC000AC014E5F5F4F2417350748F04E0F5F1F61
:103DD0005093BE034093BD038193919302C0E0E0F2
:103DE000F0E0CF01DF91CF9108950F931F93CF9310
:103DF000DF93009709F48CC0FC0132971382128282
:103E00000091BF031091C0030115110581F42081B9
:103E10003181820F931F2091BD033091BE0328177B
:103E2000390779F5F093BE03E093BD0371C0D80163
:103E300040E050E0AE17BF0750F412962D913C9130
:103E40001397AD012115310509F1D901F3CF9D017A
:103E5000DA013383228360817181860F971F821775
:103E6000930769F4EC0128813981260F371F2E5FF3
:103E70003F4F318320838A819B8193838283452BAB
:103E800029F4F093C003E093BF0342C01396FC9360
:103E9000EE931297ED01499159919E01240F351F20
:103EA000E217F30771F480819181840F951F0296C8
:103EB00011969C938E938281938113969C938E93FB
:103EC0001297E0E0F0E0D80112968D919C91139743
:103ED000009719F0F8018C01F6CF8D919C91980113
:103EE0002E5F3F4F820F931F2091BD033091BE0381
:103EF0002817390769F4309729F41092C0031092FB
:103F0000BF0302C0138212821093BE030093BD034D
:103F1000DF91CF911F910F910895A0E0B0E0E3E908
:103F2000FFE10C94B81CEC01009721F4CB010E9436
:103F3000601EB8C0FC01E60FF71F9C01225031093A
:103F4000E217F30708F4ACC0D9010D911C91119749
:103F500006171707B0F00530110508F49FC0C80117
:103F600004978617970708F499C002501109061B99
:103F7000170B019311936D937C93CF010E94F51E53
:103F80008DC05B01A01AB10A4C01800E911EA09158
:103F9000BF03B091C00340E050E0E12CF12C10973A
:103FA00009F44AC0A815B905D1F56D907C90119718
:103FB000630182E0C80ED11CCA14DB0480F1A301A6
:103FC0004A195B096A0182E0C80ED11C1296BC90A6
:103FD00012971396AC91B5E0CB16D10440F0B282A3
:103FE000A38351834083D9016D937C930AC00E5FF4
:103FF0001F4FC301800F911FF90191838083EB2D27
:10400000FA2FE114F10431F0D7011396FC93EE93EB
:10401000129744C0F093C003E093BF033FC08D915B
:104020009C9111974817590708F4AC017D0112962D
:104030000D90BC91A02DB3CF8091BD039091BE0394
:1040400088159905E1F446175707C8F480912501B2
:1040500090912601009741F48DB79EB740912901B8
:1040600050912A01841B950BE817F907C8F4F093C7
:10407000BE03E093BD03F901718360830FC0CB01E0
:104080000E94601E7C01009759F0A801BE010E94A9
:104090005C20CE010E94F51EC70104C0CE0102C003
:1040A00080E090E0CDB7DEB7EEE00C94D41C81E068
:1040B00090E0F8940C948F20FB01DC0102C0019089
:1040C0000D9241505040D8F70895FC018191861718
:1040D00021F08823D9F7992708953197CF010895C2
:1040E000FB01DC018D91019080190110D9F3990B2E
:1040F0000895FB01DC0101900D920020E1F7089585
:10410000FB01DC014150504048F001900D9200202D
:10411000C9F701C01D9241505040E0F7089511E0E9
:10412000C6E2D1E004C0FE010E945A1E2196C732A9
:08413000D107C9F7F894FFCF95
:104138000000803F00007A44D00700000000A04142
:10414800FFFFFFFF00E10000000000000000C84181
:10415800FF6666663F0000C103800000C1808100E1
:104168000000000000006410B71DC8206E3BAC3092
:10417800D9269041DC76F4516B6B5861B24D3C7195
:1041880005502083B8ED44930FF0E8A3D6D68CB33E
:1041980061CBB0C2649BD4D2D38678E20AA01CF269
:1041A800BDBD000000000E02B2075C0324022F020E
:1041B8008403600300000000F602C6022603A00282
:1041C800BE02AF02A10244696769706F7420493268
:1041D80043204572726F723A20000D0A006E6F6EAE
:1041E80065004732382E32004730004733382E32C8
:1041F800004D383336004D3131342E32004D3131D7
:1042080035006466750076312E302E31006F6B00F4
:0C4218006E616E00696E66006F766600D5
:00000001FF
