:100000000C9488010C94B0010C94B0010C94B001D4
:100010000C94B0010C94B0010C94B0010C94B0019C
:100020000C94B0010C94B0010C94F7110C94601274
:100030000C94B0010C94B0010C94B0010C94B0017C
:100040000C94B0010C94B0010C94B0010C94B0016C
:100050000C94B0010C94B0010C94B0010C94F30317
:100060000C94B0010C94B0010C94B0010C94B0014C
:100070000C94B0010C94B0010C94B0010C94B0013C
:100080000C94B0010C94B0010C94B0010C94B0012C
:100090000C943D040C94B0010C94B0010C94B0018C
:1000A0000C94B0010C94B0010C94B001DE02E1029A
:1000B000D002D402D802020302030203E502E902DD
:1000C000ED02F302F7020203FD023C034103460383
:1000D00050035A03A403A403A40364036E03780328
:1000E00082038F03A403970305A84CCDB2D44EB965
:1000F0003836A9020C50B9918688083CA6AAAA2ACB
:10010000BE000000803F4E414E494E495459494E71
:1001100046CDCCCC3D0AD7233C17B7D13877CC2B72
:10012000329595E6241FB14F0A000020410000C817
:100130004200401C4620BCBE4CCA1B0E5AAEC59D98
:100140007420433A00543A0020433A006E6F6E65C3
:1001500000543A0052657374617274696E6720616D
:100160006E6420656E746572696E6720626F6F746D
:100170006C6F616465722E2E2E0054617267657417
:100180002074656D706572617475726520746F6F2F
:1001900020686967682C2073657474696E672074C1
:1001A0006F2054454D50455241545552455F4D4185
:1001B0005820646567726565730054617267657481
:1001C0002074656D706572617475726520746F6FEF
:1001D000206C6F772C2073657474696E6720746F60
:1001E0002054454D50455241545552455F4D494E5E
:1001F0002064656772656573000000000200090FE6
:100200000000030401000C0000000000002500288D
:10021000002B002E00310000000000240027002ADF
:10022000002D00300004040404040304050202024B
:10023000020403020202020606060606060404027F
:100240000202040408020110408040102040804057
:10025000800802040180402010020110801020401C
:10026000402076657273696F6E3A00206D6F646529
:100270006C3A0073657269616C3A00080B00020207
:100280000201000904000001020200000524001020
:1002900001052401010104240206052406000107CA
:1002A00005810310004009040100020A0000000754
:1002B0000502024000000705830240000004030914
:1002C0000412010002EF020140D80493EE00010184
:1002D0000203014D6963726F63686970205465633E
:1002E000686E6F6C6F677920496E63004F70656E42
:1002F00074726F6E732054656D704465636B000794
:100300000605040100080A0B0C0D0900CC22A922E5
:1003100011241FBECFEFDAE0DEBFCDBF25E0A6E29D
:10032000B2E001C01D92AC38B207E1F712E0A0E0E4
:10033000B1E0E2EEFAE502C005900D92A632B107F7
:10034000D9F711E0C7E8D1E004C02197FE010E946F
:100350001B2BC638D107C9F70E94BE190C94642D17
:100360000C940000FC018485958597FD0BC09FB718
:10037000F89482E08093E9008091F2009FBF90E0C2
:10038000019608959FB7F89482E08093E9008091E8
:10039000F2009FBF90E008953FB7F89480919F02CC
:1003A0009091A002A091A102B091A20226B5A89BB3
:1003B00005C02F3F19F00196A11DB11D3FBFBA2FF7
:1003C000A92F982F8827820F911DA11DB11DBC0157
:1003D000CD0142E0660F771F881F991F4A95D1F71C
:1003E000089585ED8093BC008091BC0084FDFCCF16
:1003F00010925705089540917502262F30E0240F82
:10040000311D21323105DCF4209157052430C9F427
:10041000FC0180E090E0861758F43091750221913C
:10042000DC01AD5ABD4FA30FB11D2C930196F3CF44
:1004300080917502680F6093750280E0089581E0F5
:10044000089582E008950895E09159058091580536
:10045000E81730F4F0E0E65AFA4F808190E0089512
:100460008FEF9FEF08959091590580915805981747
:1004700050F4E92FF0E0E65AFA4F208130E09F5F18
:100480009093590502C02FEF3FEFC9010895809165
:10049000580590E020915905821B91090895CF924B
:1004A000DF92EF92FF920F931F93CF93DF937C0124
:1004B000262F972F8A018091A602882391F0C62FBC
:1004C000D72F6E01C40ED51ECC15DD0571F06991D4
:1004D000D701ED91FC910190F081E02DC7010995C4
:1004E000F3CF642F822F0E94FB01C801DF91CF91CF
:1004F0001F910F91FF90EF90DF90CF900895CF93D1
:10050000DF931F92CDB7DEB769832091A602222325
:10051000D1F02091A302203240F021E030E0FC0134
:100520003383228380E090E015C08091A402E82FFD
:10053000F0E0ED5CFD4F998190838F5F8093A40282
:100540008093A30205C061E0CE0101960E94FB01E9
:1005500081E090E00F90DF91CF910895089580E0C1
:1005600090E008950895362F90E0FC01E750FE4F8B
:100570004491FC01ED5BFD4F2491FC01EB5DFD4FCF
:100580008491882309F451C04423E1F150E0FA0139
:100590003197EF30F105B0F5EA5AFF4F0C941B2B61
:1005A000909180009F7707C0909180009F7D03C04D
:1005B00090918000977F9093800024C094B59F779E
:1005C00002C094B59F7D94BD1DC0909190009F770F
:1005D00007C0909190009F7D03C090919000977FFD
:1005E000909390000FC09091C0009F7703C09091AE
:1005F000C0009F7D9093C00005C09091C200977F7E
:100600009093C200E82FF0E0EE0FFF1FE75FFD4F71
:10061000A591B4918FB7F894EC91311103C0209556
:100620002E2301C02E2B2C938FBF08951F93CF93A1
:10063000DF93182FEB010E94C60C209711F460E0A5
:1006400004C0CF3FD10539F461E0812FDF91CF9114
:100650001F910C94B302E12FF0E0E750FE4FE491BC
:100660004E2F50E0FA013197EF30F10508F06CC0E1
:10067000EB59FF4F0C941B2B84B5806884BDC7BD1C
:1006800068C084B5806284BDC8BD63C080918000AD
:10069000806880938000D0938900C093880059C0FF
:1006A00080918000806280938000D0938B00C09303
:1006B0008A004FC080918000886080938000D09332
:1006C0008D00C0938C0045C080919000806880931D
:1006D0009000D0939900C09398003BC08091900007
:1006E000806280939000D0939B00C0939A0031C0A9
:1006F00080919000886080939000D0939D00C0937B
:100700009C0027C08091C00080688093C0008091C9
:10071000C0008F7B8093C000C093CF001AC080912F
:10072000C00080628093C000C093D00012C080914E
:10073000C20088608093C2008091C2008B7F80934A
:10074000C200C093D20005C0C038D1050CF07CCFE8
:1007500076CFDF91CF911F9108958F929F92AF92A4
:10076000BF92CF92DF92EF92FF926B017C010E94C9
:10077000CC014B015C01C114D104E104F104F1F09E
:100780000E94CC01DC01CB0188199909AA09BB0997
:10079000883E9340A105B10570F321E0C21AD1084B
:1007A000E108F10888EE880E83E0981EA11CB11CB8
:1007B000C114D104E104F10419F7DDCFFF90EF90EB
:1007C000DF90CF90BF90AF909F908F9008952FB7FC
:1007D000F89460919B0270919C0280919D0290918F
:1007E0009E022FBF08951F920F920FB60F921124F1
:1007F0002F933F938F939F93AF93BF9380919B02CF
:1008000090919C02A0919D02B0919E0230919A021B
:1008100023E0230F2D3720F40196A11DB11D05C043
:1008200026E8230F0296A11DB11D20939A02809302
:100830009B0290939C02A0939D02B0939E02809194
:100840009F029091A002A091A102B091A2020196F4
:10085000A11DB11D80939F029093A002A093A102BD
:10086000B093A202BF91AF919F918F913F912F9131
:100870000F900FBE0F901F9018951F920F920FB6FA
:100880000F9211242F933F934F935F936F937F9316
:100890008F939F93AF93BF93EF93FF938091B90092
:1008A000887F803609F49CC068F5883209F45BC003
:1008B00090F4803109F454C038F4882309F4F6C068
:1008C000883009F44DC0F6C0883109F44CC080323C
:1008D00009F45DC0EFC0803409F468C048F4803387
:1008E00009F455C0883309F0E5C080935505D8C098
:1008F000803509F44FC0883509F45DC0883409F0AB
:10090000D9C0D6C0883909F4C7C0A8F4883709F41B
:1009100067C038F4883609F463C0803709F460C0D2
:10092000C9C0883809F4B8C0803909F45FC080387C
:1009300009F0C0C05BC0803B09F486C038F4803A3F
:1009400009F466C0883A09F47FC0B4C0803C09F459
:10095000A7C0883C09F4A4C0883B09F48AC0AAC097
:100960008091520510C090915405809153059817BD
:1009700070F5E091540581E08E0F80935405F0E00E
:10098000EF5CFA4F80818093BB0085EC86C080933A
:1009900055058EC0E091540581E08E0F809354057B
:1009A0008091BB00F0E0EF5CFA4F8083909154059A
:1009B000809153056EC0E091540581E08E0F8093C5
:1009C00054058091BB00F0E0EF5CFA4F808380918A
:1009D000560581116DC081E08093510584EA61C0A4
:1009E00083E08093570510929902CFCF80919902AE
:1009F000803208F051C0E091990281E08E0F80931F
:100A000099028091BB00F0E0E758FD4F8083BDCF95
:100A100085EC8093BC00109257058091990280323A
:100A200030F4E0919902F0E0E758FD4F10826091B8
:100A3000990270E0E0917702F091780289E792E004
:100A400009951092990236C084E080935705109260
:100A5000760210927502E0917302F091740209958A
:100A600080917502811105C081E08093750210921A
:100A70005302E091760281E08E0F80937602F0E0DF
:100A8000ED5AFD4F80818093BB009091760280915A
:100A90007502981708F479CF85E88093BC000AC0E6
:100AA00085EC8093BC001092570504C01092550548
:100AB0000E94F101FF91EF91BF91AF919F918F91B2
:100AC0007F916F915F914F913F912F910F900FBE4A
:100AD0000F901F9018952091A3029091A5022132AA
:100AE00008F04AC0809157058111FCCF32E0309365
:100AF000570531E0309356053FEF3093550510927E
:100B0000540520935305A3E3B2E041E355E0FA0115
:100B10003E2F341B321718F43D913193F9CF1092C8
:100B2000520520915205990F922B90935205909166
:100B30005105913061F410925105909152059093B6
:100B4000BB009091BC0093FDF8CF95EC01C095EEF1
:100B50009093BC00909157059230E1F39091550528
:100B60009F3F79F080915505803241F08091550585
:100B7000803331F084E005C081E003C082E001C031
:100B800083E01092A4021092A3021092A60208958C
:100B9000DC01ED91FC910190F081E02D09942F9200
:100BA0003F924F925F926F927F928F929F92AF92FD
:100BB000BF92CF92DF92EF92FF920F931F93CF934A
:100BC000DF93CDB7DEB728970FB6F894DEBF0FBE20
:100BD000CDBF1C012A013B0109831A832B833C836F
:100BE000DC015B96BC92AE925A9781E0AA94AB2846
:100BF00009F080E0F10183AF40825182628273820A
:100C000089819A81AB81BC8184839583A683B783D4
:100C1000C086D186E286F38666A577A580A991A9CC
:100C20000E94712720E030E04AE754E40E945929ED
:100C30006D837E838F839887F1014486558666860F
:100C400077869B01AC0169817A818B819C810E94AE
:100C5000D2274B015C01D10150966D937D938D930A
:100C60009C9353972D813E814F815885C701B601D2
:100C70000E9459296B017C01F101648B758B868B75
:100C8000978B808D918D019741F5A301920160E0D2
:100C900070E0CB010E94EC28D1011C966D937D93EE
:100CA0008D939C931F97A501940160E070E0CB01A8
:100CB0000E94EC28F101608B718B828B938BA701D2
:100CC000960160E070E0CB010E94EC28D1015496BF
:100CD0006D937D938D939C93579728960FB6F894B8
:100CE000DEBF0FBECDBFDF91CF911F910F91FF905F
:100CF000EF90DF90CF90BF90AF909F908F907F90BC
:100D00006F905F904F903F902F9008954F925F9219
:100D10006F927F928F929F92AF92BF92CF92DF920B
:100D2000EF92FF92C090EA04D090EB04E090EC04C4
:100D3000F090ED0420E030E0A901C701B6010E9467
:100D40006C2780902D0490902E04A0902F04B090DA
:100D5000300487FF4FC020E030E0A901C701B60191
:100D60000E94592A2601370118169CF077FA7094D0
:100D700077F8709420E030E0A901C301B2010E942D
:100D8000592A181624F0C12CD12C760102C0730107
:100D90006201A5019401C701B6010E94D2270E94F9
:100DA000CB297093240460932304072E000C880B36
:100DB000990B0E9473279B01AC01C501B4010E94ED
:100DC000EC280E94CB29709326046093250420E030
:100DD00030E0A901C301B2010E94592A18160CF093
:100DE00041C08DE090E0909328048093270460E058
:100DF0008AE02FC0A5019401C701B6010E94D22745
:100E00000E94CB297093240460932304072E000CC6
:100E1000880B990B0E9473279B01AC01C501B4019B
:100E20000E94EC280E94CB2970932604609325042D
:100E300020E030E0A901C701B6010E94592A181626
:100E40008CF48AE090E0909328048093270460E07B
:100E50008DE00E94B30261E088E00E94B30281E06D
:100E600080932B04FF90EF90DF90CF90BF90AF90D6
:100E70009F908F907F906F905F904F900895CF924A
:100E8000DF92EF92FF926B017C0120E030E0A9013C
:100E90000E946C2787FD11C020E030E040E85FE34E
:100EA000C701B6010E94592A181654F4C12CD12C3E
:100EB00080E8E82E8FE3F82E03C0C12CD12C7601F8
:100EC00020E030E04FE753E4C701B6010E94D2278B
:100ED0000E94CB2989E0FF90EF90DF90CF900C9497
:100EE0001603CF92DF92EF92FF92CF93C090000152
:100EF000D0900101E0900201F090030120E030E089
:100F000040E751E4C701B6010E946C2787FD15C078
:100F100020E030E040E751E4C701B6010E94592AC1
:100F2000181614F520E030E04CE052E4C701B60199
:100F30000E946C2787FD03C017C0C1E016C0A7013F
:100F400096016091040170910501809106019091D4
:100F500007010E94EC28C1E020E030E040E05FE3C0
:100F60000E94592A18160CF0C0E08C2FCF91FF90E8
:100F7000EF90DF90CF9008954F925F926F927F92A3
:100F8000AF92BF92CF92DF92EF92FF920F931F9397
:100F9000CF93DF93CDB7DEB72A970FB6F894DEBFB5
:100FA0000FBECDBF6B017C0120E030E040E151EC91
:100FB0000E946C2787FF1BC01A8219821C821B8229
:100FC0001E821D826AEB71E0CE0101960E947D11A6
:100FD000CE0101960E94540CCE0101960E94DD11B3
:100FE000C12CD12C90E1E92E91ECF92E24C020E007
:100FF00030E046EC52E4C701B6010E94592A1816A7
:10100000D4F41A8219821C821B821E821D826AE716
:1010100071E0CE0101960E947D11CE0101960E94E1
:10102000540CCE0101960E94DD11C12CD12C86EC0E
:10103000E82E82E4F82E0E947107882351F00E9466
:10104000E7036093290270932A0280932B02909306
:101050002C02C0920001D0920101E0920201F092B4
:1010600003010E947107882351F00E94E7036093F7
:10107000290270932A0280932B0290932C0281E024
:101080008093BB048CED95E09093BD048093BC04E9
:10109000C0900001D0900101E0900201F0900301A6
:1010A0002091040130910501409106015091070102
:1010B000C701B6010E94EC2820E030E040E05FE389
:1010C0000E94592A18160CF099C020E030E040E741
:1010D00051E4C701B6010E946C2787FF0EC0A12C06
:1010E000B12CC12CD12C76010FE812EC25E73CE3A2
:1010F0004DE35AE067E57EE37DC020E030E040E26A
:1011000052E4C701B6010E946C27181674F0A12C96
:10111000B12CC12CD12C760106EA1BE924E43CE376
:101120004BE754E16EE27EE365C020E030E048EC3E
:1011300052E4C701B6010E94592A87FD0EC0A12CB6
:10114000B12CC12CD12C76010CEE11E528EB3CE33F
:1011500048EB5EE165E87EE34DC020E030E040E230
:1011600052E4C701B6010E94EC2820E030E040E7DD
:1011700052E40E9459296B017C0122E338E04CE2E1
:101180005CE30E94D22726EA3BE944E45CE30E9448
:10119000ED286F83788789879A872AEE31E548EBB7
:1011A0005DE3C701B6010E94D2272BE734E14EE28E
:1011B0005EE30E94ED282B013C0120E030E0A90114
:1011C0000E946C2787FD1AC020E030E0A9016F81E2
:1011D000788589859A850E946C2787FD0FC0A12C90
:1011E000B12CC12CD12C76010F81188529853A8527
:1011F000B301A2018EEE94E00E94CF052A960FB6AD
:10120000F894DEBF0FBECDBFDF91CF911F910F913C
:10121000FF90EF90DF90CF90BF90AF907F906F9056
:101220005F904F900895CF92DF92EF92FF920F93CD
:101230001F93CF93DF93EB017B0124E0E20EF11CBF
:101240008B016C01C61AD70AC601800F911F0E943C
:101250009328F80181938F01EE15FF05A9F7CE01C0
:10126000DF91CF911F910F91FF90EF90DF90CF9082
:101270000895E091A702F091A802DC0114964D9127
:101280005C9115976D917C910280F381E02D87EA46
:1012900092E00994CF92DF92FF920F931F93CF9326
:1012A000DF931F92CDB7DEB7F62E072F152F99E3E8
:1012B000C92E94E0D92EF601908121E02093A60258
:1012C0009093A5021092A4021092A302A181B28170
:1012D000ED91FC91119724E0829FC0011124BC0183
:1012E0006A5F7F4F0190F081E02DCD014983099520
:1012F0006F2D702FF601818192810E94C805602FA9
:1013000070E0F601818192810E94C8054981642FB5
:10131000712FF601818192810E94C805612F70E0D2
:10132000F601818192810E94C805F6018181928136
:101330000F90DF91CF911F910F91FF90DF90CF9091
:101340000C946B05CF92DF92EF92FF92CF93C82F50
:10135000CB01BA0120E030E040E853E40E94D227FC
:1013600020E030E040E851E40E94D2276B017C018C
:1013700020E030E0A9010E946C2787FD12C020E028
:1013800030EF4FE755E4C701B6010E94592A1816FD
:101390005CF4C12C80EFD82E8FE7E82E85E4F82E80
:1013A00003C0C12CD12C7601C701B6010E94D229FD
:1013B000AB0160E070E08C2FCF91FF90EF90DF9059
:1013C000CF900C944A09CF92DF92EF92FF92CF9385
:1013D000C82FCB01BA0120E030E040E853E40E947E
:1013E000D22720E030E040E851E40E94D2276B0190
:1013F0007C0120E030E0A9010E946C2787FD12C02B
:1014000020E030EF4FE755E4C701B6010E94592AAA
:1014100018165CF4C12C80EFD82E8FE7E82E85E4F7
:10142000F82E03C0C12CD12C7601C701B6010E9451
:10143000D2294FEF5FE08C2FCF91FF90EF90DF909C
:10144000CF900C944A098F929F92AF92BF92CF9205
:10145000DF92EF92FF920F931F93CF93DF93EC01F4
:101460007B0103E414E04C0187E0880E911C8BE4BF
:10147000A82EB12CC5010197F1F7699170E080E0C9
:1014800090E00E9471272091AF043091B004409108
:10149000B1045091B2040E94D227AB01BC01F80103
:1014A0003797808190E00E94E309C5010197F1F729
:1014B000F70161917F0170E080E090E00E94712768
:1014C0002091AF043091B0044091B1045091B20426
:1014D0000E94D227AB01BC01F80180810F5F1F4F32
:1014E00090E00E94E309C815D90509F0C3CFDF9148
:1014F000CF911F910F91FF90EF90DF90CF90BF9011
:10150000AF909F908F9008950F931F930E94E703D1
:101510006093AF027093B0028093B1029093B202D5
:10152000E091A702F091A8020284F385E02D87EAFA
:1015300092E0099597FF1FC00E94E7030091AF0258
:101540001091B0022091B1023091B202DC01CB01C6
:10155000801B910BA20BB30B0091AB021091AC025C
:101560002091AD023091AE0280179107A207B30718
:10157000B8F28FEF9FEF1F910F910895BC01009774
:1015800091F0FC0101900020E9F73197AF01481B71
:10159000590BE091A702F091A8020280F381E02D9F
:1015A00087EA92E0099480E090E008958F929F92FC
:1015B000AF92BF920F931F93CF93DF93CDB7DEB758
:1015C000A1970FB6F894DEBF0FBECDBF19A242306F
:1015D00008F44AE08E010F5D1F4F842E912CA12C40
:1015E000B12CA50194010E94F92AE62FB901CA0184
:1015F00001501109EA3014F4E05D01C0E95CD80142
:10160000EC93232B242B252B61F7C8010E94BE0AE3
:10161000A1960FB6F894DEBF0FBECDBFDF91CF917C
:101620001F910F91BF90AF909F908F90089581E18F
:1016300092E00E94BE0A87E092E00E94BE0A81E129
:1016400092E00E94BE0A87E092E00C94BE0A0F93DB
:101650001F93CF93DF938C01C0E0D0E0F801EC0F33
:10166000FD1F6491662371F0E091A702F091A8023A
:101670000190F081E02D87EA92E00995892B11F025
:101680002196ECCFCE01DF91CF911F910F9108955C
:10169000EF92FF920F931F93CF93DF937C018B0107
:1016A000EA0183E792E00E94270BC7010E943909F3
:1016B0008BE692E00E94270BC8010E94390981E65F
:1016C00092E00E94270BCE010E94390987E092E048
:1016D000DF91CF911F910F91FF90EF900C94BE0A74
:1016E0004F925F926F927F928F929F92AF92BF9232
:1016F000CF92DF92EF92FF926B017C01B42E9B019F
:10170000AC010E94662A882319F084E192E027C088
:1017100026013701E89477F82FEF3FEF4FE75FE7B7
:10172000C301B2010E94662A81110DC02FEF3FEF65
:101730004FE75FE7C301B2010E946C2718161CF443
:1017400088E192E00CC02FEF3FEF4FE75FE4C70165
:10175000B6010E94592A181684F48CE192E0FF9099
:10176000EF90DF90CF90BF90AF909F908F907F9041
:101770006F905F904F900C94BE0A2FEF3FEF4FE7B2
:101780005FECC701B6010E946C2787FDE6CF20E021
:1017900030E0A901C701B6010E946C2787FF11C084
:1017A000E091A702F091A8020190F081E02D6DE296
:1017B00087EA92E009954C01F7FAF094F7F8F09473
:1017C00002C0812C912CA12C60E070E080E09FE3AE
:1017D000AB1441F020E030E040E251E40E9459298E
:1017E000A394F6CF9B01AC01C701B6010E94ED287E
:1017F0002B013C010E94D2296B017C010E947127C0
:101800009B01AC01C301B2010E94EC282B013C01F9
:101810004AE0C701B6010E94D60A7C01E80CF91C17
:10182000BB2069F0E091A702F091A8020190F0813D
:10183000E02D6EE287EA92E00995E80EF91EDB2CB6
:10184000DD2021F120E030E040E251E4C301B201AB
:101850000E94D2272B013C010E94D2294B01A12CCE
:10186000B12C4AE0C501B4010E94D60AE80EF91E67
:10187000C501B4010E9471279B01AC01C301B201F3
:101880000E94EC282B013C01DA94DACFC701FF90CB
:10189000EF90DF90CF90BF90AF909F908F907F9010
:1018A0006F905F904F9008950E94390987E092E011
:1018B0000C94BE0A9C01662381F08091A70490914C
:1018C000A8042817390711F080E020C08091A904EE
:1018D0009091AA0428173907B9F38091A504909133
:1018E000A604662351F001968D3241E094072CF452
:1018F0009093A6048093A504E7CF1092A6041092BB
:10190000A5043093AA042093A90481E03093A8048D
:101910002093A7048823C9F1C90137FF04C0882791
:101920009927821B930B6AE070E00E94E52AFB0175
:1019300037FF0BC027E0289FB001299F700D1124AD
:10194000615A7B4F88E594E01EC02A3031055CF473
:1019500027E0289FB001299F700D1124615A7B4F09
:101960008AE494E010C047E0489F9001499F300D01
:101970001124B901615A7B4F4E9FC0014F9F900DBA
:101980001124815A9B4F0C94230A089590E0FC0186
:10199000ED5BFD4F2491FC01EB5DFD4F84918823AD
:1019A00099F090E0880F991FFC01E95EFD4FA59129
:1019B000B491FC01E75FFD4F859194918FB7F89446
:1019C000EC91E22BEC938FBF08954F925F926F9250
:1019D0007F928F929F92AF92BF92CF92DF92EF92BF
:1019E000FF920F931F93CF93DF93CDB7DEB7289766
:1019F0000FB6F894DEBF0FBECDBF2B013C0129838B
:101A00003A834B835C83ED82FE820F83188780913B
:101A1000BB048823C9F00E94E703C090B304D090B0
:101A2000B404E090B504F090B6046C157D058E0505
:101A30009F0508F042C06093B3047093B404809390
:101A4000B5049093B60439C0C090B704D090B804E0
:101A5000E090B904F090BA0420E030E040E85FE3A1
:101A6000C701B6010E946C2787FF16C026E636E63E
:101A700046E65FE3C701B6010E94592A181664F4CE
:101A800080E090E0A0E8BFE38093B7049093B804AF
:101A9000A093B904B093BA0420E030E040E85FE3DB
:101AA0006091B7047091B8048091B9049091BA0420
:101AB0000E946C278111AFCF67C08090BC049090CA
:101AC000BD04092C000CAA08BB08C090B304D09038
:101AD000B404E090B504F090B604C80CD91CEA1C1C
:101AE000FB1CC616D706E806F90640F4C092B304FC
:101AF000D092B404E092B504F092B604C090B3045E
:101B0000D090B404E090B504F090B6046C197D094F
:101B10008E099F090E9471276B017C01C501B401E8
:101B20000E9473279B01AC01C701B6010E9459298D
:101B30002BED3FE049E450E40E94D2279B01AC0129
:101B40000E94ED280E945E2A20E030E040E05FE342
:101B50000E94D22720E030E040E05FE30E94ED28C1
:101B600026E636E646E65FE30E94D2272DEC3CEC03
:101B70004CEC5DE30E94ED286093B7047093B804C9
:101B80008093B9049093BA048090AB049090AC0415
:101B9000A090AD04B090AE04C090B704D090B8044B
:101BA000E090B904F090BA04A5019401C301B20118
:101BB0000E94D227A70196010E94D2272B013C0147
:101BC0006093BE047093BF048093C0049093C104DB
:101BD00020E030E0A901C501B4010E94D227A7018D
:101BE00096010E94D2276093C2047093C30480932D
:101BF000C4049093C504A501940169817A818B8105
:101C00009C810E94D227A70196010E94D22760934F
:101C1000C6047093C7048093C8049093C904A501B7
:101C200094016D817E818F8198850E94D227A701C2
:101C300096010E94D2276093CA047093CB048093CC
:101C4000CC049093CD048EEBA82E84E0B82E10E047
:101C5000F501C190D190E190F1905F012485358527
:101C600046855785C701B6010E946C27811111E096
:101C7000F501C486D586E686F786FEECAF16F4E05D
:101C8000BF0631F7112309F44EC020E030E04FE7E2
:101C900053E4C301B2010E94D2270E94CB2985E000
:101CA0000E9416034091C2045091C3046091C40481
:101CB0007091C50480E090E00E94A20920E030E02D
:101CC0004FE753E46091C6047091C7048091C80443
:101CD0009091C9040E94D2270E94CB2986E00E94DD
:101CE00016034091CA045091CB046091CC047091CA
:101CF000CD0487E090E028960FB6F894DEBF0FBEC3
:101D0000CDBFDF91CF911F910F91FF90EF90DF90AA
:101D1000CF90BF90AF909F908F907F906F905F908B
:101D20004F900C94A20928960FB6F894DEBF0FBE10
:101D3000CDBFDF91CF911F910F91FF90EF90DF907A
:101D4000CF90BF90AF909F908F907F906F905F905B
:101D50004F9008951F93CF93DF93162FC9E3D4E0DC
:101D6000988121E02093A6029093A5021092A402EC
:101D70001092A302A981BA81ED91FC911197019073
:101D8000F081E02D682FCD01099589819A81DC01D0
:101D9000ED91FC910190F081E02D612F09958981F1
:101DA0009A81DF91CF911F910C946B0540912C0586
:101DB00050912D0520912A0530912B05421753078C
:101DC000B4F49091E8009570E1F39091E80092FDF1
:101DD00019C08093F10080912C0590912D050196FA
:101DE0008F739927892B19F48EEF8093E8008091E7
:101DF0002C0590912D05019690932D0580932C052F
:101E000081E0089580E00895CF92DF92EF92FF92F3
:101E10000F931F93CF93DF931F92CDB7DEB7182F89
:101E2000062FE42E862F880F8E5F99830E94D60E90
:101E300083E00E94D60EF12EC12E9981D92E8C2DD1
:101E40008F19801798F4F601E7FE02C0849101C053
:101E500080810E94D60E182F80E00E94D60E81232A
:101E6000FFEFCF1ADF0A8111EACF01C081E00F90A6
:101E7000DF91CF911F910F91FF90EF90DF90CF9066
:101E80000895DF92EF92FF920F931F93CF93DF930A
:101E9000D82E8A017B01E40EF51EEB01CE15DF057D
:101EA00071F0D7FE03C0FE01849101C088810E94B9
:101EB000D60E21968111F2CF8FEF9FEF01C0C8019E
:101EC000DF91CF911F910F91FF90EF90DF900895D8
:101ED000CF92DF92EF92FF920F931F93CF93DF93F6
:101EE0006C017A018B01C0E0D0E0CE15DF0589F0EE
:101EF000D8016D918D01D601ED91FC910190F08199
:101F0000E02DC6010995892B11F47E0102C02196AE
:101F1000ECCFC701DF91CF911F910F91FF90EF9010
:101F2000DF90CF900895CF93DF931F92CDB7DEB7A8
:101F30006983DC01ED91FC910280F381E02D41E0A9
:101F400050E0BE016F5F7F4F09950F90DF91CF91F9
:101F5000089583E08093E9008091F200882319F0CE
:101F60008AE38093E80008950E942C2D0F931F931D
:101F7000CF93DF93EC0188819981009729F02A8122
:101F80003B812617370788F48B016F5F7F4F0E94D4
:101F9000622C009761F0998388831B830A832C81CC
:101FA0003D81232B11F4FC01108281E001C080E00F
:101FB000DF91CF911F910F910895CF93DF93EC01A3
:101FC00088819981009711F00E94CA2B198218828A
:101FD0001D821C821B821A82DF91CF9108950F937C
:101FE0001F93CF93DF931F92CDB7DEB782E0898333
:101FF00042E450E06BE772E080E80E94410F0E94EB
:10200000AA19DC0112960D911C9113970115110567
:1020100069F0D801ED91FC910280F381E02DBE01C1
:102020006F5F7F4FC801099597FF07C089810F90A7
:10203000DF91CF911F910F910895F80100851185CF
:10204000E5CF8F929F92AF92BF92CF92DF92EF92A5
:10205000FF920F931F93CF93DF935C016B017A0183
:1020600080911301882309F459C080913005882399
:1020700009F454C08091270280FF05C08091E000E0
:1020800082608093E000E70110E00AEF83E0882E91
:102090009AE3992E2097D1F10E949919811109C0D4
:1020A0000150E1F161E070E080E090E00E94AD035A
:1020B000F1CF282F30E0C217D3070CF48C2F4FB785
:1020C000F8948092E9009091E80095FF1DC0282FB8
:1020D00030E0C21BD30BF601982F915020F0819174
:1020E0008093F100FACFC20ED31E112319F0909203
:1020F000E80009C08091E80085FD06C09092E800E4
:1021000011E0209709F010E04FBFC4CF1111C4CFE8
:1021100084E680932E051E141F0444F081E090E0B5
:10212000F5019383828380E090E001C0C701DF91D5
:10213000CF911F910F91FF90EF90DF90CF90BF90C4
:10214000AF909F908F9008950E94991990E0089504
:10215000CF93DF931F92CDB7DEB7FC0184859585C1
:1021600097FD05C02FEF3FEF358724870BC0CE01C9
:1021700001960E947019019719F4898190E002C0BC
:102180008FEF9FEF0F90DF91CF9108950F931F93E3
:10219000CF93DF931F92CDB7DEB78C01FC0184850E
:1021A000958597FF0EC0CE0101960E947019019788
:1021B00019F4298130E002C02FEF3FEFF801358795
:1021C0002487F801848595850F90DF91CF911F9129
:1021D0000F910895CF93DF93DC011496ED91FC915C
:1021E00015976E177F0728F54115510511F19F01CD
:1021F000261B370B4217530708F49A01DB01EC0149
:1022000088819981E21BF30BFD83EC83AF01461BB0
:10221000570B260F371FBC01620F731F8A0F9B1FBE
:102220000E94552DE881F9818C819D81E80FF91F6D
:102230001082DF91CF910895EF92FF920F931F9339
:10224000CF93DF9300D0CDB7DEB78C0169831A82BC
:10225000FC01E480F580FFEFEF1AFF0AB7010E944E
:10226000B60F882381F0F801208131818481958126
:10227000BE016F5F7F4F820F931F0E944E2DF801AA
:10228000F582E48281E00F900F90DF91CF911F9152
:102290000F91FF90EF900895EF92FF920F931F938D
:1022A000CF93DF93FB0124813581E080F180FC0135
:1022B00004811581E114F10411F480E017C02115A7
:1022C000310599F0EC01020F131FB8010E94B60FFF
:1022D000882399F3288139818C819D81B701820FF0
:1022E000931F0E944E2D1D830C8381E0DF91CF91BF
:1022F0001F910F91FF90EF900895EF92FF920F932F
:102300001F93CF93DF93EC018B016115710551F0A1
:10231000CB010E94E5257C01BC01CE010E94B60FD5
:10232000811104C0CE010E94DD0F07C0FD82EC8246
:10233000B801888199810E94DE25CE01DF91CF917D
:102340001F910F91FF90EF900895EF92FF920F93DE
:102350001F93CF93DF93EC017B018A01BA010E94A6
:10236000B60F811104C0CE010E94DD0F07C01D838E
:102370000C83B701888199810E944E2DCE01DF9197
:10238000CF911F910F91FF90EF900895CF93DF931E
:10239000EC016115710559F0FB0101900020E9F78E
:1023A0003197AF01461B570B0E94A51102C00E9436
:1023B000DD0FCE01DF91CF910895FC0180819181E5
:1023C0000C94CA2BFC011182108213821282158296
:1023D00014826115710551F0FB0101900020E9F7AD
:1023E0003197AF01461B570B0C94A51108951F920E
:1023F0000F920FB60F9211248F939F938091E1005B
:102400009091E100937F9093E10083FF0FC01092C1
:10241000E90091E09093EB001092EC0092E390932E
:10242000ED001092300598E09093F00082FF1CC000
:1024300093E09093E9009091F200992319F09AE3C8
:102440009093E80090912E05992329F090912E0504
:10245000915090932E0590912F05992329F09091FA
:102460002F05915090932F0584FF10C08091E200BA
:102470008E7E81608093E2008091E1008F7E809368
:10248000E100809127028E7E806111C080FF11C023
:102490008091E2008E7E80618093E2008091E10075
:1024A0008E7E8093E100809127028E7E81608093F2
:1024B00027029F918F910F900FBE0F901F9018953C
:1024C0001F920F920FB60F921124CF92DF92EF92CC
:1024D000FF920F931F932F933F934F935F936F93AD
:1024E0007F938F939F93AF93BF93EF93FF93CF937C
:1024F000DF93CDB7DEB76C97DEBFCDBF1092E9009A
:102500008091E80083FFFFC1FE017596DE2ECF2E7D
:1025100088E08E0F8E1729F09091F100908331960C
:10252000F9CF84E680932F0582EF8093E8008D89B0
:1025300087FF05C09091E80090FFFCCF03C09EEF9D
:102540009093E800982F907609F0C5C09E892F8956
:10255000188D91110CC0803829F480912802809345
:10256000F10002C01092F1001092F1004FC1422F11
:1025700050E0512B913051F4811148C14130510547
:1025800009F044C1809128028D7F0BC0933061F423
:1025900081113CC14130510509F038C180912802B8
:1025A00082608093280232C1953041F48091E80026
:1025B00080FFFCCF20682093E30028C1963009F00B
:1025C0005EC0EB8CFC8C1092E90010922D051092ED
:1025D0002C05123091F510922B0510922A050E94BD
:1025E000EF0F99E0BE016F5F7F4FDB01E92F1D9276
:1025F000EA95E9F799831A8391E09E8390EA988798
:102600009AEF998720912C0530912D05275F3F4F38
:102610003C832B838D831092E90010922D0510923C
:102620002C05F0922B05E0922A0549E050E080E06D
:102630000E94410F0E94EF0FE9C0F0922B05E0923B
:102640002A050E94AA19DC011296ED90FC901397BE
:10265000E114F10409F4C7C0D701ED91FC910480A5
:10266000F581E02D6D2D7C2DC7010995009719F09E
:102670000CF0CCC0CFC0F701E084F184E9CF9730F3
:1026800009F4C8C0983021F481E08093F100BEC005
:10269000993009F0BBC0837009F0BCC0EAEEF1E0EC
:1026A00081E021E036E39081992361F08093E90095
:1026B0002093EB0091919093EC003093ED008F5FAD
:1026C000873089F78EE78093EA001092EA008F89BD
:1026D000809330059BC08B8D9C8D1092E9001092E9
:1026E0002D0510922C0590932B0580932A05898D3A
:1026F00081115FC08E899D89913A59F4813209F028
:1027000089C047E050E06CE071E080E00E94410F3A
:102710007DC0913209F07EC0833289F4888D90E0CB
:10272000982F88272F89822BA0E0B0E080930801A2
:1027300090930901A0930A01B0930B0167C0803206
:10274000B1F48091E80082FFFCCFECE0F1E087E09B
:102750008E0F8E1729F09091F10090833196F9CF6A
:1027600084E680932F058BEF8093E80006C08232C9
:1027700009F04CC08F898093130180912602882331
:1027800019F0EEEFFAE002C0E0E0F8E080910C0111
:1027900090910D01A0910E01B0910F01803B9440EA
:1027A000A105B10509F07AC08091130180FF92C0A4
:1027B00075C00E94AA19DC0112960D911C91139705
:1027C0000115110539F1D801ED91FC910190F081CD
:1027D000E02D6D2D7C2DC8010995811117C0F801E0
:1027E00000851185EDCF113009F44EC0133091F4FE
:1027F0008F89882309F445C0823081F440E862E182
:102800008CEE92E00E94040F882321F08EEF8093DB
:10281000E80079C081E28093EB0075C0813029F433
:1028200040E868E183ED92E0EDCF833099F70E94B4
:10283000AA19DC011296ED90FC9013978E010F5FA0
:102840001F4F6801E114F10479F0D701ED91FC917B
:102850000680F781E02DB801C7010995080F111D09
:10286000F701E084F184EECFD8011C92F6010190CB
:102870000020E9F73197BF016C197D0940E0C601DE
:10288000C1CF6DEB72E002C061EC72E061157105C1
:1028900009F2FB01449150E080E838CF0FB6F8947C
:1028A000A89580916000886180936000109260001C
:1028B0000FBEA895EE3F2AE0F20739F08091FE0A9C
:1028C0009091FF0A91838083A1CF1092FF0A10920A
:1028D000FE0A9CCFEE3F8AE0F80731F080819181BB
:1028E0009093FF0A8093FE0A87E797E7918380839E
:1028F0009BE088E10FB6F894A895809360000FBE26
:102900009093600083CF6C960FB6F894DEBF0FBE35
:10291000CDBFDF91CF91FF91EF91BF91AF919F918B
:102920008F917F916F915F914F913F912F911F9167
:102930000F91FF90EF90DF90CF900F900FBE0F9010
:102940001F9018954F925F926F927F928F929F92F5
:10295000AF92BF92CF92DF92EF92FF92412C512C17
:102960003201CC24CA94DC2C76014B015C0120E2BC
:10297000820E911CA11CB11C481459046A047B04EA
:1029800008F057C0C2010E949328A701960128278A
:10299000DA01C9018F709927AA27BB27880F991FD1
:1029A000880F991FFC01ED5FFC4F80819181A2810E
:1029B000B38134E0F694E794D794C7943A95D1F76D
:1029C000C826D926EA26FB26C2010E94932890E059
:1029D00044E0959587954A95E1F7092E000CAA0BDE
:1029E000BB0B8C259D25AE25BF258F709927AA2767
:1029F000BB27880F991F880F991FFC01ED5FFC4FC3
:102A000080819181A281B38164E0F694E794D794A8
:102A1000C7946A95D1F7C826D926EA26FB26C09422
:102A2000D094E094F0943FEF431A530A630A730A78
:102A3000A3CFC701B601FF90EF90DF90CF90BF907A
:102A4000AF909F908F907F906F905F904F90089580
:102A5000CF93DF9326E636E646E65FE30E94D22771
:102A60009B01AC0160E27CEB8EEB95E40E9459295E
:102A700020E030E040E85FE30E94EC2820E030E016
:102A800040E05FE30E94ED280E94012A0E94D229C3
:102A9000D62F8091390491E09093A6028093A502ED
:102AA0001092A4021092A30280913A0490913B04E8
:102AB000DC01ED91FC910190F081E02D60E0099541
:102AC00080913A0490913B040E946B0580913904F7
:102AD000909157059111FCCF91E0909357059093F9
:102AE00056052FEF2093550510925405109253056B
:102AF0009093520590915205880F892B809352052F
:102B000080915105813061F41092510580915205F8
:102B10008093BB008091BC0083FDF8CF85EC01C0A1
:102B200085EE8093BC00809157058130E1F3809160
:102B30005405811103C08091540501C081E0A1E3D7
:102B4000B5E02AE535E0F9019E2F921B981718F49D
:102B50009D919193F9CF10925905809358058091DA
:102B60003A0490913B04DC01ED91FC910284F385E1
:102B7000E02D0995C82F8F76682F606180E00E9454
:102B8000AA0E6D2F8EEF0E94AA0E6C2F80E00E947D
:102B9000AA0E65E070E080E090E00E94AD036C2F2B
:102BA000606A80E0DF91CF910C94AA0E4F925F9201
:102BB0006F927F92AF92BF92CF92DF92EF92FF928D
:102BC0000F931F93CF93DF93CDB7DEB7A0970FB6C8
:102BD000F894DEBF0FBECDBF8C015B0169E072E0EF
:102BE000C5010E94C61119821A821B821C8201151E
:102BF000110589F001301105E9F460E270E080E030
:102C000090E00E94A2142B013C01BE016F5F7F4F38
:102C100080E690E00CC060E070E0CB010E94A2145E
:102C20002B013C01BE016F5F7F4F80E490E00E946A
:102C3000130903C0412C512C320189819A81AB8147
:102C4000BC81481659066A067B0649F082E08093EB
:102C5000430360E272E0C5010E94C6112CC0011559
:102C6000110549F00130110549F490E2C92ED12C2B
:102C7000E12CF12C03C0C12CD12C7601FE01319640
:102C800080E2DF011D928A95E9F78F01CE1ADF0AF3
:102C900080E2F82EFE0EC601800F911F0E9493283D
:102CA000F80181938F01882331F0682FC5010E94BC
:102CB0001C11F012F0CFA0960FB6F894DEBF0FBE35
:102CC000CDBFDF91CF911F910F91FF90EF90DF90DB
:102CD000CF90BF90AF907F906F905F904F9008958E
:102CE000CF92DF92EF92FF92CF93DF93C3E2D4E0D3
:102CF000CA84DB84EC84FD8420E030E0A901C701B4
:102D0000B6010E94D2270E94CB2979836883072EBF
:102D1000000C880B990B0E9473279B01AC01C70123
:102D2000B6010E94EC280E94CB297B836A8360E075
:102D30008DE00E94B30260E08AE00E94B30260E08E
:102D400088E00E94B3021886DF91CF91FF90EF9048
:102D5000DF90CF9008952F923F924F925F926F92A3
:102D60007F928F929F92AF92BF92CF92DF92EF921B
:102D7000FF920F931F93CF93DF93C9E7D3E0C12C4A
:102D8000D12C760169917991072E000C880B990B53
:102D90000E9473279B01AC01C701B6010E94ED2878
:102DA0006B017C0183E0C739D80761F720E030E090
:102DB00040E751E4C701B6010E9459296B017C012B
:102DC00060939703709398038093990390939A0369
:102DD00060911F0470912004072E000C880B990B42
:102DE0000E9473279B01AC01C701B6010E946C27AA
:102DF00087FF05C0609121047091220416C0609184
:102E00009B0370919C03072E000C880B990B0E946A
:102E100073279B01AC01C701B6010E94592A1816FD
:102E20005CF460919D0370919E03072E000C880B4B
:102E3000990B0E94732797C02BE9A22E23E0B22E94
:102E400000E010E0F501C081D1811801FFEF2F1AD9
:102E50003F0AF50184809580B401092C000C880B91
:102E6000990B0E9473279B01AC01C701B6010E9418
:102E7000592A87FD6FC0BE010D2E000C880B990BDF
:102E80000E9473272B013C019B01AC01C701B601D5
:102E90000E946C2718160CF45DC0A7019601C301AF
:102EA000B2010E94EC286B017C0120E030E0A90116
:102EB0000E94592A181624F0F7FAF094F7F8F094C3
:102EC000000F111F000F111FF801E858FC4F05A15A
:102ED00016A1B801012E000C880B990B0E947327D4
:102EE0002B013C01C819D909D7FF03C0D195C19561
:102EF000D109BE01DD0F880B990B0E9473279B013E
:102F0000AC01C701B6010E9459296B017C01F10196
:102F1000EE0FFF1FEE0FFF1FE858FC4F65A176A1D3
:102F2000601B710B77FF03C0719561957109072EC6
:102F3000000C880B990B0E9473279B01AC01C70101
:102F4000B6010E94D2279B01AC01C301B2010E94CD
:102F5000ED2809C0F4E0AF0EB11C8101013211056A
:102F600009F070CF04C0262F572F482F392F622F1A
:102F7000752F842F932FDF91CF911F910F91FF9089
:102F8000EF90DF90CF90BF90AF909F908F907F9009
:102F90006F905F904F903F902F900895E4E0F3E0A2
:102FA000E49120917B00E3FB882780F990E035E0F5
:102FB000880F991F3A95E1F7922F9F7D892B809377
:102FC0007B00E770E064E0937C0080917A0080648D
:102FD00080937A0080917A0086FDFCCF8091780002
:102FE0002091790090E0922B08952F923F924F927A
:102FF0005F926F927F928F929F92AF92BF92CF9289
:10300000DF92EF92FF920F931F93CF93DF93CDB791
:10301000DEB72D970FB6F894DEBF0FBECDBF0E946E
:10302000E7036D837E838F8398878091100590914D
:103030001105A0911205B09113054D815E816F813C
:103040007885481B590B6A0B7B0B80911C0590916E
:103050001D05A0911E05B0911F05481759076A0765
:103060007B0708F423C120910A0530910B05D90193
:103070008D919D910D90BC91A02D89839A83AB83F6
:10308000BC83E0910E05F0910F059C01AD016081BC
:103090007181828193810E94EC284B015C01209117
:1030A00018053091190540911A0550911B05698149
:1030B0007A818B819C810E94EC286B017C0120919C
:1030C000FE043091FF044091000550910105C501B7
:1030D000B4010E94D227209114053091150540912A
:1030E0001605509117050E94ED282B013C016093B5
:1030F000140570931505809316059093170530906D
:10310000290531101AC02091FA043091FB04409136
:10311000FC045091FD04C701B6010E94D2279B0117
:10312000AC01C301B2010E94EC28609314057093B6
:10313000150580931605909317054090140550903F
:103140001505609016057090170510912405B09133
:103150002505BD872090260500912705212F3B2FAF
:10316000422D502FC301B2010E94592A18162CF487
:10317000812F9D85A22DB02F18C0809120059091A0
:103180002105A0912205B091230589879A87AB87F5
:10319000BC879C01AD01C301B2010E946C2787FF6F
:1031A0000CC089859A85AB85BC8580931405909366
:1031B0001505A0931605B0931705332079F02091DB
:1031C000FA043091FB044091FC045091FD04C501C8
:1031D000B4010E94D2274B015C0103C0812C912CC9
:1031E000540120910205309103054091040550914E
:1031F0000505C701B6010E94D2279B01AC01609171
:1032000014057091150580911605909117050E947F
:10321000EC289B01AC01C501B4010E94ED286B01B3
:103220007C01212F3D85422D502F0E94592A1816CE
:10323000BCF010912005909121059D8720902205DA
:1032400000912305212F392F422D502FB601C701A0
:103250000E946C2787FD04C01C2DDD862E2C0F2DAF
:10326000E0910C05F0910D05812F9D85A22DB02FC9
:1032700080839183A283B38389819A81AB81BC814E
:103280008093180590931905A0931A05B0931B0518
:103290008D819E81AF81B885809310059093110533
:1032A000A0931205B093130581E001C080E02D9634
:1032B0000FB6F894DEBF0FBECDBFDF91CF911F9147
:1032C0000F91FF90EF90DF90CF90BF90AF909F90C5
:1032D0008F907F906F905F904F903F902F900895C8
:1032E000FC0180913005811103C08FEF9FEF08959D
:1032F0009FB7F89482E08093E9002091F20030E0DB
:103300001216130614F421E030E02115310551F0B6
:1033100084E680932F058091F10080838091F200F4
:10332000882319F09FBFC90108958BE68093E800B8
:10333000F9CF2FB7F89483E08093E9009091E800EB
:10334000892F807295FF04C09091F20080E4891B60
:103350002FBF089580917E0581110DC082E080937A
:103360007A0584E080937B0510927D0510927C05A0
:1033700081E080937E058AE795E00895CF93DF93FF
:10338000CDB7DEB7A0970FB6F894DEBF0FBECDBFA6
:10339000789484B5826084BD84B5816084BD85B530
:1033A000826085BD85B5816085BD80916E0081603C
:1033B00080936E00109281008091810082608093E2
:1033C00081008091810081608093810080918000E4
:1033D0008160809380008091910082608093910051
:1033E0008091910081608093910080919000816034
:1033F000809390008091C10084608093C10080918F
:10340000C10082608093C1008091C100816080937F
:10341000C1008091C30081608093C3008091C0008F
:1034200082608093C0008091C20081608093C2005E
:1034300080917A00846080937A0080917A00826023
:1034400080937A0080917A00816080937A008091E5
:103450007A00806880937A001092300510922802DA
:10346000109227028091D70081608093D70080EA74
:103470008093D80089B5806189BD89B5826089BD96
:1034800009B400FEFDCF61E070E080E090E00E94B2
:10349000AD038091D8008F7C80618093D8008091AB
:1034A000E000807F8093E0008091E1008E7E809339
:1034B000E1008DE08093E200EEEFFFE785919491CB
:1034C0008B3F9C4D19F481E0809326020FB6F8944F
:1034D000A8958091600088618093600010926000E0
:1034E0000FBE60EF71E08AE493E00E94C61165EFC1
:1034F00071E080E593E00E94C6116AEF71E08CE50F
:1035000093E00E94C6116FEF71E086E593E00E94A0
:10351000C61163E072E082E693E00E94C6118FEF6D
:103520009FEF9093B4028093B30283E090E0A0E019
:10353000B0E08093AB029093AC02A093AD02B09345
:10354000AE028BE00E94C60C89E00E94C60C60E0CF
:1035500070E0CB010E943F0780E090E0AAE7B3E46F
:1035600080932D0490932E04A0932F04B0933004E5
:103570008DE00E94C60C8AE00E94C60C88E00E9482
:10358000C60C0E9470160E94701664EE74E080E013
:1035900090E00E94D615109243036EED74E081E036
:1035A00090E00E94D6151092430385E00E94C60C5D
:1035B00086E00E94C60C8CE08093B80010925905FA
:1035C000109258051092A4021092A302109257056F
:1035D00081E0809356051092510561E082E00E94DF
:1035E000B30261E083E00E94B3028091B9008E7F54
:1035F0008093B9008091B9008D7F8093B90088E4F1
:103600008093B80085E48093BC0060E880E00E946D
:10361000AA0E6AE070E080E090E00E94AD0360E0F6
:1036200070E08AE794E40E9428150BE410E0C801DA
:103630000197F1F760E070E088EC94E40E942815AF
:10364000C8010197F1F780E090E0A0E8BEE3809325
:10365000AF049093B004A093B104B093B20480E09F
:1036600090E0A0E0BFE38093AB049093AC04A09300
:10367000AD04B093AE040091780310E00E94CE1721
:10368000000F111FF801E858FC4F9283818380914D
:1036900078038F5F809378038F3068F310927803FC
:1036A0000E94AB166093040170930501809306019C
:1036B0009093070180E090E0A8EBB1E480930001D3
:1036C00090930101A0930201B0930301809128051A
:1036D00000910C0510910D05811145C0F801C080C5
:1036E000D180E280F380C0921405D0921505E0925B
:1036F0001605F0921705E0910A05F0910B058081FF
:103700009181A281B3818093180590931905A093AC
:103710001A05B0931B058090240590902505A09074
:103720002605B0902705A5019401C701B6010E94A6
:10373000592A181684F08090200590902105A090B9
:103740002205B0902305A5019401C701B6010E948E
:103750006C2787FF08C08092140590921505A092EF
:103760001605B092170581E08093280560911C052D
:1037700070911D0580911E0590911F050E94712773
:103780009B01AC0160E070E08AEF93E40E9459294C
:103790006B017C019B01AC016091FE047091FF0400
:1037A00080910005909101050E94D2276093FE044C
:1037B0007093FF048093000590930105A701960183
:1037C00060910205709103058091040590910505B3
:1037D0000E945929609302057093030580930405A4
:1037E0009093050584EF91E0A0E0B0E080931C0584
:1037F00090931D05A0931E05B0931F05C12CD12CDD
:10380000B0E8EB2EBFEBFB2EC0922005D092210535
:10381000E0922205F0922305412C512C80E8682E7D
:103820008FE3782E4092240550922505609226055C
:1038300070922705F80180809180A280B380A30157
:103840009201C501B4010E94592A181634F4F801F6
:1038500040825182628273820FC020E030E040E8F3
:103860005FEBC501B4010E946C2787FF05C0F8011A
:10387000C082D182E282F382809014059090150577
:10388000A0901605B0901705C0902405D09025058E
:10389000E0902605F0902705A7019601C501B40127
:1038A0000E94592A181684F0C0902005D090210556
:1038B000E0902205F0902305A7019601C501B4010F
:1038C0000E946C2787FF08C0C0921405D09215058E
:1038D000E0921605F092170580912805811101C02C
:1038E000FFCF0E94F517382E8823B1F360E070E017
:1038F00088EB91E40E94BC07109232021092BB0444
:103900006091040170910501809106019091070179
:103910000E94CB296B8B7C8B8D8B9E8B2B893C895A
:1039200038A32F8F4090AB045090AC046090AD044E
:103930007090AE048090AF049090B004A090B10459
:10394000B090B2041092AB041092AC041092AD048B
:103950001092AE04E12CF12C00E81FE320E030E0EF
:10396000A901CA01B9010E94E50CE092AF04F092EE
:10397000B0040093B1041093B20460E088E590E0D5
:103980000E945A0C0E94E7036F8B788F898F9A8F61
:103990000E94E7030E9471276B017C016F89788D7B
:1039A000898D9A8D0E94712720E030E04AE754E427
:1039B0000E94ED289B01AC01C701B6010E946C2753
:1039C00087FF45C00E94E7032F89388D498D5A8DA6
:1039D000621B730B840B950B0E94712720E030E073
:1039E0004AE754E40E9459299B01AC0160E070E071
:1039F00080E89FE30E94EC286B017C0120E030E02E
:103A0000A9010E946C2787FD11C020E030E040E84A
:103A10005FE3C701B6010E94592A181654F4C12C5D
:103A2000D12CF0E8EF2EFFE3FF2E03C0C12CD12CE8
:103A30007601C092AF04D092B004E092B104F0924B
:103A4000B20460E088E590E00E945A0CA1CF109289
:103A5000AB041092AC041092AD041092AE0410921C
:103A6000AF041092B0041092B1041092B20460E05E
:103A70008B899C890E945A0C0E94E7036F8B788F78
:103A8000898F9A8F0E94E7030E9471276B017C0146
:103A90006F89788D898D9A8D0E94712720E030E0A2
:103AA0004AE754E40E94ED289B01AC01C701B6012E
:103AB0000E946C2787FF7DC00E94E7032F89388D05
:103AC000498D5A8D621B730B840B950B0E947127D5
:103AD00020E030E04AE754E40E9459296B8F7C8F44
:103AE0008D8F9E8FA50194010E94D2276B017C01CE
:103AF00020E030E0A9010E946C2787FD11C020E082
:103B000030E040E85FE3C701B6010E94592A181669
:103B100054F4C12CD12CE0E8EE2EEFE3FE2E03C0CE
:103B2000C12CD12C7601C092AF04D092B004E092A7
:103B3000B104F092B20460E08F8D98A10E945A0CFB
:103B4000A30192016B8D7C8D8D8D9E8D0E94D2275D
:103B50006B017C0120E030E0A9010E946C2787FD09
:103B600011C020E030E040E85FE3C701B6010E94E9
:103B7000592A181654F4C12CD12C70E8E72E7FE393
:103B8000F72E03C0C12CD12C7601C092AB04D09289
:103B9000AC04E092AD04F092AE04E12CF12C00E80C
:103BA0001FE320E030E0A901CA01B9010E94E50C41
:103BB00069CF20E030E0A901C501B4010E946C2763
:103BC00087FD11C020E030E040E85FE3C501B401AB
:103BD0000E94592A181654F4812C912C50E8A52ED5
:103BE0005FE3B52E03C0812C912C54018092AF0469
:103BF0009092B004A092B104B092B20460E08B89BC
:103C00009C890E945A0C20E030E0A901C301B20156
:103C10000E946C2787FD11C020E030E040E85FE3A0
:103C2000C301B2010E94592A181654F4412C512C98
:103C300040E8642E4FE3742E03C0412C512C320116
:103C40004092AB045092AC046092AD047092AE040A
:103C5000E12CF12C00E81FE320E030E0A901CA01CB
:103C6000B9010E94E50C87E092E0C82E880FDD08BC
:103C700084E793E033E0380F3B8B80912B0488235B
:103C800009F455C020912504309126048091230425
:103C900090912404232B21F4181619060CF463C008
:103CA000892B09F444C00E94E703609335047093A4
:103CB00036048093370490933804009131041091B6
:103CC0003204209133043091340460177107820765
:103CD000930740F46093310470933204809333046B
:103CE0009093340440912C040091310410913204DB
:103CF00020913304309134044423E1F040902304B4
:103D000050902404052C000C66087708040D151D3E
:103D1000261D371D061717072807390738F5609342
:103D200031047093320480933304909334041092DE
:103D30002C041CC04090250450902604052C000C37
:103D400066087708040D151D261D371D0617170771
:103D50002807390758F46093310470933204809334
:103D600033049093340481E080932C0460912C04FC
:103D7000809127040E94B30287EA92E00E94B20178
:103D8000892B09F46CC2809172039091730385367C
:103D9000910530F069E072E08EE693E00E94C61172
:103DA00069E072E0CE0101960E94E2110E94840A4D
:103DB00097FD09C08C159D0531F0682FCE01019645
:103DC0000E941C11F3CFBE016F5F7F4F8EE693E020
:103DD0000E944C11CE0101960E94DD1120917203C8
:103DE00030917303A901425051094217530708F05B
:103DF00036C260916E0370916F036115710509F40D
:103E00002EC2FB01E40FF51F80818D3009F027C21F
:103E1000C90101978217930708F021C2FB01E80F3F
:103E2000F91F80818A3009F01AC210E0612F70E01A
:103E300080917203909173036817790718F5809148
:103E40006E0390916F03009719F4ADE2B2E003C0E6
:103E5000DC01A60FB71FE4E7F3E0009711F410921E
:103E60002D0221913C91321308C041E050E08EE6D2
:103E700093E00E94EA10115003C04B894E13EDCF1E
:103E80001F5FD4CF6EE673E088E693E00E944C118A
:103E900069E072E08EE693E00E94C6118FEF9FEF1B
:103EA000909345038093440380916C0390916D033C
:103EB000892B09F4D2C10AE413E0E12CF12CF801BA
:103EC0006480758069E072E0CE0101960E94E21183
:103ED00080916C0390916D030097E9F04301881580
:103EE000990508F44C01E0916803F0916903E80D2D
:103EF000F91D708010826091680370916903CE0192
:103F000001960E94C6118091680390916903FC019B
:103F1000E80DF91D70822D813E81F8018481958123
:103F20002817390721F589819A816081718100976D
:103F300019F061157105A9F46115710551F021158C
:103F4000310539F0FB01808190E0919581959109CF
:103F50000AC0009771F0232B61F0FC01808190E092
:103F600002C00E94452D99249394892B19F0912C1D
:103F700001C0932CCE0101960E94DD11992009F415
:103F800059C1F8014481558160E070E088E693E012
:103F90000E94EA10F0924503E0924403F2E0EF162B
:103FA000F10459F460E070E088EB91E40E94BC07F2
:103FB000109232021092BB0471CF23E0E216F1049A
:103FC0000CF0A5C0EA94EF28B1F180913202409044
:103FD000040150900501609006017090070188234C
:103FE000A1F08090000190900101A0900201B0909A
:103FF000030185E491E00E94270B43E0C501B40171
:104000000E94700B81E491E00AC081E591E00E947A
:10401000270B8CE491E00E94270B88E491E00E943A
:10402000270B43E0C301B2010E94700B87E092E0CE
:104030000E94BE0A33CF80916C0390916D03892B4F
:1040400009F454C0E0906803F090690363E570E000
:10405000C7010E943A2D009709F448C08C010E193F
:104060001F0917FD43C069E072E0CE0101960E946E
:10407000E211F12C0F5F1F4F80916C0390916D0343
:1040800008171907F0F4809168039091690300976D
:1040900029F0FC01E00FF11F608101C060E080EDBC
:1040A000860F8A3008F48AC16D3231F48D819E8189
:1040B000892B09F482C105C06E3219F4FF2009F47E
:1040C00082C189819A81009711F4912C0AC00E94C3
:1040D000DA256093460370934703809348039093D7
:1040E0004903CE0101960E94DD11292C222009F4FA
:1040F000D5CE60914603709147038091480390911B
:1041000049030E94BC0751E050933202C7CE43E0FE
:10411000E416F10409F047C06AE072E0CE010D96A2
:104120000E94E21118861F821A8619861C861B8639
:104130006091DE047091DF046115710541F04091DA
:10414000E2045091E304CE0107960E94A5111A8261
:1041500019821C821B821E821D826091E404709170
:10416000E5046115710541F04091E8045091E904BE
:10417000CE0101960E94A511AE01435F5F4FBE01C3
:10418000695F7F4FCE0101960E94480BCE010196D8
:104190000E94DD11CE0107960E94DD11CE010D9621
:1041A0000E94DD117BCE54E0E516F10409F00DCF3D
:1041B0000E94170B1A8219821C821B821E821D828A
:1041C00064E571E0CE0101960E947D11CE01019659
:1041D0000E94540CCE0101960E94DD110E94E7035B
:1041E0002B013C010E94E703DC01CB0184199509F6
:1041F000A609B709883B9B40A105B10598F398E053
:1042000088E10FB6F894A895809360000FBE909354
:1042100060000E94E7032B013C010E94E703DC01E0
:10422000CB0184199509A609B7094997A105B105DC
:10423000A0F334CE8FEFE81AF80A0A5F1F4F95E01B
:10424000E916F10409F03BCE41E050E060E070E097
:1042500088E693E00E94EA1027CE0E94170B009197
:10426000780310E00E94CE17000F111FF801E858E4
:10427000FC4F92838183809178038F5F8F3018F495
:10428000809378034FC0109278030E94AB164B01C5
:104290005C0120E030E048EB51E40E94EC282B0167
:1042A0003C0160932E0270932F0280933002909312
:1042B000310220E030E0A9010E94592A1816ACF41E
:1042C00020E030E040E952E4C301B2010E945929E4
:1042D0002AE939E949E15FE30E94D2279B01AC0159
:1042E000C501B4010E94ED2815C0C301B201905868
:1042F00020E030E04EE851E40E94592923E333E303
:1043000043E35FE30E94D2279B01AC01C501B401E6
:104310000E94EC28609304017093050180930601CC
:104320009093070120E030E040E05FE360910401FA
:104330007091050180910601909107010E94ED287E
:104340000E94CB29DC01CB0161E00E945A0C109144
:104350003202112309F444C0209104013091050177
:104360004091060150910701609100017091010197
:1043700080910201909103010E94EC282B013C01E5
:1043800020E030E0A9010E94592A18165CF420E0D0
:1043900030E040E05FE3C301B2010E946C2787FF79
:1043A0002DC01EC020E030E040E05FEBC301B20151
:1043B0000E94592A1816A4F021C06DE2CE01019680
:1043C0000E941C1157CE8D819E81892B09F479CED4
:1043D0006EE2CE0101960E941C11FF24F3944ACE96
:1043E0001092BB04111113C0E12CF12C00E81FE363
:1043F00020E030E0A901CA01B90129C081E0809321
:10440000BB048CED95E09093BD048093BC0420E048
:1044100030E048EB51E4609100017091010180911E
:104420000201909103010E946C27E12CF12C87017D
:1044300087FF07C020E030E040E85FE3C801B70134
:1044400006C0A801970160E070E080E89FE30E9449
:10445000E50C80912805882309F465C00E94F517B2
:10446000882309F460C080913202882309F443C094
:104470000E94E7030091290210912A0220912B0249
:1044800030912C02601771078207930740F4609304
:10449000290270932A0280932B0290932C020091A0
:1044A000290210912A0220912B0230912C0228011E
:1044B0003901E0ED4E0EE7E05E1E611C711C6415D3
:1044C00075058605970530F40E94701660E070E06F
:1044D000CB0127C00056104F2F4F3F4F6017710779
:1044E0008207930740F560E070E0CB010E943F0730
:1044F0000E94860618C020E030E04CE552E460914E
:1045000004017091050180910601909107010E94BC
:10451000592A1816CCF60E9486066DEC7CEC8CECC1
:104520009EE30E943F0780E090E0892B09F4A5CB31
:104530000E9400009DCB0E947107882329F060E053
:1045400070E080E89FE3D2CF6DEC7CEC8CEC9EE3D6
:10455000CDCFCF93DF938EE693E00E94DD1188E606
:1045600093E00E94DD118AE493E0892B51F48EEDF3
:1045700094E00E94DD1184EE94E0DF91CF910C94E1
:10458000DD11C2E6D3E0CE010E94DD11269783E063
:10459000C434D807C1F7EBCFAF92BF92CF92DF926E
:1045A000EF92FF920F931F93CF93DF931092AA0283
:1045B0001092A90288EE93E0A0E0B0E08093AB02F5
:1045C0009093AC02A093AD02B093AE0229EC31E01F
:1045D0003093A8022093A7022FEF3FEF3093B4024D
:1045E0002093B3021092FA021092F9028093FB0218
:1045F0009093FC02A093FD02B093FE028BED91E03C
:104600009093F8028093F7028AEE94E090930D0560
:1046100080930C0584E091E090930B0580930A054C
:1046200080E091E090930F0580930E05109228058D
:104630001092200510922105109222051092230558
:1046400080E090E0AFE7B3E48093240590932505E4
:10465000A0932605B093270584E690E0A0E0B0E0A3
:1046600080931C0590931D05A0931E05B0931F0514
:104670001092070510920605A12CB12CC12CD12C4B
:1046800076010EEA17E421EE3CE34CE55FE862ECCC
:104690007EE38EEE94E00E94CF050E94E703009136
:1046A0001C0510911D0520911E0530911F05DC0190
:1046B000CB01801B910BA20BB30B80931005909341
:1046C0001105A0931205B093130569E072E084EE22
:1046D00094E00E94E21169E072E08EED94E00E94A5
:1046E000E2118EE0EAE1F1E0ACE3B4E001900D927A
:1046F0008A95E1F787E0EAE4F4E0DF01982F1D9264
:104700009A95E9F7E8E2F1E0A1E5B4E001900D92B5
:104710008A95E1F7109258041092590410925A04A5
:1047200010925B0410925C0410925D0481E080930F
:104730005E0486E4EFE2F1E0AFE5B4E001900D92B3
:104740008A95E1F71092A6041092A5048CE99FEFD8
:104750009093A8048093A7049093AA048093A9043B
:1047600080E090E0A0E8BFE38093AB049093AC04BA
:10477000A093AD04B093AE048093AF049093B004C3
:10478000A093B104B093B2041092B3041092B40495
:104790001092B5041092B6048093B7049093B804B5
:1047A000A093B904B093BA041092BB048CED95E0C9
:1047B0009093BD048093BC0480E1E5E7F1E0AEEBAB
:1047C000B4E001900D928A95E1F780E1E5E7F1E030
:1047D000AEECB4E001900D928A95E1F780E480930D
:1047E000390487EF92E090933B0480933A0410924F
:1047F0002B0410922C0480E090E0AAE7B3E48093AD
:104800002D0490932E04A0932F04B09330041092A3
:104810003104109232041092330410923404109236
:104820003504109236041092370410923804109216
:10483000780388E8EBE9F3E0DF011D928A95E9F758
:1048400082EE93E090939C0380939B0388ED9FEF0F
:1048500090939E0380939D0387ED93E09093A00334
:1048600080939F038DED9FEF9093A2038093A1030C
:1048700088EC93E09093A4038093A30382EE9FEFD0
:104880009093A6038093A50386EB93E09093A803EF
:104890008093A70387EE9FEF9093AA038093A903C9
:1048A00080EA93E09093AC038093AB038CEE9FEF90
:1048B0009093AE038093AD0384E893E09093B003AC
:1048C0008093AF0381EF9FEF9093B2038093B10386
:1048D00081E693E09093B4038093B30386EF9FEF58
:1048E0009093B6038093B5038AE393E09093B80363
:1048F0008093B7038BEF9FEF9093BA038093B90334
:104900008DE093E09093BC038093BB038CED92E029
:104910009093C0038093BF0385E090E09093C2031F
:104920008093C10388EA92E09093C4038093C30309
:104930008AE090E09093C6038093C50380E792E0FD
:104940009093C8038093C7038FE090E09093CA03CD
:104950008093C90388E392E09093CC038093CB03C8
:1049600084E190E09093CE038093CD0380E092E0C9
:104970009093D0038093CF0389E190E09093D2038A
:104980008093D10389EC91E09093D4038093D30377
:104990008EE190E09093D6038093D50385E991E072
:1049A0009093D8038093D70383E290E09093DA0347
:1049B0008093D90385E691E09093DC038093DB0339
:1049C00088E290E09093DE038093DD0389E391E039
:1049D0009093E0038093DF038DE290E09093E203F5
:1049E0008093E10381E191E09093E4038093E303FA
:1049F00082E390E09093E6038093E5038DEE90E0F0
:104A00009093E8038093E70387E390E09093EA03B1
:104A10008093E9038EEC90E09093EC038093EB039A
:104A20008CE390E09093EE038093ED0383EB90E0B2
:104A30009093F0038093EF0381E490E09093F2036E
:104A40008093F1038BE990E09093F4038093F30358
:104A500086E490E09093F6038093F50386E890E077
:104A60009093F8038093F7038BE490E09093FA031C
:104A70008093F90384E790E09093FC038093FB0319
:104A800080E590E09093FE038093FD0385E690E03F
:104A9000909300048093FF0385E590E090930204D7
:104AA0008093010488E590E09093040480930304CC
:104AB0008AE590E090930604809305048DE490E0ED
:104AC00090930804809307048FE590E090930A0484
:104AD0008093090483E490E090930C0480930B048A
:104AE00084E690E090930E0480930D048CE290E0B5
:104AF0009093100480930F0483E790E09093120446
:104B00008093110486E290E0909314048093130440
:104B100088E790E0909316048093150482E290E079
:104B200090931804809317048DE790E090931A04F3
:104B300080931904C0924603D0924703E092480341
:104B4000F0924903C0E0D0E0269669E072E0CE0121
:104B50008C5B9C4F0E94E211CE31D105A9F769E030
:104B600072E088E693E00E94E21169E072E08EE66E
:104B700093E00E94E21180E2809374038DE08093C1
:104B800075038AE0809376031092770380E4E5E86A
:104B9000F1E0A3E0B3E001900D928A95E1F7DF9197
:104BA000CF911F910F91FF90EF90DF90CF90BF902A
:104BB000AF900895662777270C94EE25FB01DC0162
:104BC00005900D920020E1F70895FC01059000206A
:104BD000E9F7809590958E0F9F1F0895A0E0B0E0B3
:104BE000E4EFF5E20C94AA28EC017B016115710554
:104BF00019F0DB018D939C938E010F5F1F4F78801E
:104C0000872D90E00E944B27892B11F0E801F4CF0B
:104C1000BDE27B1205C00F5F1F4F7980C1E008C065
:104C2000EBE27E1204C08E010E5F1F4F7980C0E060
:104C30006801F1E0CF1AD10843E050E06EE071E086
:104C4000C6010E945427892BF1F4680122E0C20EAC
:104C5000D11C45E050E069E071E0C6010E94542794
:104C6000892B21F4680187E0C80ED11CE114F104FE
:104C700019F0D701CD92DC92C111FFC060E070E065
:104C800080E89FE703C143E050E066E071E0C601C1
:104C90000E945427892B51F4E114F10409F4F2C065
:104CA0000E5F1F4FF70111830083ECC0680160E0C5
:104CB00070E0CB0100E010E0F601D0EDD70DDA3066
:104CC00058F52C2F2260622E2C2F2870C2FF05C0B1
:104CD000211128C00F5F1F4F25C0222311F0015062
:104CE0001109A5E0B0E09B01AC010E949B284B019B
:104CF0005C01880C991CAA1CBB1CC501B4016D0F7A
:104D0000711D811D911D6839A9E97A078A07A9E1FA
:104D10009A0740F0C66005C0DE3F51F4C3FD44C0B1
:104D2000C8606C2EBFEFCB1ADB0A7080C62DC4CFD3
:104D30002D2F2F7D2531C1F540814D3211F4C061F9
:104D400006C04B3221F0319621E030E006C03296A9
:104D5000D60111964C9122E030E0A0EDA40FAA30CC
:104D600018F0E21BF30B20C040E050E04038BCE0FC
:104D70005B075CF49A01220F331F220F331F420F8F
:104D8000531F440F551F4A0F511D3196DF011197D4
:104D90002C91A0EDA20FAA3048F3C4FF03C0519597
:104DA00041955109040F151FC1FF07C0E114F1041B
:104DB00021F03197D701ED93FC930E947127C370C6
:104DC000C33019F06B017C0106C06B017C01F7FA5E
:104DD000F094F7F8F09420E030E0A901C701B601A3
:104DE0000E946C27882309F445C017FF06C011955F
:104DF00001951109C5E2D1E002C0CDE3D1E05E0129
:104E0000B8E1AB1AB1084601BE2DAF2D90E2E92EF4
:104E1000F12C0E151F0584F0FE0125913591459169
:104E20005491B4018B2F9A2F0E94D2274B01B82F97
:104E3000A92F0E191F09EDCF2497F594E794CA15F1
:104E4000DB0539F76401EB2EFA2E8E2D880F8F2D9E
:104E5000881F8F3F49F020E030E0A901C701B6016B
:104E60000E946C27811106C082E290E09093870532
:104E700080938605C701B60109C060E070E080E854
:104E80009FEF04C060E070E080EC9FE7CDB7DEB735
:104E9000EEE00C94C62891110C943F28803219F052
:104EA00089508550C8F70895FB01DC0141505040FE
:104EB00088F08D9181341CF08B350CF4805E659107
:104EC00061341CF06B350CF4605E861B611171F36C
:104ED000990B0895881BFCCF0E94AE2708F481E04F
:104EE0000895E89409C097FB3EF4909580957095DD
:104EF00061957F4F8F4F9F4F9923A9F0F92F96E926
:104F0000BB279395F695879577956795B795F1119A
:104F1000F8CFFAF4BB0F11F460FF1BC06F5F7F4F37
:104F20008F4F9F4F16C0882311F096E911C0772349
:104F300021F09EE8872F762F05C0662371F096E852
:104F4000862F70E060E02AF09A95660F771F881F21
:104F5000DAF7880F9695879597F90895990F0008C5
:104F6000550FAA0BE0E8FEEF16161706E807F9073B
:104F7000C0F012161306E407F50798F0621B730BD6
:104F8000840B950B39F40A2661F0232B242B252B57
:104F900021F408950A2609F4A140A6958FEF811DFA
:104FA000811D08950E94E5270C9459280E944B28E2
:104FB00038F00E94522820F0952311F00C944228DA
:104FC0000C94482811240C948D280E946A2870F3B0
:104FD000959FC1F3950F50E0551F629FF001729F9E
:104FE000BB27F00DB11D639FAA27F00DB11DAA1FAD
:104FF000649F6627B00DA11D661F829F2227B00DFA
:10500000A11D621F739FB00DA11D621F839FA00D84
:10501000611D221F749F3327A00D611D231F849FD4
:10502000600D211D822F762F6A2F11249F5750402B
:105030009AF0F1F088234AF0EE0FFF1FBB1F661FA6
:10504000771F881F91505040A9F79E3F510580F06F
:105050000C9442280C948D285F3FE4F3983ED4F3DF
:10506000869577956795B795F795E7959F5FC1F713
:10507000FE2B880F911D9695879597F9089599278E
:105080008827089597F99F6780E870E060E00895A9
:105090009FEF80EC089500240A9416161706180650
:1050A0000906089500240A9412161306140605062C
:1050B0000895092E0394000C11F4882352F0BB0FBD
:1050C00040F4BF2B11F460FF04C06F5F7F4F8F4F20
:1050D0009F4F089557FD9058440F551F59F05F3F5B
:1050E00071F04795880F97FB991F61F09F3F79F00A
:1050F00087950895121613061406551FF2CF46958C
:10510000F1DF08C0161617061806991FF1CF86950D
:105110007105610508940895E894BB2766277727F1
:10512000CB0197F90895F999FECF92BD81BDF89A08
:10513000992780B508950E94DD28A59F900DB49F02
:10514000900DA49F800D911D112408952F923F92E0
:105150004F925F926F927F928F929F92AF92BF9287
:10516000CF92DF92EF92FF920F931F93CF93DF9333
:10517000CDB7DEB7CA1BDB0B0FB6F894DEBF0FBE90
:10518000CDBF09942A88398848885F846E847D84DD
:105190008C849B84AA84B984C884DF80EE80FD80DF
:1051A0000C811B81AA81B981CE0FD11D0FB6F89455
:1051B000DEBF0FBECDBFED010895A29FB001B39F2A
:1051C000C001A39F700D811D1124911DB29F700D10
:1051D000811D1124911D08955058BB27AA270E94B4
:1051E00004290C9459280E944B2838F00E94522818
:1051F00020F039F49F3F19F426F40C9448280EF45B
:10520000E095E7FB0C944228E92F0E946A2858F3A6
:10521000BA17620773078407950720F079F4A6F59B
:105220000C948C280EF4E0950B2EBA2FA02D0B01B8
:10523000B90190010C01CA01A0011124FF27591BDB
:1052400099F0593F50F4503E68F11A16F040A22FE1
:10525000232F342F4427585FF3CF46953795279552
:10526000A795F0405395C9F77EF41F16BA0B620B51
:10527000730B840BBAF09150A1F0FF0FBB1F661F98
:10528000771F881FC2F70EC0BA0F621F731F841FDB
:1052900048F4879577956795B795F7959E3F08F001
:1052A000B0CF9395880F08F09927EE0F97958795C3
:1052B00008950E946D290C9459280E94522858F094
:1052C0000E944B2840F029F45F3F29F00C944228BB
:1052D00051110C948D280C9448280E946A2868F378
:1052E0009923B1F3552391F3951B550BBB27AA279F
:1052F00062177307840738F09F5F5F4F220F331FD9
:10530000441FAA1FA9F335D00E2E3AF0E0E832D0A0
:1053100091505040E695001CCAF72BD0FE2F29D0A3
:10532000660F771F881FBB1F261737074807AB0775
:10533000B0E809F0BB0B802DBF01FF2793585F4FEA
:105340003AF09E3F510578F00C9442280C948D2839
:105350005F3FE4F3983ED4F3869577956795B795CC
:10536000F7959F5FC9F7880F911D9695879597F9D7
:105370000895E1E0660F771F881FBB1F6217730750
:105380008407BA0720F0621B730B840BBA0BEE1F65
:1053900088F7E09508950E94D2296894B1110C9481
:1053A0008D2808950E94722888F09F5798F0B92F91
:1053B0009927B751B0F0E1F0660F771F881F991F4A
:1053C0001AF0BA95C9F714C0B13091F00E948C2838
:1053D000B1E008950C948C28672F782F8827B85F48
:1053E00039F0B93FCCF3869577956795B395D9F7A2
:1053F0003EF490958095709561957F4F8F4F9F4FAC
:1054000008950E94412A90F09F3748F4911116F0B8
:105410000C948D2860E070E080E89FEB089526F4FE
:105420001B16611D711D811D0C94182A0C94332AC2
:10543000882371F4772321F09850872B762F07C0AB
:10544000662311F499270DC09051862B70E060E01F
:105450002AF09A95660F771F881FDAF7880F9695BE
:10546000879597F908959F3F31F0915020F48795E3
:1054700077956795B795880F911D9695879597F9BC
:1054800008950E947228A0F0BEE7B91788F4BB27E0
:105490009F3860F41616B11D672F782F8827985F04
:1054A000F7CF869577956795B11D93959639C8F393
:1054B00008950E94AE2708F48FEF08959F930E94ED
:1054C0006D2A0F9007FCEE5F0C94962A0E94AE277F
:1054D000880B990B08950C9448280E947228D8F3E1
:1054E000E894E0E0BB279F57F0F02AED3FE049EC5D
:1054F00006C0EE0FBB0F661F771F881F28F0B23A59
:1055000062077307840728F0B25A620B730B840B8F
:10551000E3959A9572F7803830F49A95BB0F661F21
:10552000771F881FD2F790480C94352AEF93E0FF3D
:1055300007C0A2EA2AED3FE049EC5FEB0E94042994
:105540000E9459280F90039401FC9058E8EEF0E077
:105550000C94AA2A9F938F937F936F93FF93EF935B
:105560009B01AC010E94D227EF91FF910E94BE2ABD
:105570002F913F914F915F910C94D227DF93CF935E
:105580001F930F93FF92EF92DF927B018C0168943F
:1055900006C0DA2EEF010E94E527FE01E894A591EE
:1055A0002591359145915591A6F3EF010E9404296B
:1055B000FE019701A801DA9469F7DF90EF90FF9060
:1055C0000F911F91CF91DF91089597FB072E16F44D
:1055D000009407D077FD09D00E94212B07FC05D04D
:1055E0003EF4909581959F4F0895709561957F4FFA
:1055F0000895A1E21A2EAA1BBB1BFD010DC0AA1F14
:10560000BB1FEE1FFF1FA217B307E407F50720F02B
:10561000A21BB30BE40BF50B661F771F881F991FA6
:105620001A9469F760957095809590959B01AC01EF
:10563000BD01CF010895EE0FFF1F0590F491E02DFD
:105640000994AA1BBB1B51E107C0AA1FBB1FA617C9
:10565000B70710F0A61BB70B881F991F5A95A9F71B
:1056600080959095BC01CD010895CF93DF93823052
:10567000910510F482E090E0E0918A05F0918B05AD
:1056800020E030E0C0E0D0E0309711F1408151815E
:1056900048175907C0F04817590761F48281938170
:1056A000209719F09B838A832BC090938B0580935E
:1056B0008A0526C02115310519F04217530718F441
:1056C0009A01BE01DF01EF010280F381E02DDCCF02
:1056D0002115310509F1281B390B2430310590F4CF
:1056E00012968D919C9113976115710521F0FB0124
:1056F0009383828304C090938B0580938A05FD0178
:10570000329644C0FD01E20FF31F81939193225022
:1057100031092D933C933AC0209188053091890539
:10572000232B41F420911601309117013093890504
:105730002093880520911401309115012115310520
:1057400041F42DB73EB74091180150911901241B27
:10575000350BE0918805F0918905E217F307A0F475
:105760002E1B3F0B2817390778F0AC014E5F5F4FB7
:105770002417350748F04E0F5F1F5093890540935B
:1057800088058193919302C0E0E0F0E0CF01DF91C2
:10579000CF9108950F931F93CF93DF93009709F450
:1057A0008CC0FC0132971382128200918A051091FD
:1057B0008B050115110581F420813181820F931F22
:1057C00020918805309189052817390779F5F093DC
:1057D0008905E093880571C0D80140E050E0AE171C
:1057E000BF0750F412962D913C911397AD012115EE
:1057F000310509F1D901F3CF9D01DA013383228309
:1058000060817181860F971F8217930769F4EC01FD
:1058100028813981260F371F2E5F3F4F3183208328
:105820008A819B8193838283452B29F4F0938B0596
:10583000E0938A0542C01396FC93EE931297ED0114
:10584000499159919E01240F351FE217F30771F416
:1058500080819181840F951F029611969C938E935F
:105860008281938113969C938E931297E0E0F0E0EF
:10587000D80112968D919C911397009719F0F80119
:105880008C01F6CF8D919C9198012E5F3F4F820F36
:10589000931F20918805309189052817390769F4ED
:1058A000309729F410928B0510928A0502C013825A
:1058B00012821093890500938805DF91CF911F9183
:1058C0000F910895A0E0B0E0E8E6FCE20C94AA286D
:1058D000EC01009721F4CB010E94352BB8C0FC01EC
:1058E000E60FF71F9C0122503109E217F30708F475
:1058F000ACC0D9010D911C91119706171707B0F094
:105900000530110508F49FC0C80104978617970752
:1059100008F499C002501109061B170B019311934B
:105920006D937C93CF010E94CA2B8DC05B01A01A9E
:10593000B10A4C01800E911EA0918A05B0918B0591
:1059400040E050E0E12CF12C109709F44AC0A81572
:10595000B905D1F56D907C901197630182E0C80E76
:10596000D11CCA14DB0480F1A3014A195B096A0146
:1059700082E0C80ED11C1296BC9012971396AC917F
:10598000B5E0CB16D10440F0B282A38351834083AB
:10599000D9016D937C930AC00E5F1F4FC301800F26
:1059A000911FF90191838083EB2DFA2FE114F1040B
:1059B00031F0D7011396FC93EE93129744C0F09305
:1059C0008B05E0938A053FC08D919C9111974817F4
:1059D000590708F4AC017D0112960D90BC91A02DE1
:1059E000B3CF809188059091890588159905E1F4D8
:1059F00046175707C8F4809114019091150100973C
:105A000041F48DB79EB74091180150911901841B44
:105A1000950BE817F907C8F4F0938905E09388051A
:105A2000F901718360830FC0CB010E94352B7C018B
:105A3000009759F0A801BE010E94312DCE010E94AD
:105A4000CA2BC70104C0CE0102C080E090E0CDB7F0
:105A5000DEB7EEE00C94C62881E090E0F8940C9458
:105A6000642DFB01DC0102C001900D9241505040B9
:105A7000D8F70895FC018191861721F08823D9F782
:105A8000992708953197CF010895FB01DC018D918D
:105A9000019080190110D9F3990B0895FB01DC01E5
:105AA00001900D920020E1F70895FB01DC014150C7
:105AB000504048F001900D920020C9F701C01D929E
:105AC00041505040E0F7089511E0C7E8D1E004C02C
:105AD000FE010E941B2B2196C838D107C9F7F89404
:025AE000FFCFF6
