:100000000C9488010C94B0010C94B0010C94B001D4
:100010000C94B0010C94B0010C94B0010C94B0019C
:100020000C94B0010C94B0010C94ED040C945605A2
:100030000C94B0010C94B0010C94B0010C94B0017C
:100040000C94B0010C94B0010C94B0010C94B0016C
:100050000C94B0010C94B0010C94B0010C94BF0945
:100060000C94B0010C94B0010C94B0010C94B0014C
:100070000C94B0010C94B0010C94B0010C94B0013C
:100080000C94B0010C94B0010C94B0010C94B0012C
:100090000C94090A0C94B0010C94B0010C94B001BA
:1000A0000C94B0010C94B0010C94B001C307C607C6
:1000B000B507B907BD07E707E707E707CA07CE0790
:1000C000D207D807DC07E707E20708090D0912097C
:1000D0001C09260970097009700930093A09440998
:1000E0004E095B097009630905A84CCDB2D44EB91D
:1000F0003836A9020C50B9918688083CA6AAAA2ACB
:10010000BE000000803F4E414E494E495459494E71
:1001100046CDCCCC3D0AD7233C17B7D13877CC2B72
:10012000329595E6241FB14F0A000020410000C817
:100130004200401C4620BCBE4CCA1B0E5AAEC59D98
:100140007420433A00543A0020433A006E6F6E65C3
:1001500000543A0052657374617274696E6720616D
:100160006E6420656E746572696E6720626F6F746D
:100170006C6F616465722E2E2E0000000002000973
:100180000F0000030401000C0000080B0002020233
:100190000100090400000102020000052400100112
:1001A00005240101010424020605240600010705B7
:1001B000810310004009040100020A000000070545
:1001C0000202400000070583024000000403090406
:1001D00012010002EF020140D80493EE0001010277
:1001E00003014D6963726F636869702054656368C9
:1001F0006E6F6C6F677920496E63004F70656E7427
:10020000726F6E732054656D704465636B0054614A
:10021000726765742074656D70657261747572655E
:1002200020746F6F20686967682C20736574746927
:100230006E6720746F2054454D50455241545552BD
:10024000455F4D4158206465677265657300546170
:10025000726765742074656D70657261747572651E
:1002600020746F6F206C6F772C2073657474696EC7
:100270006720746F2054454D5045524154555245A6
:100280005F4D494E2064656772656573000000002C
:1002900000250028002B002E003100000000002463
:1002A0000027002A002D0030000404040404030485
:1002B0000502020202040302020202060606060604
:1002C00006040402020204040802011040804010E7
:1002D000204080408008020401804020100201106C
:1002E00080102040402076657273696F6E3A00205E
:1002F0006D6F64656C3A0073657269616C3A0007F2
:100300000605040100080A0B0C0D0900A523822331
:1003100011241FBECFEFDAE0DEBFCDBF25E0ACE297
:10032000B2E001C01D92AC39B207E1F712E0A0E0E3
:10033000B1E0E8ECFCE502C005900D92AC32B107EB
:10034000D9F711E0C7E8D1E004C02197FE010E946F
:10035000F42BC638D107C9F70E94ED190C94572E1B
:100360000C940000409145025091460220914302B6
:100370003091440242175307B4F49091E80095700D
:10038000E1F39091E80092FD19C08093F100809113
:1003900045029091460201968F739927892B19F493
:1003A0008EEF8093E800809145029091460201967D
:1003B000909346028093450281E0089580E008957D
:1003C000CF92DF92EF92FF920F931F93CF93DF9321
:1003D0001F92CDB7DEB7182F062FE42E862F880F79
:1003E0008E5F99830E94B20183E00E94B201F12ED8
:1003F000C12E9981D92E8C2D8F19801798F4F60172
:10040000E7FE02C0849101C080810E94B201182FD2
:1004100080E00E94B2018123FFEFCF1ADF0A811131
:10042000EACF01C081E00F90DF91CF911F910F9132
:10043000FF90EF90DF90CF900895DF92EF92FF92C0
:100440000F931F93CF93DF93D82E8A017B01E40E85
:10045000F51EEB01CE15DF0571F0D7FE03C0FE01DE
:10046000849101C088810E94B20121968111F2CF4E
:100470008FEF9FEF01C0C801DF91CF911F910F91C6
:10048000FF90EF90DF900895CF92DF92EF92FF926E
:100490000F931F93CF93DF936C017A018B01C0E020
:1004A000D0E0CE15DF0589F0D8016D918D01D60120
:1004B000ED91FC910190F081E02DC6010995892B09
:1004C00011F47E0102C02196ECCFC701DF91CF91DC
:1004D0001F910F91FF90EF90DF90CF900895CF93F1
:1004E000DF931F92CDB7DEB76983DC01ED91FC91FC
:1004F0000280F381E02D41E050E0BE016F5F7F4F4D
:1005000009950F90DF91CF91089583E08093E900E2
:100510008091F200882319F08AE38093E80008951F
:10052000FC018485958597FD0BC09FB7F89482E008
:100530008093E9008091F2009FBF90E001960895BA
:100540009FB7F89482E08093E9008091F2009FBF0A
:1005500090E008950E94052E0F931F93CF93DF9391
:10056000EC0188819981009729F02A813B81261727
:10057000370788F48B016F5F7F4F0E943B2D0097F8
:1005800061F0998388831B830A832C813D81232B0F
:1005900011F4FC01108281E001C080E0DF91CF9175
:1005A0001F910F910895CF93DF93EC01888199817A
:1005B000009711F00E94A32C198218821D821C82C0
:1005C0001B821A82DF91CF9108950F931F93CF93CF
:1005D000DF931F92CDB7DEB782E0898342E450E01B
:1005E0006AE871E080E80E941D020E94D919DC01CE
:1005F00012960D911C9113970115110569F0D80100
:10060000ED91FC910280F381E02DBE016F5F7F4F81
:10061000C801099597FF07C089810F90DF91CF919D
:100620001F910F910895F80100851185E5CF8F92F4
:100630009F92AF92BF92CF92DF92EF92FF920F9371
:100640001F93CF93DF935C016B017A0180910F01BF
:10065000882309F459C080914005882309F454C0C7
:1006600080912D0280FF05C08091E0008260809320
:10067000E000E70110E00AEF83E0882E9AE3992E6C
:100680002097D1F10E94C819811109C00150E1F1F0
:1006900061E070E080E090E00E947909F1CF282FBE
:1006A00030E0C217D3070CF48C2F4FB7F894809228
:1006B000E9009091E80095FF1DC0282F30E0C21B93
:1006C000D30BF601982F915020F081918093F10087
:1006D000FACFC20ED31E112319F09092E80009C080
:1006E0008091E80085FD06C09092E80011E0209717
:1006F00009F010E04FBFC4CF1111C4CF84E680933E
:1007000047021E141F0444F081E090E0F50193833A
:10071000828380E090E001C0C701DF91CF911F91FB
:100720000F91FF90EF90DF90CF90BF90AF909F9090
:100730008F9008950E94C81990E00895CF93DF9399
:100740001F92CDB7DEB7FC018485958597FD05C066
:100750002FEF3FEF358724870BC0CE0101960E9413
:100760009F19019719F4898190E002C08FEF9FEFE4
:100770000F90DF91CF9108950F931F93CF93DF9345
:100780001F92CDB7DEB78C01FC018485958597FF5C
:100790000EC0CE0101960E949F19019719F429817C
:1007A00030E002C02FEF3FEFF80135872487F801D2
:1007B000848595850F90DF91CF911F910F910895BA
:1007C000CF93DF93DC011496ED91FC9115976E1792
:1007D0007F0728F54115510511F19F01261B370BA5
:1007E0004217530708F49A01DB01EC0188819981D3
:1007F000E21BF30BFD83EC83AF01461B570B260F67
:10080000371FBC01620F731F8A0F9B1F0E942E2E81
:10081000E881F9818C819D81E80FF91F1082DF91B9
:10082000CF910895EF92FF920F931F93CF93DF9391
:1008300000D0CDB7DEB78C0169831A82FC01E48059
:10084000F580FFEFEF1AFF0AB7010E94AC02882380
:1008500081F0F8012081318184819581BE016F5F33
:100860007F4F820F931F0E94272EF801F582E482AA
:1008700081E00F900F90DF91CF911F910F91FF902A
:10088000EF900895EF92FF920F931F93CF93DF9312
:10089000FB0124813581E080F180FC010481158118
:1008A000E114F10411F480E017C02115310599F02D
:1008B000EC01020F131FB8010E94AC02882399F3C8
:1008C000288139818C819D81B701820F931F0E94FD
:1008D000272E1D830C8381E0DF91CF911F910F9113
:1008E000FF90EF900895EF92FF920F931F93CF9395
:1008F000DF93EC018B016115710551F0CB010E9472
:10090000BE267C01BC01CE010E94AC02811104C054
:10091000CE010E94D30207C0FD82EC82B80188811B
:1009200099810E94B726CE01DF91CF911F910F913F
:10093000FF90EF900895EF92FF920F931F93CF9344
:10094000DF93EC017B018A01BA010E94AC028111A4
:1009500004C0CE010E94D30207C01D830C83B701DF
:10096000888199810E94272ECE01DF91CF911F911E
:100970000F91FF90EF900895CF93DF93EC016115F5
:10098000710559F0FB0101900020E9F73197AF01A3
:10099000461B570B0E949B0402C00E94D302CE014B
:1009A000DF91CF910895FC01808191810C94A32C5B
:1009B000FC01118210821382128215821482611549
:1009C000710551F0FB0101900020E9F73197AF016B
:1009D000461B570B0C949B0408951F920F920FB661
:1009E0000F9211248F939F938091E1009091E100E9
:1009F000937F9093E10083FF0FC01092E90091E094
:100A00009093EB001092EC0092E39093ED00109223
:100A1000400598E09093F00082FF1CC093E0909313
:100A2000E9009091F200992319F09AE39093E8007D
:100A300090914702992329F0909147029150909309
:100A4000470290913F05992329F090913F059150DD
:100A500090933F0584FF10C08091E2008E7E8160FC
:100A60008093E2008091E1008F7E8093E10080918D
:100A70002D028E7E806111C080FF11C08091E20046
:100A80008E7E80618093E2008091E1008E7E809373
:100A9000E10080912D028E7E816080932D029F91D6
:100AA0008F910F900FBE0F901F9018951F920F926D
:100AB0000FB60F921124CF92DF92EF92FF920F9315
:100AC0001F932F933F934F935F936F937F938F93D6
:100AD0009F93AF93BF93EF93FF93CF93DF93CDB7E4
:100AE000DEB76C97DEBFCDBF1092E9008091E800C1
:100AF00083FFFFC1FE017596DE2ECF2E88E08E0F9C
:100B00008E1729F09091F10090833196F9CF84E609
:100B100080933F0582EF8093E8008D8987FF05C0B1
:100B20009091E80090FFFCCF03C09EEF9093E80007
:100B3000982F907609F0C5C09E892F89188D911144
:100B40000CC0803829F480912E028093F10002C0FD
:100B50001092F1001092F1004FC1422F50E0512B42
:100B6000913051F4811148C14130510509F044C11F
:100B700080912E028D7F0BC0933061F481113CC1B6
:100B80004130510509F038C180912E028260809376
:100B90002E0232C1953041F48091E80080FFFCCFF5
:100BA00020682093E30028C1963009F05EC0EB8CEA
:100BB000FC8C1092E900109246021092450212300D
:100BC00091F510924402109243020E94E50299E0CE
:100BD000BE016F5F7F4FDB01E92F1D92EA95E9F7B8
:100BE00099831A8391E09E8390EA98879AEF998778
:100BF0002091450230914602275F3F4F3C832B8373
:100C00008D831092E9001092460210924502F092F4
:100C10004402E092430249E050E080E00E941D025D
:100C20000E94E502E9C0F0924402E09243020E9471
:100C3000D919DC011296ED90FC901397E114F104A0
:100C400009F4C7C0D701ED91FC910480F581E02D36
:100C50006D2D7C2DC7010995009719F00CF0CCC0C3
:100C6000CFC0F701E084F184E9CF973009F4C8C020
:100C7000983021F481E08093F100BEC0993009F0F2
:100C8000BBC0837009F0BCC0EFE1F1E081E021E07E
:100C900036E39081992361F08093E9002093EB0083
:100CA00091919093EC003093ED008F5F873089F73E
:100CB0008EE78093EA001092EA008F8980934005C6
:100CC0009BC08B8D9C8D1092E90010924602109271
:100CD00045029093440280934302898D81115FC045
:100CE0008E899D89913A59F4813209F089C047E093
:100CF00050E068E071E080E00E941D027DC091320A
:100D000009F07EC0833289F4888D90E0982F88277F
:100D10002F89822BA0E0B0E080930401909305011D
:100D2000A0930601B093070167C08032B1F48091AF
:100D3000E80082FFFCCFE8E0F1E087E08E0F8E173D
:100D400029F09091F10090833196F9CF84E6809359
:100D50003F058BEF8093E80006C0823209F04CC05B
:100D60008F8980930F0180912C02882319F0EEEF78
:100D7000FAE002C0E0E0F8E08091080190910901FA
:100D8000A0910A01B0910B01803B9440A105B105EF
:100D900009F07AC080910F0180FF92C075C00E9457
:100DA000D919DC0112960D911C91139701151105AB
:100DB00039F1D801ED91FC910190F081E02D6D2D7C
:100DC0007C2DC8010995811117C0F8010085118596
:100DD000EDCF113009F44EC0133091F48F89882380
:100DE00009F445C0823081F440E862E18BEF91E084
:100DF0000E94E001882321F08EEF8093E80079C003
:100E000081E28093EB0075C0813029F440E868E10D
:100E100082EE91E0EDCF833099F70E94D919DC0181
:100E20001296ED90FC9013978E010F5F1F4F680193
:100E3000E114F10479F0D701ED91FC910680F7817E
:100E4000E02DB801C7010995080F111DF701E084D5
:100E5000F184EECFD8011C92F60101900020E9F751
:100E60003197BF016C197D0940E0C601C1CF6CEC20
:100E700071E002C060ED71E06115710509F2FB01DE
:100E8000449150E080E838CF0FB6F894A89580914F
:100E90006000886180936000109260000FBEA8958A
:100EA000EE3F2AE0F20739F08091FE0A9091FF0AA6
:100EB00091838083A1CF1092FF0A1092FE0A9CCFEB
:100EC000EE3F8AE0F80731F0808191819093FF0A2C
:100ED0008093FE0A87E797E7918380839BE088E110
:100EE0000FB6F894A895809360000FBE90936000B1
:100EF00083CF6C960FB6F894DEBF0FBECDBFDF91E7
:100F0000CF91FF91EF91BF91AF919F918F917F9181
:100F10006F915F914F913F912F911F910F91FF9092
:100F2000EF90DF90CF900F900FBE0F901F9018950D
:100F3000362F90E0FC01E658FE4F4491FC01E95346
:100F4000FD4F2491FC01E755FD4F8491882309F45E
:100F500051C04423E1F150E0FA013197EF30F1053F
:100F6000B0F5EA5AFF4F0C94F42B909180009F77D4
:100F700007C0909180009F7D03C090918000977F73
:100F80009093800024C094B59F7702C094B59F7D54
:100F900094BD1DC0909190009F7707C090919000E4
:100FA0009F7D03C090919000977F909390000FC019
:100FB0009091C0009F7703C09091C0009F7D909357
:100FC000C00005C09091C200977F9093C200E82FA7
:100FD000F0E0EE0FFF1FE357FD4FA591B4918FB7DF
:100FE000F894EC91311103C020952E2301C02E2BD3
:100FF0002C938FBF08953FB7F8948091B4029091DD
:10100000B502A091B602B091B70226B5A89B05C063
:101010002F3F19F00196A11DB11D3FBFBA2FA92F77
:10102000982F8827820F911DA11DB11DBC01CD01F4
:1010300042E0660F771F881F991F4A95D1F70895E0
:1010400085ED8093BC008091BC0084FDFCCF1092A4
:101050006705089540918A02262F30E0240F311D44
:1010600021323105DCF4209167052430C9F4FC01FC
:1010700080E090E0861758F430918A022191DC01DB
:10108000A859BD4FA30FB11D2C930196F3CF8091AA
:101090008A02680F60938A0280E0089581E00895D3
:1010A00082E008950895E091690580916805E81748
:1010B00030F4F0E0E659FA4F808190E008958FEF28
:1010C0009FEF08959091690580916805981750F4F5
:1010D000E92FF0E0E659FA4F208130E09F5F9093CE
:1010E000690502C02FEF3FEFC9010895809168059F
:1010F00090E020916905821B91090895CF92DF92BB
:10110000EF92FF920F931F93CF93DF937C01262FD3
:10111000972F8A018091BB02882391F0C62FD72F89
:101120006E01C40ED51ECC15DD0571F06991D70195
:10113000ED91FC910190F081E02DC7010995F3CF6D
:10114000642F822F0E942A08C801DF91CF911F913E
:101150000F91FF90EF90DF90CF900895CF93DF93A2
:101160001F92CDB7DEB769832091BB022223D1F055
:101170002091B802203240F021E030E0FC013383BE
:10118000228380E090E015C08091B902E82FF0E062
:10119000E85BFD4F998190838F5F8093B9028093C4
:1011A000B80205C061E0CE0101960E942A0881E0E4
:1011B00090E00F90DF91CF910895089580E090E046
:1011C000089508951F93CF93DF93182FEB010E948A
:1011D000C112209711F460E004C0CF3FD10539F46B
:1011E00061E0812FDF91CF911F910C949807E12F3F
:1011F000F0E0E658FE4FE4914E2F50E0FA013197AF
:10120000EF30F10508F06CC0EB59FF4F0C94F42B54
:1012100084B5806884BDC7BD68C084B5806284BD64
:10122000C8BD63C080918000806880938000D093A7
:101230008900C093880059C08091800080628093AB
:101240008000D0938B00C0938A004FC080918000B3
:10125000886080938000D0938D00C0938C0045C03F
:1012600080919000806880939000D0939900C09303
:1012700098003BC080919000806280939000D09352
:101280009B00C0939A0031C0809190008860809349
:101290009000D0939D00C0939C0027C08091C00017
:1012A00080688093C0008091C0008F7B8093C000D5
:1012B000C093CF001AC08091C00080628093C000AC
:1012C000C093D00012C08091C20088608093C20099
:1012D0008091C2008B7F8093C200C093D20005C072
:1012E000C038D1050CF07CCF76CFDF91CF911F9124
:1012F00008958F929F92AF92BF92CF92DF92EF921A
:10130000FF926B017C010E94FB074B015C01C11441
:10131000D104E104F104F1F00E94FB07DC01CB01F0
:1013200088199909AA09BB09883E9340A105B1050E
:1013300070F321E0C21AD108E108F10888EE880EA6
:1013400083E0981EA11CB11CC114D104E104F10476
:1013500019F7DDCFFF90EF90DF90CF90BF90AF9067
:101360009F908F9008952FB7F8946091B00270917C
:10137000B1028091B2029091B3022FBF08951F92E3
:101380000F920FB60F9211242F933F938F939F9339
:10139000AF93BF938091B0029091B102A091B2023D
:1013A000B091B3023091AF0223E0230F2D3720F428
:1013B0000196A11DB11D05C026E8230F0296A11DAF
:1013C000B11D2093AF028093B0029093B102A0931D
:1013D000B202B093B3028091B4029091B502A09191
:1013E000B602B091B7020196A11DB11D8093B4025F
:1013F0009093B502A093B602B093B702BF91AF919C
:101400009F918F913F912F910F900FBE0F901F9042
:1014100018951F920F920FB60F9211242F933F939E
:101420004F935F936F937F938F939F93AF93BF93EC
:10143000EF93FF938091B900887F803609F49CC0B8
:1014400068F5883209F45BC090F4803109F454C027
:1014500038F4882309F4F6C0883009F44DC0F6C08A
:10146000883109F44CC0803209F45DC0EFC080348B
:1014700009F468C048F4803309F455C0883309F092
:10148000E5C080936505D8C0803509F44FC0883524
:1014900009F45DC0883409F0D9C0D6C0883909F490
:1014A000C7C0A8F4883709F467C038F4883609F44F
:1014B00063C0803709F460C0C9C0883809F4B8C077
:1014C000803909F45FC0803809F0C0C05BC0803B40
:1014D00009F486C038F4803A09F466C0883A09F401
:1014E0007FC0B4C0803C09F4A7C0883C09F4A4C004
:1014F000883B09F48AC0AAC08091620510C090910F
:10150000640580916305981770F5E091640581E0AA
:101510008E0F80936405F0E0EF5BFA4F808180933B
:10152000BB0085EC86C0809365058EC0E0916405A4
:1015300081E08E0F809364058091BB00F0E0EF5B4B
:10154000FA4F808390916405809163056EC0E091AD
:10155000640581E08E0F809364058091BB00F0E00C
:10156000EF5BFA4F80838091660581116DC081E049
:101570008093610584EA61C083E0809367051092DF
:10158000AE02CFCF8091AE02803208F051C0E09120
:10159000AE0281E08E0F8093AE028091BB00F0E03E
:1015A000E257FD4F8083BDCF85EC8093BC00109245
:1015B00067058091AE02803230F4E091AE02F0E037
:1015C000E257FD4F10826091AE0270E0E0918C0214
:1015D000F0918D028EE892E009951092AE0236C02D
:1015E00084E08093670510928B0210928A02E0914A
:1015F0008802F0918902099580918A02811105C0C3
:1016000081E080938A0210926802E0918B0281E06F
:101610008E0F80938B02F0E0E859FD4F808180931C
:10162000BB0090918B0280918A02981708F479CFC1
:1016300085E88093BC000AC085EC8093BC001092C2
:10164000670504C0109265050E942008FF91EF9184
:10165000BF91AF919F918F917F916F915F914F91CA
:101660003F912F910F900FBE0F901F9018952091D2
:10167000B8029091BA02213208F04AC08091670501
:101680008111FCCF32E03093670531E0309366057D
:101690003FEF309365051092640520936305A8E43D
:1016A000B2E041E455E0FA013E2F341B321718F442
:1016B0003D913193F9CF1092620520916205990F07
:1016C000922B9093620590916105913061F4109294
:1016D0006105909162059093BB009091BC0093FDD1
:1016E000F8CF95EC01C095EE9093BC009091670502
:1016F0009230E1F3909165059F3F79F08091650507
:10170000803241F080916505803331F084E005C07E
:1017100081E003C082E001C083E01092B902109220
:10172000B8021092BB020895DC01ED91FC9101908A
:10173000F081E02D09942F923F924F925F926F9229
:101740007F928F929F92AF92BF92CF92DF92EF9251
:10175000FF920F931F93CF93DF93CDB7DEB72897F8
:101760000FB6F894DEBF0FBECDBF1C012A013B01AE
:1017700009831A832B833C83DC015B96BC92AE9277
:101780005A9781E0AA94AB2809F080E0F10183AF79
:10179000408251826282738289819A81AB81BC814D
:1017A00084839583A683B783C086D186E286F38639
:1017B00066A577A580A991A90E944A2820E030E07B
:1017C0004AE754E40E94322A6D837E838F83988790
:1017D000F10144865586668677869B01AC01698156
:1017E0007A818B819C810E94AB284B015C01D101E5
:1017F00050966D937D938D939C9353972D813E814D
:101800004F815885C701B6010E94322A6B017C01C5
:10181000F101648B758B868B978B808D918D0197F1
:1018200041F5A301920160E070E0CB010E94C5295F
:10183000D1011C966D937D938D939C931F97A50169
:10184000940160E070E0CB010E94C529F101608B3A
:10185000718B828B938BA701960160E070E0CB01C6
:101860000E94C529D10154966D937D938D939C93CD
:10187000579728960FB6F894DEBF0FBECDBFDF9105
:10188000CF911F910F91FF90EF90DF90CF90BF907D
:10189000AF909F908F907F906F905F904F903F9010
:1018A0002F9008954F925F926F927F928F929F92A6
:1018B000AF92BF92CF92DF92EF92FF92C090FF045F
:1018C000D0900005E0900105F090020520E030E0A6
:1018D000A901C701B6010E9445288090420490905A
:1018E0004304A0904404B090450487FF4FC020E01B
:1018F00030E0A901C701B6010E94322B2601370151
:1019000018169CF077FA709477F8709420E030E025
:10191000A901C301B2010E94322B181624F0C12C78
:10192000D12C760102C073016201A5019401C701A7
:10193000B6010E94AB280E94A42A709339046093D8
:101940003804072E000C880B990B0E944C289B0131
:10195000AC01C501B4010E94C5290E94A42A70935C
:101960003B0460933A0420E030E0A901C301B201D6
:101970000E94322B18160CF041C08DE090E090933D
:101980003D0480933C0460E08AE02FC0A5019401EF
:10199000C701B6010E94AB280E94A42A70933904A3
:1019A00060933804072E000C880B990B0E944C287A
:1019B0009B01AC01C501B4010E94C5290E94A42A63
:1019C00070933B0460933A0420E030E0A901C70122
:1019D000B6010E94322B18168CF48AE090E09093A6
:1019E0003D0480933C0460E08DE00E94980761E034
:1019F00088E00E94980781E080934004FF90EF9078
:101A0000DF90CF90BF90AF909F908F907F906F901E
:101A10005F904F900895CF92DF92EF92FF926B010B
:101A20007C0120E030E0A9010E94452887FD11C01B
:101A300020E030E040E85FE3C701B6010E94322BAE
:101A4000181654F4C12CD12C30E8E32E3FE3F32ECA
:101A500003C0C12CD12C760180913702882359F123
:101A600020E030E04AEF54E4C701B6010E94AB2801
:101A70000E94AB2A60932F02709330028093310250
:101A80009093320220EDC22E27E0D22EE12CF12CD1
:101A9000A7019601261B370B480B590B2093000119
:101AA000309301014093020150930301FF90EF90A6
:101AB000DF90CF90089520E030E04FE753E4C70176
:101AC000B6010E94AB280E94A42A89E0FF90EF9003
:101AD000DF90CF900C94E208CF92DF92EF92FF92CA
:101AE000CF93C0901001D0901101E0901201F090BE
:101AF000130120E030E040E751E4C701B6010E9445
:101B0000452887FD15C020E030E040E751E4C701DB
:101B1000B6010E94322B181614F520E030E04CE09C
:101B200052E4C701B6010E94452887FD03C017C0D3
:101B3000C1E016C0A70196016091140170911501D2
:101B400080911601909117010E94C529C1E020E003
:101B500030E040E05FE30E94322B18160CF0C0E04A
:101B60008C2FCF91FF90EF90DF90CF9008954F9200
:101B70005F926F927F92AF92BF92CF92DF92EF927D
:101B8000FF920F931F93CF93DF93CDB7DEB72A97C2
:101B90000FB6F894DEBF0FBECDBF6B017C0120E015
:101BA00030E040E151EC0E94452887FF1BC01A82BB
:101BB00019821C821B821E821D826EE472E0CE019D
:101BC00001960E947304CE0101960E944F12CE012D
:101BD00001960E94D304C12CD12C90E1E92E91EC06
:101BE000F92E24C020E030E046EC52E4C701B601F3
:101BF0000E94322B1816D4F41A8219821C821B827E
:101C00001E821D826EE072E0CE0101960E94730476
:101C1000CE0101960E944F12CE0101960E94D3047C
:101C2000C12CD12C86ECE82E82E4F82E0E946C0D9B
:101C3000882351F00E94B3096093330270933402F9
:101C40008093350290933602C0921001D092110118
:101C5000E0921201F09213010E946C0D882351F062
:101C60000E94B3096093330270933402809335026B
:101C70009093360281E08093D0048CED95E09093B0
:101C8000D2048093D104C0901001D0901101E09053
:101C90001201F0901301209114013091150140912F
:101CA000160150911701C701B6010E94C52920E015
:101CB00030E040E05FE30E94322B18160CF099C030
:101CC00020E030E040E751E4C701B6010E9445281A
:101CD00087FF0EC0A12CB12CC12CD12C76010FE8AE
:101CE00012EC25E73CE34DE35AE067E57EE37DC077
:101CF00020E030E040E252E4C701B6010E944528EE
:101D0000181674F0A12CB12CC12CD12C760106EA46
:101D10001BE924E43CE34BE754E16EE27EE365C05B
:101D200020E030E048EC52E4C701B6010E94322BBB
:101D300087FD0EC0A12CB12CC12CD12C76010CEE4C
:101D400011E528EB3CE348EB5EE165E87EE34DC03E
:101D500020E030E040E252E4C701B6010E94C5290C
:101D600020E030E040E752E40E94322A6B017C011F
:101D700022E338E04CE25CE30E94AB2826EA3BE930
:101D800044E45CE30E94C6296F83788789879A8739
:101D90002AEE31E548EB5DE3C701B6010E94AB28AE
:101DA0002BE734E14EE25EE30E94C6292B013C01A1
:101DB00020E030E0A9010E94452887FD1AC020E0FC
:101DC00030E0A9016F81788589859A850E94452830
:101DD00087FD0FC0A12CB12CC12CD12C76010F8115
:101DE000188529853A85B301A20183E095E00E9418
:101DF0009B0B2A960FB6F894DEBF0FBECDBFDF91C6
:101E0000CF911F910F91FF90EF90DF90CF90BF90F7
:101E1000AF907F906F905F904F900895CF92DF9238
:101E2000EF92FF920F931F93CF93DF93EB017B0110
:101E300024E0E20EF11C8B016C01C61AD70AC60120
:101E4000800F911F0E946C29F80181938F01EE157C
:101E5000FF05A9F7CE01DF91CF911F910F91FF9060
:101E6000EF90DF90CF900895E091BC02F091BD0219
:101E7000DC0114964D915C9115976D917C910280D7
:101E8000F381E02D8CEB92E00994CF92DF92FF92E8
:101E90000F931F93CF93DF931F92CDB7DEB7F62E2C
:101EA000072F152F9EE4C92E94E0D92EF6019081BC
:101EB00021E02093BB029093BA021092B9021092D3
:101EC000B802A181B281ED91FC91119724E0829F2B
:101ED000C0011124BC016A5F7F4F0190F081E02DA9
:101EE000CD01498309956F2D702FF6018181928173
:101EF0000E94940B602F70E0F601818192810E9414
:101F0000940B4981642F712FF601818192810E9487
:101F1000940B612F70E0F601818192810E94940BF5
:101F2000F601818192810F90DF91CF911F910F91E6
:101F3000FF90DF90CF900C94370BCF92DF92EF920F
:101F4000FF92CF93C82FCB01BA0120E030E040E8E8
:101F500053E40E94AB2820E030E040E851E40E94C6
:101F6000AB286B017C0120E030E0A9010E944528EC
:101F700087FD12C020E030EF4FE755E4C701B601FE
:101F80000E94322B18165CF4C12C80EFD82E8FE7FC
:101F9000E82E85E4F82E03C0C12CD12C7601C701B0
:101FA000B6010E94AB2AAB0160E070E08C2FCF91AC
:101FB000FF90EF90DF90CF900C94450FCF92DF927F
:101FC000EF92FF92CF93C82FCB01BA0120E030E00F
:101FD00040E853E40E94AB2820E030E040E851E4C0
:101FE0000E94AB286B017C0120E030E0A9010E9437
:101FF000452887FD12C020E030EF4FE755E4C701C8
:10200000B6010E94322B18165CF4C12C80EFD82E3A
:102010008FE7E82E85E4F82E03C0C12CD12C760181
:10202000C701B6010E94AB2A4FEF5FE08C2FCF9122
:10203000FF90EF90DF90CF900C94450F8F929F927E
:10204000AF92BF92CF92DF92EF92FF920F931F93C6
:10205000CF93DF93EC017B0108E514E04C0187E0AE
:10206000880E911C8BE4A82EB12CC5010197F1F7C5
:10207000699170E080E090E00E944A282091C404B9
:102080003091C5044091C6045091C7040E94AB280A
:10209000AB01BC01F8013797808190E00E94DE0F10
:1020A000C5010197F1F7F70161917F0170E080E0D0
:1020B00090E00E944A282091C4043091C5044091C8
:1020C000C6045091C7040E94AB28AB01BC01F801C3
:1020D00080810F5F1F4F90E00E94DE0FC815D90569
:1020E00009F0C3CFDF91CF911F910F91FF90EF9037
:1020F000DF90CF90BF90AF909F908F9008950F93F7
:102100001F930E94B3096093C4027093C502809329
:10211000C6029093C702E091BC02F091BD02028416
:10212000F385E02D8CEB92E0099597FF1FC00E948C
:10213000B3090091C4021091C5022091C6023091EA
:10214000C702DC01CB01801B910BA20BB30B0091EA
:10215000C0021091C1022091C2023091C3028017C7
:102160009107A207B307B8F28FEF9FEF1F910F916E
:102170000895BC01009791F0FC0101900020E9F75F
:102180003197AF01481B590BE091BC02F091BD02A1
:102190000280F381E02D8CEB92E0099480E090E0E6
:1021A00008958F929F92AF92BF920F931F93CF93F8
:1021B000DF93CDB7DEB7A1970FB6F894DEBF0FBEA1
:1021C000CDBF19A2423008F44AE08E010F5D1F4FC7
:1021D000842E912CA12CB12CA50194010E94D22B0C
:1021E000E62FB901CA0101501109EA3014F4E05D8B
:1021F00001C0E95CD801EC93232B242B252B61F73C
:10220000C8010E94B910A1960FB6F894DEBF0FBEA8
:10221000CDBFDF91CF911F910F91BF90AF909F9055
:102220008F90089588E192E00E94B9108EE092E0CC
:102230000E94B91088E192E00E94B9108EE092E00D
:102240000C94B9100F931F93CF93DF938C01C0E0D0
:10225000D0E0F801EC0FFD1F6491662371F0E0916E
:10226000BC02F091BD020190F081E02D8CEB92E078
:102270000995892B11F02196ECCFCE01DF91CF91FA
:102280001F910F910895EF92FF920F931F93CF9399
:10229000DF937C018B01EA0187EF92E00E9422111B
:1022A000C7010E94340F8FEE92E00E942211C801F4
:1022B0000E94340F85EE92E00E942211CE010E940E
:1022C000340F8EE092E0DF91CF911F910F91FF903C
:1022D000EF900C94B9104F925F926F927F928F9211
:1022E0009F92AF92BF92CF92DF92EF92FF926B01DB
:1022F0007C01B42E9B01AC010E943F2B882319F076
:102300008BE192E027C026013701E89477F82FEFA0
:102310003FEF4FE75FE7C301B2010E943F2B8111FE
:102320000DC02FEF3FEF4FE75FE7C301B2010E94FF
:10233000452818161CF48FE192E00CC02FEF3FEFF8
:102340004FE75FE4C701B6010E94322B181684F4F0
:1023500083E292E0FF90EF90DF90CF90BF90AF903C
:102360009F908F907F906F905F904F900C94B910DA
:102370002FEF3FEF4FE75FECC701B6010E94452802
:1023800087FDE6CF20E030E0A901C701B6010E9439
:10239000452887FF11C0E091BC02F091BD02019079
:1023A000F081E02D6DE28CEB92E009954C01F7FA9B
:1023B000F094F7F8F09402C0812C912CA12C60E0ED
:1023C00070E080E09FE3AB1441F020E030E040E2B9
:1023D00051E40E94322AA394F6CF9B01AC01C701BD
:1023E000B6010E94C6292B013C010E94AB2A6B0159
:1023F0007C010E944A289B01AC01C301B2010E94EA
:10240000C5292B013C014AE0C701B6010E94D11049
:102410007C01E80CF91CBB2069F0E091BC02F09152
:10242000BD020190F081E02D6EE28CEB92E0099507
:10243000E80EF91EDB2CDD2021F120E030E040E247
:1024400051E4C301B2010E94AB282B013C010E9460
:10245000AB2A4B01A12CB12C4AE0C501B4010E946A
:10246000D110E80EF91EC501B4010E944A289B0153
:10247000AC01C301B2010E94C5292B013C01DA94D1
:10248000DACFC701FF90EF90DF90CF90BF90AF9071
:102490009F908F907F906F905F904F9008950E94D3
:1024A000340F8EE092E00C94B9109C01662381F009
:1024B0008091BC049091BD042817390711F080E089
:1024C00020C08091BE049091BF0428173907B9F34A
:1024D0008091BA049091BB04662351F001968D322D
:1024E00041E094072CF49093BB048093BA04E7CFA7
:1024F0001092BB041092BA043093BF042093BE0420
:1025000081E03093BD042093BC048823C9F1C90144
:1025100037FF04C088279927821B930B6AE070E07D
:102520000E94BE2BFB0137FF0BC027E0289FB001A4
:10253000299F700D11246C587B4F8DE694E01EC0CE
:102540002A3031055CF427E0289FB001299F700DE7
:1025500011246C587B4F8FE594E010C047E0489FF2
:102560009001499F300D1124B9016C587B4F4E9F4B
:10257000C0014F9F900D11248C589B4F0C941E103E
:10258000089590E0FC01E953FD4F2491FC01E755CB
:10259000FD4F8491882399F090E0880F991FFC01EA
:1025A000E556FD4FA591B491FC01E357FD4F859190
:1025B00094918FB7F894EC91E22BEC938FBF089530
:1025C0004F925F926F927F928F929F92AF92BF9243
:1025D000CF92DF92EF92FF920F931F93CF93DF93EF
:1025E000CDB7DEB728970FB6F894DEBF0FBECDBFCC
:1025F0002B013C0129833A834B835C83ED82FE826D
:102600000F8318878091D0048823C9F00E94B309F2
:10261000C090C804D090C904E090CA04F090CB04E4
:102620006C157D058E059F0508F042C06093C804B7
:102630007093C9048093CA049093CB0439C0C090AE
:10264000CC04D090CD04E090CE04F090CF0420E0F4
:1026500030E040E85FE3C701B6010E94452887FFEC
:1026600016C026E636E646E65FE3C701B6010E94DD
:10267000322B181664F480E090E0A0E8BFE380936A
:10268000CC049093CD04A093CE04B093CF0420E06B
:1026900030E040E85FE36091CC047091CD0480911C
:1026A000CE049091CF040E9445288111AFCF67C01E
:1026B0008090D1049090D204092C000CAA08BB0889
:1026C000C090C804D090C904E090CA04F090CB0434
:1026D000C80CD91CEA1CFB1CC616D706E806F9066E
:1026E00040F4C092C804D092C904E092CA04F092A7
:1026F000CB04C090C804D090C904E090CA04F09004
:10270000CB046C197D098E099F090E944A286B0130
:102710007C01C501B4010E944C289B01AC01C7019A
:10272000B6010E94322A2BED3FE049E450E40E94BA
:10273000AB289B01AC010E94C6290E94372B20E0E8
:1027400030E040E05FE30E94AB2820E030E040E072
:102750005FE30E94C62926E636E646E65FE30E946E
:10276000AB282DEC3CEC4CEC5DE30E94C629609359
:10277000CC047093CD048093CE049093CF048090CA
:10278000C0049090C104A090C204B090C304C09053
:10279000CC04D090CD04E090CE04F090CF04A501FD
:1027A0009401C301B2010E94AB28A70196010E94C7
:1027B000AB282B013C016093D3047093D404809325
:1027C000D5049093D60420E030E0A901C501B401FE
:1027D0000E94AB28A70196010E94AB286093D70402
:1027E0007093D8048093D9049093DA04A5019401DE
:1027F00069817A818B819C810E94AB28A701960117
:102800000E94AB286093DB047093DC048093DD04AA
:102810009093DE04A50194016D817E818F8198855E
:102820000E94AB28A70196010E94AB286093DF04A9
:102830007093E0048093E1049093E20483EDA82E6A
:1028400084E0B82E10E0F501C190D190E190F190B4
:102850005F012485358546855785C701B6010E94ED
:102860004528811111E0F501C486D586E686F786F4
:10287000F3EEAF16F4E0BF0631F7112309F44EC0B2
:1028800020E030E04FE753E4C301B2010E94AB28DF
:102890000E94A42A85E00E94E2084091D70450914A
:1028A000D8046091D9047091DA0480E090E00E942D
:1028B0009D0F20E030E04FE753E46091DB0470911E
:1028C000DC048091DD049091DE040E94AB280E941C
:1028D000A42A86E00E94E2084091DF045091E004BF
:1028E0006091E1047091E20487E090E028960FB6D1
:1028F000F894DEBF0FBECDBFDF91CF911F910F9136
:10290000FF90EF90DF90CF90BF90AF909F908F900F
:102910007F906F905F904F900C949D0F28960FB60C
:10292000F894DEBF0FBECDBFDF91CF911F910F9105
:10293000FF90EF90DF90CF90BF90AF909F908F90DF
:102940007F906F905F904F9008951F93CF93DF9388
:10295000162FCEE4D4E0988121E02093BB0290931F
:10296000BA021092B9021092B802A981BA81ED910F
:10297000FC9111970190F081E02D682FCD01099510
:1029800089819A81DC01ED91FC910190F081E02D2B
:10299000612F099589819A81DF91CF911F910C94C4
:1029A000370B4F925F926F927F928F929F92AF926E
:1029B000BF92CF92DF92EF92FF92412C512C3201C5
:1029C000CC24CA94DC2C76014B015C0120E2820EFF
:1029D000911CA11CB11C481459046A047B0408F022
:1029E00057C0C2010E946C29A70196012827DA016D
:1029F000C9018F709927AA27BB27880F991F880FB5
:102A0000991FFC01E85EFC4F80819181A281B38116
:102A100034E0F694E794D794C7943A95D1F7C82652
:102A2000D926EA26FB26C2010E946C2990E044E0E8
:102A3000959587954A95E1F7092E000CAA0BBB0BDB
:102A40008C259D25AE25BF258F709927AA27BB27EA
:102A5000880F991F880F991FFC01E85EFC4F808149
:102A60009181A281B38164E0F694E794D794C794EE
:102A70006A95D1F7C826D926EA26FB26C094D094B9
:102A8000E094F0943FEF431A530A630A730AA3CF0A
:102A9000C701B601FF90EF90DF90CF90BF90AF904D
:102AA0009F908F907F906F905F904F900895CF93FD
:102AB000DF9326E636E646E65FE30E94AB289B01FD
:102AC000AC0160E27CEB8EEB95E40E94322A20E0C0
:102AD00030E040E85FE30E94C52920E030E040E0BC
:102AE0005FE30E94C6290E94DA2A0E94AB2AD62FF1
:102AF00080914E0491E09093BB028093BA021092B1
:102B0000B9021092B80280914F0490915004DC01F8
:102B1000ED91FC910190F081E02D60E009958091AC
:102B20004F04909150040E94370B80914E04909175
:102B300067059111FCCF91E090936705909366052E
:102B40002FEF209365051092640510926305909312
:102B5000620590916205880F892B809362058091B0
:102B60006105813061F41092610580916205809366
:102B7000BB008091BC0083FDF8CF85EC01C085EEE1
:102B80008093BC00809167058130E1F380916405FA
:102B9000811103C08091640501C081E0A1E4B5E02A
:102BA0002AE635E0F9019E2F921B981718F49D91A3
:102BB0009193F9CF109269058093680580914F0435
:102BC00090915004DC01ED91FC910284F385E02D9D
:102BD0000995C82F8F76682F606180E00E94A51448
:102BE0006D2F8EEF0E94A5146C2F80E00E94A5141B
:102BF00065E070E080E090E00E9479096C2F606AE7
:102C000080E0DF91CF910C94A5144F925F926F9268
:102C10007F92AF92BF92CF92DF92EF92FF920F938B
:102C20001F93CF93DF93CDB7DEB7A0970FB6F8947D
:102C3000DEBF0FBECDBF8C015B0160E172E0C5015C
:102C40000E94BC0419821A821B821C820115110584
:102C500089F001301105E9F460E270E080E090E075
:102C60000E94D1142B013C01BE016F5F7F4F80E6B3
:102C700090E00CC060E070E0CB010E94D1142B0109
:102C80003C01BE016F5F7F4F80E490E00E940E0F19
:102C900003C0412C512C320189819A81AB81BC81C6
:102CA000481659066A067B0649F082E0809358036D
:102CB00067E272E0C5010E94BC042CC00115110539
:102CC00049F00130110549F490E2C92ED12CE12CD4
:102CD000F12C03C0C12CD12C7601FE01319680E28B
:102CE000DF011D928A95E9F78F01CE1ADF0A80E293
:102CF000F82EFE0EC601800F911F0E946C29F8016C
:102D000081938F01882331F0682FC5010E9412043E
:102D1000F012F0CFA0960FB6F894DEBF0FBECDBF75
:102D2000DF91CF911F910F91FF90EF90DF90CF90A7
:102D3000BF90AF907F906F905F904F900895CF922B
:102D4000DF92EF92FF92CF93DF93C8E3D4E0CA847F
:102D5000DB84EC84FD8420E030E0A901C701B601EA
:102D60000E94AB280E94A42A79836883072E000C56
:102D7000880B990B0E944C289B01AC01C701B6013E
:102D80000E94C5290E94A42A7B836A8360E08DE0AB
:102D90000E94980760E08AE00E94980760E088E05F
:102DA0000E9498071886DF91CF91FF90EF90DF90F7
:102DB000CF9008952F923F924F925F926F927F92A1
:102DC0008F929F92AF92BF92CF92DF92EF92FF923B
:102DD0000F931F93CF93DF93CEE8D3E0C12CD12C78
:102DE000760169917991072E000C880B990B0E944E
:102DF0004C289B01AC01C701B6010E94C6296B019A
:102E00007C0183E0CC3AD80761F720E030E040E76E
:102E100051E4C701B6010E94322A6B017C01609324
:102E2000AC037093AD038093AE039093AF036091B6
:102E3000340470913504072E000C880B990B0E9406
:102E40004C289B01AC01C701B6010E94452887FFB1
:102E500005C0609136047091370416C06091B003CC
:102E60007091B103072E000C880B990B0E944C281F
:102E70009B01AC01C701B6010E94322B18165CF40D
:102E80006091B2037091B303072E000C880B990B6D
:102E90000E944C2897C020EBA22E23E0B22E00E027
:102EA00010E0F501C081D1811801FFEF2F1A3F0A10
:102EB000F50184809580B401092C000C880B990BD6
:102EC0000E944C289B01AC01C701B6010E94322B25
:102ED00087FD6FC0BE010D2E000C880B990B0E9460
:102EE0004C282B013C019B01AC01C701B6010E949B
:102EF000452818160CF45DC0A7019601C301B20164
:102F00000E94C5296B017C0120E030E0A9010E94EC
:102F1000322B181624F0F7FAF094F7F8F094000F1B
:102F2000111F000F111FF801E357FC4F05A116A157
:102F3000B801012E000C880B990B0E944C282B0124
:102F40003C01C819D909D7FF03C0D195C195D10952
:102F5000BE01DD0F880B990B0E944C289B01AC0130
:102F6000C701B6010E94322A6B017C01F101EE0F0C
:102F7000FF1FEE0FFF1FE357FC4F65A176A1601BFB
:102F8000710B77FF03C0719561957109072E000CD5
:102F9000880B990B0E944C289B01AC01C701B6011C
:102FA0000E94AB289B01AC01C301B2010E94C6295B
:102FB00009C0F4E0AF0EB11C81010132110509F026
:102FC00070CF04C0262F572F482F392F622F752F0F
:102FD000842F932FDF91CF911F910F91FF90EF904E
:102FE000DF90CF90BF90AF909F908F907F906F9029
:102FF0005F904F903F902F900895E4E0F3E0E491CC
:1030000020917B00E3FB882780F990E035E0880F72
:10301000991F3A95E1F7922F9F7D892B80937B0032
:10302000E770E064E0937C0080917A008064809394
:103030007A0080917A0086FDFCCF80917800209103
:10304000790090E0922B08952F923F924F925F92D9
:103050006F927F928F929F92AF92BF92CF92DF92A8
:10306000EF92FF920F931F93CF93DF93CDB7DEB70D
:103070002D970FB6F894DEBF0FBECDBF0E94B309E7
:103080006D837E838F839887809125059091260597
:10309000A0912705B09128054D815E816F817885CB
:1030A000481B590B6A0B7B0B8091310590913205BF
:1030B000A0913305B0913405481759076A077B077B
:1030C00008F423C120911F0530912005D9018D916D
:1030D0009D910D90BC91A02D89839A83AB83BC8375
:1030E000E0912305F09124059C01AD01608171817F
:1030F000828193810E94C5294B015C0120912D059D
:1031000030912E0540912F055091300569817A81CB
:103110008B819C810E94C5296B017C012091130544
:10312000309114054091150550911605C501B40163
:103130000E94AB282091290530912A0540912B054A
:1031400050912C050E94C6292B013C016093290552
:1031500070932A0580932B0590932C0530903E05A3
:1031600031101AC020910F053091100540911105C2
:1031700050911205C701B6010E94AB289B01AC011A
:10318000C301B2010E94C5296093290570932A05E5
:1031900080932B0590932C054090290550902A058B
:1031A00060902B0570902C0510913905B0913A056F
:1031B000BD8720903B0500913C05212F3B2F422DE0
:1031C000502FC301B2010E94322B18162CF4812F0C
:1031D0009D85A22DB02F18C08091350590913605A0
:1031E000A0913705B091380589879A87AB87BC874E
:1031F0009C01AD01C301B2010E94452887FF0CC0AC
:1032000089859A85AB85BC858093290590932A058D
:10321000A0932B05B0932C05332079F020910F0556
:10322000309110054091110550911205C501B4016E
:103230000E94AB284B015C0103C0812C912C5401EE
:1032400020911705309118054091190550911A05E4
:10325000C701B6010E94AB289B01AC016091290512
:1032600070912A0580912B0590912C050E94C5290B
:103270009B01AC01C501B4010E94C6296B017C0110
:10328000212F3D85422D502F0E94322B1816BCF065
:1032900010913505909136059D8720903705009156
:1032A0003805212F392F422D502FB601C7010E941A
:1032B000452887FD04C01C2DDD862E2C0F2DE091A6
:1032C0002105F0912205812F9D85A22DB02F8083AD
:1032D0009183A283B38389819A81AB81BC818093DE
:1032E0002D0590932E05A0932F05B09330058D8169
:1032F0009E81AF81B8858093250590932605A09384
:103300002705B093280581E001C080E02D960FB617
:10331000F894DEBF0FBECDBFDF91CF911F910F910B
:10332000FF90EF90DF90CF90BF90AF909F908F90E5
:103330007F906F905F904F903F902F900895FC0189
:1033400080914005811103C08FEF9FEF08959FB7D3
:10335000F89482E08093E9002091F20030E01216A8
:10336000130614F421E030E02115310551F084E614
:1033700080933F058091F10080838091F200882343
:1033800019F09FBFC90108958BE68093E800F9CF3B
:103390002FB7F89483E08093E9009091E800892F9B
:1033A000807295FF04C09091F20080E4891B2FBFCA
:1033B000089580918E0581110DC082E080938A0569
:1033C00084E080938B0510928D0510928C0581E02E
:1033D00080938E058AE895E00895CF93DF93CDB76B
:1033E000DEB7A0970FB6F894DEBF0FBECDBF7894BE
:1033F00084B5826084BD84B5816084BD85B58260FA
:1034000085BD85B5816085BD80916E0081608093AA
:103410006E00109281008091810082608093810013
:103420008091810081608093810080918000816023
:1034300080938000809191008260809391008091C0
:1034400091008160809391008091900081608093D1
:1034500090008091C10084608093C1008091C10080
:1034600082608093C1008091C10081608093C1001F
:103470008091C30081608093C3008091C00082600E
:103480008093C0008091C20081608093C2008091CF
:103490007A00846080937A0080917A0082608093C1
:1034A0007A0080917A00816080937A0080917A001E
:1034B000806880937A001092400510922E0210923C
:1034C0002D028091D70081608093D70080EA80939D
:1034D000D80089B5806189BD89B5826089BD09B48C
:1034E00000FEFDCF61E070E080E090E00E9479098D
:1034F0008091D8008F7C80618093D8008091E0001B
:10350000807F8093E0008091E1008E7E8093E100D7
:103510008DE08093E200EEEFFFE7859194918B3F81
:103520009C4D19F481E080932C020FB6F894A89575
:1035300080916000886180936000109260000FBEEF
:1035400064EF71E08FE593E00E94BC0469EF71E0E5
:1035500085E693E00E94BC046EEF71E081E793E0A2
:103560000E94BC0463E072E08BE693E00E94BC041E
:1035700067E072E087E793E00E94BC048FEF9FEF63
:103580009093C9028093C80283E090E0A0E0B0E08D
:103590008093C0029093C102A093C202B093C30271
:1035A0008BE00E94C11289E00E94C11260E070E0CD
:1035B000CB010E940B0D80E090E0AAE7B3E480937A
:1035C000420490934304A0934404B09345048DE0D7
:1035D0000E94C1128AE00E94C11288E00E94C112BA
:1035E0000E949F160E949F1669EF74E080E090E0B1
:1035F0000E9405161092580363EF74E081E090E09A
:103600000E940516109258036BE072E0CE010196FD
:103610000E94D8048091F7049091F804892B81F0DE
:103620000091F3041091F40469817A81C8010E9429
:103630003D2E009729F0AC01401B510B8A0102C0BE
:103640000FEF1FEFCE0101960E94D3041016110652
:103650001CF481E08093370285E00E94C11286E06D
:103660000E94C1128CE08093B800109269051092FC
:1036700068051092B9021092B8021092670581E0B5
:10368000809366051092610561E082E00E949807D0
:1036900061E083E00E9498078091B9008E7F80935B
:1036A000B9008091B9008D7F8093B90088E4809340
:1036B000B80085E48093BC0060E880E00E94A51417
:1036C0006AE070E080E090E00E94790960E070E0DC
:1036D0008AE794E40E9457150BE410E0C8010197B3
:1036E000F1F760E070E088EC94E40E945715C8019F
:1036F0000197F1F780E090E0A0E8BEE38093C40476
:103700009093C504A093C604B093C70480E090E0F2
:10371000A0E0BFE38093C0049093C104A093C204CF
:10372000B093C30400918D0310E00E94FD17000FB9
:10373000111FF801E357FC4F9283818380918D0321
:103740008F5F80938D038F3068F310928D030E94FA
:10375000DA1660931401709315018093160190930B
:10376000170180E090E0A8EBB1E480931001909302
:103770001101A0931201B093130180913D050091B6
:10378000210510912205811145C0F801C080D1802A
:10379000E280F380C0922905D0922A05E0922B05A1
:1037A000F0922C05E0911F05F09120058081918118
:1037B000A281B38180932D0590932E05A0932F05B0
:1037C000B09330058090390590903A05A0903B0564
:1037D000B0903C05A5019401C701B6010E94322BAF
:1037E000181684F08090350590903605A090370526
:1037F000B0903805A5019401C701B6010E94452883
:1038000087FF08C08092290590922A05A0922B0577
:10381000B0922C0581E080933D0560913105709157
:10382000320580913305909134050E944A289B010E
:10383000AC0160E070E08AEF93E40E94322A6B01F1
:103840007C019B01AC01609113057091140580917E
:103850001505909116050E94AB286093130570938F
:1038600014058093150590931605A70196016091A4
:103870001705709118058091190590911A050E94FD
:10388000322A609317057093180580931905909359
:103890001A0584EF91E0A0E0B0E0809331059093A9
:1038A0003205A0933305B0933405C12CD12CB0E878
:1038B000EB2EBFEBFB2EC0923505D0923605E09281
:1038C0003705F0923805412C512C80E8682E8FE3A3
:1038D000782E4092390550923A0560923B057092DD
:1038E0003C05F80180809180A280B380A301920101
:1038F000C501B4010E94322B181634F4F80140823D
:103900005182628273820FC020E030E040E85FEBBA
:10391000C501B4010E94452887FF05C0F801C08297
:10392000D182E282F3828090290590902A05A090AE
:103930002B05B0902C05C0903905D0903A05E09049
:103940003B05F0903C05A7019601C501B4010E941A
:10395000322B181684F0C0903505D0903605E090D3
:103960003705F0903805A7019601C501B4010E9402
:10397000452887FF08C0C0922905D0922A05E09209
:103980002B05F0922C0580913D05811101C0FFCFE0
:103990000E942418382E8823B1F360E070E088EB91
:1039A00091E40E94B70D109242021092D0046091EF
:1039B00014017091150180911601909117010E94D8
:1039C000A42A6B8B7C8B8D8B9E8B2B893C8938A397
:1039D0002F8F4090C0045090C1046090C20470903A
:1039E000C3048090C4049090C504A090C604B09015
:1039F000C7041092C0041092C1041092C204109225
:103A0000C304E12CF12C00E81FE320E030E0A90121
:103A1000CA01B9010E94E012E092C404F092C50408
:103A20000093C6041093C70460E088E590E00E940C
:103A300055120E94B3096F8B788F898F9A8F0E94DD
:103A4000B3090E944A286B017C016F89788D898DAA
:103A50009A8D0E944A2820E030E04AE754E40E9410
:103A6000C6299B01AC01C701B6010E94452887FF0A
:103A700045C00E94B3092F89388D498D5A8D621B2C
:103A8000730B840B950B0E944A2820E030E04AE734
:103A900054E40E94322A9B01AC0160E070E080E8AF
:103AA0009FE30E94C5296B017C0120E030E0A90161
:103AB0000E94452887FD11C020E030E040E85FE328
:103AC000C701B6010E94322B181654F4C12CD12C18
:103AD000F0E8EF2EFFE3FF2E03C0C12CD12C7601BE
:103AE000C092C404D092C504E092C604F092C70408
:103AF00060E088E590E00E945512A1CF1092C004CA
:103B00001092C1041092C2041092C3041092C40413
:103B10001092C5041092C6041092C70460E08B890D
:103B20009C890E9455120E94B3096F8B788F898FF0
:103B30009A8F0E94B3090E944A286B017C016F8909
:103B4000788D898D9A8D0E944A2820E030E04AE7DE
:103B500054E40E94C6299B01AC01C701B6010E9432
:103B6000452887FF7DC00E94B3092F89388D498D74
:103B70005A8D621B730B840B950B0E944A2820E020
:103B800030E04AE754E40E94322A6B8F7C8F8D8F9D
:103B90009E8FA50194010E94AB286B017C0120E05F
:103BA00030E0A9010E94452887FD11C020E030E0E7
:103BB00040E85FE3C701B6010E94322B181654F4A7
:103BC000C12CD12CE0E8EE2EEFE3FE2E03C0C12C79
:103BD000D12C7601C092C404D092C504E092C604F0
:103BE000F092C70460E08F8D98A10E945512A30146
:103BF00092016B8D7C8D8D8D9E8D0E94AB286B010B
:103C00007C0120E030E0A9010E94452887FD11C019
:103C100020E030E040E85FE3C701B6010E94322BAC
:103C2000181654F4C12CD12C70E8E72E7FE3F72E40
:103C300003C0C12CD12C7601C092C004D092C10423
:103C4000E092C204F092C304E12CF12C00E81FE3DF
:103C500020E030E0A901CA01B9010E94E01269CF59
:103C600020E030E0A901C501B4010E94452887FD8C
:103C700011C020E030E040E85FE3C501B4010E94DC
:103C8000322B181654F4812C912C50E8A52E5FE3AA
:103C9000B52E03C0812C912C54018092C4049092C3
:103CA000C504A092C604B092C70460E08B899C89C9
:103CB0000E94551220E030E0A901C301B2010E9428
:103CC000452887FD11C020E030E040E85FE3C301F4
:103CD000B2010E94322B181654F4412C512C40E8AA
:103CE000642E4FE3742E03C0412C512C32014092BC
:103CF000C0045092C1046092C2047092C304E12CCB
:103D0000F12C00E81FE320E030E0A901CA01B9016D
:103D10000E94E0128EE092E0C82E880FDD0889E84C
:103D200093E033E0380F3B8B80914004882309F403
:103D300055C020913A0430913B0480913804909111
:103D40003904232B21F4181619060CF463C0892BAF
:103D500009F444C00E94B30960934A0470934B0471
:103D600080934C0490934D040091460410914704B5
:103D70002091480430914904601771078207930726
:103D800040F46093460470934704809348049093F2
:103D90004904409141040091460410914704209148
:103DA0004804309149044423E1F040903804509095
:103DB0003904052C000C66087708040D151D261D16
:103DC000371D061717072807390738F5609346048B
:103DD00070934704809348049093490410924104DF
:103DE0001CC040903A0450903B04052C000C66081F
:103DF0007708040D151D261D371D06171707280700
:103E0000390758F46093460470934704809348043C
:103E10009093490481E08093410460914104809132
:103E20003C040E9498078CEB92E00E949002892B40
:103E300009F46CC2809187039091880385369105BF
:103E400030F060E172E083E893E00E94BC0460E13E
:103E500072E0CE0101960E94D8040E947F1097FD67
:103E600009C08C159D0531F0682FCE0101960E9486
:103E70001204F3CFBE016F5F7F4F83E893E00E948F
:103E80004204CE0101960E94D30420918703309111
:103E90008803A901425051094217530708F036C25E
:103EA00060918303709184036115710509F42EC23A
:103EB000FB01E40FF51F80818D3009F027C2C90195
:103EC00001978217930708F021C2FB01E80FF91F41
:103ED00080818A3009F01AC210E0612F70E0809171
:103EE0008703909188036817790718F580918303F9
:103EF00090918403009719F4A8E3B2E003C0DC01B9
:103F0000A60FB71FE9E8F3E0009711F4109238020A
:103F100021913C91321308C041E050E083E893E0E6
:103F20000E94E003115003C04B894E13EDCF1F5F79
:103F3000D4CF63E873E08DE793E00E94420460E130
:103F400072E083E893E00E94BC048FEF9FEF9093B0
:103F50005A03809359038091810390918203892BA6
:103F600009F4D2C10FE513E0E12CF12CF8016480D3
:103F7000758060E172E0CE0101960E94D8048091C4
:103F80008103909182030097E9F043018815990518
:103F900008F44C01E0917D03F0917E03E80DF91DDA
:103FA0007080108260917D0370917E03CE01019636
:103FB0000E94BC0480917D0390917E03FC01E80D7A
:103FC000F91D70822D813E81F80184819581281729
:103FD000390721F589819A8160817181009719F0F3
:103FE00061157105A9F46115710551F021153105AF
:103FF00039F0FB01808190E09195819591090AC08B
:10400000009771F0232B61F0FC01808190E002C0E9
:104010000E941E2E99249394892B19F0912C01C093
:10402000932CCE0101960E94D304992009F459C122
:10403000F8014481558160E070E08DE793E00E94D3
:10404000E003F0925A03E0925903F2E0EF16F10414
:1040500059F460E070E088EB91E40E94B70D109293
:1040600042021092D00471CF23E0E216F1040CF06A
:10407000A5C0EA94EF28B1F180914202409014016A
:104080005090150160901601709017018823A1F0DF
:104090008090100190901101A0901201B090130136
:1040A00085E491E00E94221143E0C501B4010E9421
:1040B0006B1181E491E00AC081E591E00E94221138
:1040C0008CE491E00E94221188E491E00E94221188
:1040D00043E0C301B2010E946B118EE092E00E94A6
:1040E000B91033CF8091810390918203892B09F419
:1040F00054C0E0907D03F0907E0363E570E0C7015B
:104100000E94132E009709F448C08C010E191F0954
:1041100017FD43C060E172E0CE0101960E94D80411
:10412000F12C0F5F1F4F809181039091820308173C
:104130001907F0F480917D0390917E03009729F098
:10414000FC01E00FF11F608101C060E080ED860F8F
:104150008A3008F4FAC16D3231F48D819E81892B49
:1041600009F4F2C105C06E3219F4FF2009F4F2C15E
:1041700089819A81009711F4912C0AC00E94B3267C
:1041800060935B0370935C0380935D0390935E0385
:10419000CE0101960E94D304292C222009F4D5CE09
:1041A00060915B0370915C0380915D0390915E036D
:1041B0000E94B70D51E050934202C7CE43E0E4168F
:1041C000F10409F047C061E172E0CE010D960E9452
:1041D000D80418861F821A8619861C861B86609151
:1041E000F3047091F4046115710541F04091F704F6
:1041F0005091F804CE0107960E949B041A821982FE
:104200001C821B821E821D826091F9047091FA0447
:104210006115710541F04091FD045091FE04CE01FD
:1042200001960E949B04AE01435F5F4FBE01695F30
:104230007F4FCE0101960E944311CE0101960E944C
:10424000D304CE0107960E94D304CE010D960E949E
:10425000D3047BCE54E0E516F10409F00DCF0E94A3
:1042600012111A8219821C821B821E821D8264E531
:1042700071E0CE0101960E947304CE0101960E9466
:104280004F12CE0101960E94D3040E94B3092B0164
:104290003C010E94B309DC01CB0184199509A609F0
:1042A000B709883B9B40A105B10598F398E088E1E8
:1042B0000FB6F894A895809360000FBE90936000AD
:1042C0000E94B3092B013C010E94B309DC01CB0120
:1042D00084199509A609B7094997A105B105A0F365
:1042E00034CE8FEFE81AF80A0A5F1F4F95E0E916FF
:1042F000F10409F03BCE41E050E060E070E08DE772
:1043000093E00E94E00327CE0E94121100918D03DA
:1043100010E00E94FD17000F111FF801E357FC4F3A
:104320009283818380918D038F5F8F3018F4809307
:104330008D034FC010928D030E94DA164B015C0171
:1043400020E030E048EB51E40E94C5292B013C01FC
:104350006093390270933A0280933B0290933C023F
:1043600020E030E0A9010E94322B1816ACF420E0C6
:1043700030E040E952E4C301B2010E94322A2AE946
:1043800039E949E15FE30E94AB289B01AC01C5011B
:10439000B4010E94C62915C0C301B201905820E0A3
:1043A00030E04EE851E40E94322A23E333E343E352
:1043B0005FE30E94AB289B01AC01C501B4010E94E0
:1043C000C529609314017093150180931601909391
:1043D000170180913702882309F46BC080902F0267
:1043E00090903002A0903102B0903202811491047A
:1043F000A104B10489F14090000150900101609046
:10440000020170900301411451046104710409F424
:1044100049C080914102882331F10E94B309409044
:104420003D0250903E0260903F0270904002DC01DD
:10443000CB0184199509A609B70988169906AA0619
:10444000BB06B8F50E94B30960933D0270933E022B
:1044500080933F029093400260E089E00E949807B9
:104460001092410226C00E94B30900913D021091B2
:104470003E0220913F0230914002DC01CB01801BC3
:10448000910BA20BB30B481659066A067B0688F4FB
:104490000E94B30960933D0270933E0280933F02F5
:1044A0009093400261E089E00E94980781E0809348
:1044B000410220E030E040E05FE360911401709140
:1044C000150180911601909117010E94C6290E9442
:1044D000A42ADC01CB0161E00E9455121091420236
:1044E000112309F444C02091140130911501409129
:1044F0001601509117016091100170911101809186
:104500001201909113010E94C5292B013C0120E06A
:1045100030E0A9010E94322B18165CF420E030E054
:1045200040E05FE3C301B2010E94452887FF2DC030
:104530001EC020E030E040E05FEBC301B2010E940A
:10454000322B1816A4F021C06DE2CE0101960E9414
:104550001204E7CD8D819E81892B09F409CE6EE28C
:10456000CE0101960E941204FF24F394DACD10923A
:10457000D004111113C0E12CF12C00E81FE320E05E
:1045800030E0A901CA01B90129C081E08093D004BB
:104590008CED95E09093D2048093D10420E030E03C
:1045A00048EB51E46091100170911101809112016A
:1045B000909113010E944528E12CF12C870187FF7F
:1045C00007C020E030E040E85FE3C801B70106C063
:1045D000A801970160E070E080E89FE30E94E0128C
:1045E00080913D05882309F46EC00E942418882319
:1045F00009F469C080914202882309F443C00E94F3
:10460000B3090091330210913402209135023091A8
:104610003602601771078207930740F460933302F4
:1046200070933402809335029093360200913302E6
:10463000109134022091350230913602280139015F
:10464000E0ED4E0EE7E05E1E611C711C6415750501
:104650008605970530F40E949F1660E070E0CB015C
:1046600030C00056104F2F4F3F4F60177107820721
:10467000930788F560E070E0CB010E940B0D0E946B
:10468000520C21C020E030E04CE552E4609114016E
:104690007091150180911601909117010E94322BA3
:1046A0001816CCF60E94520C80913702882329F00C
:1046B00063E373E383E79FE304C06DEC7CEC8CEC75
:1046C0009EE30E940B0D80E090E0892B09F42CCB37
:1046D0000E94000024CB0E946C0D882329F060E02A
:1046E00070E080E89FE3C9CF80913702882329F0EA
:1046F00063E373E383E79FE3C0CF6DEC7CEC8CEC6A
:104700009EE3BBCFCF93DF9383E893E00E94D30473
:104710008DE793E00E94D3048FE593E0892B51F459
:1047200083EF94E00E94D30489EF94E0DF91CF916E
:104730000C94D304C7E7D3E0CE010E94D30426979C
:1047400083E0C935D807C1F7EBCFAF92BF92CF92C4
:10475000DF92EF92FF920F931F93CF93DF9310920C
:10476000BF021092BE0288EE93E0A0E0B0E080931A
:10477000C0029093C102A093C202B093C30224ED81
:1047800031E03093BD022093BC022FEF3FEF309316
:10479000C9022093C80210920F0310920E03809357
:1047A000100390931103A0931203B093130386EEAA
:1047B00091E090930D0380930C038FEF94E090931E
:1047C00022058093210584E191E090932005809358
:1047D0001F0580E191E090932405809323051092BA
:1047E0003D0510923505109236051092370510924E
:1047F000380580E090E0AFE7B3E48093390590930B
:104800003A05A0933B05B0933C0584E690E0A0E018
:10481000B0E08093310590933205A0933305B093B7
:10482000340510921C0510921B05A12CB12CC12C33
:10483000D12C76010EEA17E421EE3CE34CE55FE86B
:1048400062EC7EE383E095E00E949B0B0E94B3093B
:1048500000913105109132052091330530913405D6
:10486000DC01CB01801B910BA20BB30B80932505C0
:1048700090932605A0932705B093280560E172E088
:1048800089EF94E00E94D80460E172E083EF94E045
:104890000E94D8048EE0E5E2F1E0A1E5B4E00190E9
:1048A0000D928A95E1F787E0EFE5F4E0DF01982FBC
:1048B0001D929A95E9F7E3E3F1E0A6E6B4E00190F2
:1048C0000D928A95E1F710926D0410926E04109289
:1048D0006F0410927004109271041092720481E0BF
:1048E0008093730486E4EAE3F1E0A4E7B4E0019086
:1048F0000D928A95E1F71092BB041092BA048CE9EC
:104900009FEF9093BD048093BC049093BF04809369
:10491000BE0480E090E0A0E8BFE38093C0049093E1
:10492000C104A093C204B093C3048093C4049093C1
:10493000C504A093C604B093C7041092C804109293
:10494000C9041092CA041092CB048093CC049093B3
:10495000CD04A093CE04B093CF041092D0048CED7C
:1049600095E09093D2048093D10480E1E0E8F1E0F7
:10497000A3EDB4E001900D928A95E1F780E1E0E8C3
:10498000F1E0A3EEB4E001900D928A95E1F780E4A6
:1049900080934E048CE093E09093500480934F04F6
:1049A000109240041092410480E090E0AAE7B3E442
:1049B0008093420490934304A0934404B09345042D
:1049C0001092460410924704109248041092490431
:1049D00010924A0410924B0410924C0410924D0411
:1049E00010928D0388E8E0EBF3E0DF011D928A95D9
:1049F000E9F782EE93E09093B1038093B00388EDE2
:104A00009FEF9093B3038093B20387ED93E090936D
:104A1000B5038093B4038DED9FEF9093B70380931C
:104A2000B60388EC93E09093B9038093B80382EEC9
:104A30009FEF9093BB038093BA0386EB93E0909330
:104A4000BD038093BC0387EE9FEF9093BF038093D9
:104A5000BE0380EA93E09093C1038093C0038CEE81
:104A60009FEF9093C3038093C20384E893E09093F5
:104A7000C5038093C40381EF9FEF9093C703809396
:104A8000C60381E693E09093C9038093C80386EF41
:104A90009FEF9093CB038093CA038AE393E09093B4
:104AA000CD038093CC038BEF9FEF9093CF03809344
:104AB000CE038DE093E09093D1038093D0038CEDEF
:104AC00092E09093D5038093D40385E090E0909397
:104AD000D7038093D60388EA92E09093D90380931A
:104AE000D8038AE090E09093DB038093DA0380E7B9
:104AF00092E09093DD038093DC038FE090E090934D
:104B0000DF038093DE0388E392E09093E1038093D8
:104B1000E00384E190E09093E3038093E20380E07C
:104B200092E09093E5038093E40389E190E0909311
:104B3000E7038093E60389EC91E09093E903809387
:104B4000E8038EE190E09093EB038093EA0385E91C
:104B500091E09093ED038093EC0383E290E09093D7
:104B6000EF038093EE0385E691E09093F103809349
:104B7000F00388E290E09093F3038093F20389E3DB
:104B800091E09093F5038093F4038DE290E090938D
:104B9000F7038093F60381E191E09093F90380930A
:104BA000F80382E390E09093FB038093FA038DEE89
:104BB00090E09093FD038093FC0387E390E0909353
:104BC000FF038093FE038EEC90E0909301048093AA
:104BD00000048CE390E0909303048093020483EB41
:104BE00090E0909305048093040481E490E0909316
:104BF0000704809306048BE990E090930904809366
:104C0000080486E490E090930B0480930A0486E8FD
:104C100090E090930D0480930C048BE490E09093CB
:104C20000F0480930E0484E790E090931104809326
:104C3000100480E590E0909313048093120485E6BD
:104C400090E0909315048093140485E590E0909390
:104C500017048093160488E590E0909319048093DC
:104C600018048AE590E090931B0480931A048DE465
:104C700090E090931D0480931C048FE590E0909346
:104C80001F0480931E0483E490E09093210480939A
:104C9000200484E690E090932304809322048CE225
:104CA00090E0909325048093240483E790E0909310
:104CB00027048093260486E290E090932904809351
:104CC000280488E790E090932B0480932A0482E2E2
:104CD00090E090932D0480932C048DE790E09093C6
:104CE0002F0480932E04C0925B03D0925C03E09269
:104CF0005D03F0925E03C0E0D0E0269660E172E0D2
:104D0000CE01875A9C4F0E94D804CE31D105A9F715
:104D100060E172E08DE793E00E94D80460E172E008
:104D200083E893E00E94D80480E2809389038DE0B9
:104D300080938A038AE080938B0310928C0380E433
:104D4000E0E9F1E0A8E1B3E001900D928A95E1F786
:104D5000DF91CF911F910F91FF90EF90DF90CF9057
:104D6000BF90AF900895662777270C94C726FB0164
:104D7000DC0105900D920020E1F70895FC010590FB
:104D80000020E9F7809590958E0F9F1F0895A0E071
:104D9000B0E0EDECF6E20C948329EC017B016115A7
:104DA000710519F0DB018D939C938E010F5F1F4FEE
:104DB0007880872D90E00E942428892B11F0E8014B
:104DC000F4CFBDE27B1205C00F5F1F4F7980C1E0B9
:104DD00008C0EBE27E1204C08E010E5F1F4F798087
:104DE000C0E06801F1E0CF1AD10843E050E06EE086
:104DF00071E0C6010E942D28892BF1F4680122E0A0
:104E0000C20ED11C45E050E069E071E0C6010E948D
:104E10002D28892B21F4680187E0C80ED11CE114EC
:104E2000F10419F0D701CD92DC92C111FFC060E00E
:104E300070E080E89FE703C143E050E066E071E086
:104E4000C6010E942D28892B51F4E114F10409F4C4
:104E5000F2C00E5F1F4FF70111830083ECC06801A1
:104E600060E070E0CB0100E010E0F601D0EDD70D7E
:104E7000DA3058F52C2F2260622E2C2F2870C2FFBA
:104E800005C0211128C00F5F1F4F25C0222311F03C
:104E900001501109A5E0B0E09B01AC010E9474290A
:104EA0004B015C01880C991CAA1CBB1CC501B401F8
:104EB0006D0F711D811D911D6839A9E97A078A0757
:104EC000A9E19A0740F0C66005C0DE3F51F4C3FD7A
:104ED00044C0C8606C2EBFEFCB1ADB0A7080C62DB1
:104EE000C4CF2D2F2F7D2531C1F540814D3211F4D6
:104EF000C06106C04B3221F0319621E030E006C09F
:104F00003296D60111964C9122E030E0A0EDA40F2C
:104F1000AA3018F0E21BF30B20C040E050E040380C
:104F2000BCE05B075CF49A01220F331F220F331F92
:104F3000420F531F440F551F4A0F511D3196DF0179
:104F400011972C91A0EDA20FAA3048F3C4FF03C023
:104F5000519541955109040F151FC1FF07C0E11478
:104F6000F10421F03197D701ED93FC930E944A2878
:104F7000C370C33019F06B017C0106C06B017C016A
:104F8000F7FAF094F7F8F09420E030E0A901C701B7
:104F9000B6010E944528882309F445C017FF06C0C2
:104FA000119501951109C5E2D1E002C0CDE3D1E030
:104FB0005E01B8E1AB1AB1084601BE2DAF2D90E2FB
:104FC000E92EF12C0E151F0584F0FE012591359177
:104FD00045915491B4018B2F9A2F0E94AB284B011D
:104FE000B82FA92F0E191F09EDCF2497F594E79438
:104FF000CA15DB0539F76401EB2EFA2E8E2D880FCA
:105000008F2D881F8F3F49F020E030E0A901C701B4
:10501000B6010E944528811106C082E290E090937B
:10502000970580939605C701B60109C060E070E05E
:1050300080E89FEF04C060E070E080EC9FE7CDB7B0
:10504000DEB7EEE00C949F2991110C941829803260
:1050500019F089508550C8F70895FB01DC014150D3
:10506000504088F08D9181341CF08B350CF4805EBB
:10507000659161341CF06B350CF4605E861B611128
:1050800071F3990B0895881BFCCF0E94872808F4C0
:1050900081E00895E89409C097FB3EF490958095CF
:1050A000709561957F4F8F4F9F4F9923A9F0F92FEE
:1050B00096E9BB279395F695879577956795B7956C
:1050C000F111F8CFFAF4BB0F11F460FF1BC06F5F52
:1050D0007F4F8F4F9F4F16C0882311F096E911C064
:1050E000772321F09EE8872F762F05C0662371F085
:1050F00096E8862F70E060E02AF09A95660F771F99
:10510000881FDAF7880F9695879597F90895990F74
:105110000008550FAA0BE0E8FEEF16161706E80781
:10512000F907C0F012161306E407F50798F0621BA2
:10513000730B840B950B39F40A2661F0232B242B77
:10514000252B21F408950A2609F4A140A6958FEF96
:10515000811D811D08950E94BE280C9432290E9451
:10516000242938F00E942B2920F0952311F00C946B
:105170001B290C94212911240C9466290E9443298F
:1051800070F3959FC1F3950F50E0551F629FF0019A
:10519000729FBB27F00DB11D639FAA27F00DB11DB3
:1051A000AA1F649F6627B00DA11D661F829F22273C
:1051B000B00DA11D621F739FB00DA11D621F839FC3
:1051C000A00D611D221F749F3327A00D611D231F99
:1051D000849F600D211D822F762F6A2F11249F57E7
:1051E00050409AF0F1F088234AF0EE0FFF1FBB1FEA
:1051F000661F771F881F91505040A9F79E3F5105A9
:1052000080F00C941B290C9466295F3FE4F3983ED0
:10521000D4F3869577956795B795F795E7959F5F52
:10522000C1F7FE2B880F911D9695879597F90895E4
:1052300099278827089597F99F6780E870E060E0D4
:1052400008959FEF80EC089500240A94161617061F
:1052500018060906089500240A9412161306140667
:1052600005060895092E0394000C11F4882352F0CA
:10527000BB0F40F4BF2B11F460FF04C06F5F7F4F82
:105280008F4F9F4F089557FD9058440F551F59F069
:105290005F3F71F04795880F97FB991F61F09F3F23
:1052A00079F087950895121613061406551FF2CF4C
:1052B0004695F1DF08C0161617061806991FF1CF9C
:1052C00086957105610508940895E894BB276627C3
:1052D0007727CB0197F90895F999FECF92BD81BD4B
:1052E000F89A992780B508950E94B629A59F900D38
:1052F000B49F900DA49F800D911D112408952F92AD
:105300003F924F925F926F927F928F929F92AF9255
:10531000BF92CF92DF92EF92FF920F931F93CF93A2
:10532000DF93CDB7DEB7CA1BDB0B0FB6F894DEBF39
:105330000FBECDBF09942A88398848885F846E845F
:105340007D848C849B84AA84B984C884DF80EE80A9
:10535000FD800C811B81AA81B981CE0FD11D0FB6B2
:10536000F894DEBF0FBECDBFED010895A29FB0013E
:10537000B39FC001A39F700D811D1124911DB29F89
:10538000700D811D1124911D08955058BB27AA2727
:105390000E94DD290C9432290E94242938F00E94B1
:1053A0002B2920F039F49F3F19F426F40C9421297D
:1053B0000EF4E095E7FB0C941B29E92F0E9443298A
:1053C00058F3BA17620773078407950720F079F43A
:1053D000A6F50C9465290EF4E0950B2EBA2FA02D9E
:1053E0000B01B90190010C01CA01A0011124FF2792
:1053F000591B99F0593F50F4503E68F11A16F0408D
:10540000A22F232F342F4427585FF3CF469537958B
:105410002795A795F0405395C9F77EF41F16BA0B50
:10542000620B730B840BBAF09150A1F0FF0FBB1FFE
:10543000661F771F881FC2F70EC0BA0F621F731F47
:10544000841F48F4879577956795B795F7959E3FA4
:1054500008F0B0CF9395880F08F09927EE0F979535
:10546000879508950E94462A0C9432290E942B2980
:1054700058F00E94242940F029F45F3F29F00C9451
:105480001B2951110C9466290C9421290E9443294F
:1054900068F39923B1F3552391F3951B550BBB2763
:1054A000AA2762177307840738F09F5F5F4F220FA8
:1054B000331F441FAA1FA9F335D00E2E3AF0E0E89F
:1054C00032D091505040E695001CCAF72BD0FE2FE9
:1054D00029D0660F771F881FBB1F2617370748077D
:1054E000AB07B0E809F0BB0B802DBF01FF27935835
:1054F0005F4F3AF09E3F510578F00C941B290C94B5
:1055000066295F3FE4F3983ED4F3869577956795D7
:10551000B795F7959F5FC9F7880F911D9695879569
:1055200097F90895E1E0660F771F881FBB1F621788
:1055300073078407BA0720F0621B730B840BBA0B46
:10554000EE1F88F7E09508950E94AB2A6894B11188
:105550000C94662908950E944B2988F09F5798F073
:10556000B92F9927B751B0F0E1F0660F771F881F68
:10557000991F1AF0BA95C9F714C0B13091F00E9482
:105580006529B1E008950C946529672F782F882745
:10559000B85F39F0B93FCCF3869577956795B395A9
:1055A000D9F73EF490958095709561957F4F8F4F18
:1055B0009F4F08950E941A2B90F09F3748F4911145
:1055C00016F00C94662960E070E080E89FEB089587
:1055D00026F41B16611D711D811D0C94F12A0C947B
:1055E0000C2B882371F4772321F09850872B762F8A
:1055F00007C0662311F499270DC09051862B70E0E7
:1056000060E02AF09A95660F771F881FDAF7880FF7
:105610009695879597F908959F3F31F0915020F422
:10562000879577956795B795880F911D969587957E
:1056300097F908950E944B29A0F0BEE7B91788F4A6
:10564000BB279F3860F41616B11D672F782F882767
:10565000985FF7CF869577956795B11D93959639A5
:10566000C8F308950E94872808F48FEF08959F9348
:105670000E94462B0F9007FCEE5F0C946F2B0E944C
:105680008728880B990B08950C9421290E944B2997
:10569000D8F3E894E0E0BB279F57F0F02AED3FE015
:1056A00049EC06C0EE0FBB0F661F771F881F28F05E
:1056B000B23A62077307840728F0B25A620B730B81
:1056C000840BE3959A9572F7803830F49A95BB0F66
:1056D000661F771F881FD2F790480C940E2BEF930C
:1056E000E0FF07C0A2EA2AED3FE049EC5FEB0E9431
:1056F000DD290E9432290F90039401FC9058E8EEB6
:10570000F0E00C94832B9F938F937F936F93FF9381
:10571000EF939B01AC010E94AB28EF91FF910E9497
:10572000972B2F913F914F915F910C94AB28DF9372
:10573000CF931F930F93FF92EF92DF927B018C0127
:10574000689406C0DA2EEF010E94BE28FE01E8949C
:10575000A5912591359145915591A6F3EF010E94B0
:10576000DD29FE019701A801DA9469F7DF90EF9037
:10577000FF900F911F91CF91DF91089597FB072E16
:1057800016F4009407D077FD09D00E94FA2B07FC8D
:1057900005D03EF4909581959F4F08957095619541
:1057A0007F4F0895A1E21A2EAA1BBB1BFD010DC05D
:1057B000AA1FBB1FEE1FFF1FA217B307E407F507C1
:1057C00020F0A21BB30BE40BF50B661F771F881F9D
:1057D000991F1A9469F760957095809590959B0133
:1057E000AC01BD01CF010895EE0FFF1F0590F491AC
:1057F000E02D0994AA1BBB1B51E107C0AA1FBB1FC8
:10580000A617B70710F0A61BB70B881F991F5A954C
:10581000A9F780959095BC01CD010895CF93DF93B2
:105820008230910510F482E090E0E0919A05F091C9
:105830009B0520E030E0C0E0D0E0309711F14081DE
:10584000518148175907C0F04817590761F4828100
:105850009381209719F09B838A832BC090939B059B
:1058600080939A0526C02115310519F04217530778
:1058700018F49A01BE01DF01EF010280F381E02DEF
:10588000DCCF2115310509F1281B390B24303105F6
:1058900090F412968D919C9113976115710521F0EA
:1058A000FB019383828304C090939B0580939A05A8
:1058B000FD01329644C0FD01E20FF31F81939193E5
:1058C000225031092D933C933AC020919805309194
:1058D0009905232B41F420911A0130911B0130933B
:1058E00099052093980520911801309119012115EF
:1058F000310541F42DB73EB740911C0150911D0177
:10590000241B350BE0919805F0919905E217F307F8
:10591000A0F42E1B3F0B2817390778F0AC014E5F1F
:105920005F4F2417350748F04E0F5F1F50939905BE
:10593000409398058193919302C0E0E0F0E0CF019D
:10594000DF91CF9108950F931F93CF93DF9300972B
:1059500009F48CC0FC0132971382128200919A05DF
:1059600010919B050115110581F420813181820F71
:10597000931F20919805309199052817390779F5DB
:10598000F0939905E093980571C0D80140E050E08C
:10599000AE17BF0750F412962D913C911397AD01AD
:1059A0002115310509F1D901F3CF9D01DA013383C6
:1059B000228360817181860F971F8217930769F494
:1059C000EC0128813981260F371F2E5F3F4F31832D
:1059D00020838A819B8193838283452B29F4F093D2
:1059E0009B05E0939A0542C01396FC93EE931297A1
:1059F000ED01499159919E01240F351FE217F307DC
:105A000071F480819181840F951F029611969C9369
:105A10008E938281938113969C938E931297E0E0EC
:105A2000F0E0D80112968D919C911397009719F090
:105A3000F8018C01F6CF8D919C9198012E5F3F4F1C
:105A4000820F931F209198053091990528173907E7
:105A500069F4309729F410929B0510929A0502C0C0
:105A6000138212821093990500939805DF91CF91CC
:105A70001F910F910895A0E0B0E0E1E4FDE20C94E5
:105A80008329EC01009721F4CB010E940E2CB8C0B1
:105A9000FC01E60FF71F9C0122503109E217F307C2
:105AA00008F4ACC0D9010D911C9111970617170786
:105AB000B0F00530110508F49FC0C801049786179F
:105AC000970708F499C002501109061B170B0193A0
:105AD00011936D937C93CF010E94A32C8DC05B0129
