:100000000C9488010C94B0010C94B0010C94B001D4
:100010000C94B0010C94B0010C94B0010C94B0019C
:100020000C94B0010C94B0010C94890C0C94F20C5B
:100030000C94B0010C94B0010C94B0010C94B0017C
:100040000C94B0010C94B0010C94B0010C94B0016C
:100050000C94B0010C94B0010C94B0010C94D90331
:100060000C94B0010C94B0010C94B0010C94B0014C
:100070000C94B0010C94B0010C94B0010C94B0013C
:100080000C94B0010C94B0010C94B0010C94B0012C
:100090000C9423040C94B0010C94B0010C94B001A6
:1000A0000C94B0010C94B0010C94B001C402C702CE
:1000B000B602BA02BE02E802E802E802CB02CF02B0
:1000C000D302D902DD02E802E302220327032C0354
:1000D000360340038A038A038A034A0354035E03F8
:1000E000680375038A037D0305A84CCDB2D44EB9CD
:1000F0003836A9020C50B9918688083CA6AAAA2ACB
:10010000BE000000803F4E414E494E495459494E71
:1001100046CDCCCC3D0AD7233C17B7D13877CC2B72
:10012000329595E6241FB14F0A000020410000C817
:100130004200401C4620BCBE4CCA1B0E5AAEC59D98
:100140007420433A00543A0020433A006E6F6E65C3
:1001500000543A0052657374617274696E6720616D
:100160006E6420656E746572696E6720626F6F746D
:100170006C6F616465722E2E2E0054617267657417
:100180002074656D706572617475726520746F6F2F
:1001900020686967682C2073657474696E672074C1
:1001A0006F2054454D50455241545552455F4D4185
:1001B0005820646567726565730054617267657481
:1001C0002074656D706572617475726520746F6FEF
:1001D000206C6F772C2073657474696E6720746F60
:1001E0002054454D50455241545552455F4D494E5E
:1001F0002064656772656573000000000200090FE6
:100200000000030401000C0000080B0002020201C0
:10021000000904000001020200000524001001058D
:1002200024010101042402060524060001070581BA
:100230000310004009040100020A00000007050243
:100240000240000007058302400000040309041275
:10025000010002EF020140D80493EE000101020305
:10026000014D6963726F6368697020546563686EDD
:100270006F6C6F677920496E63004F70656E7472A2
:100280006F6E732054656D704465636B00000000F1
:1002900000250028002B002E003100000000002463
:1002A0000027002A002D0030000404040404030485
:1002B0000502020202040302020202060606060604
:1002C00006040402020204040802011040804010E7
:1002D000204080408008020401804020100201106C
:1002E00080102040402076657273696F6E3A00205E
:1002F0006D6F64656C3A0073657269616C3A0007F2
:100300000605040100080A0B0C0D0900CE23AB23DF
:1003100011241FBECFEFDAE0DEBFCDBF25E0A4E39E
:10032000B2E001C01D92A53AB207E1F712E0A0E0E9
:10033000B1E0EAE1FDE502C005900D92A433B107FA
:10034000D9F711E0C7E8D1E004C02197FE010E946F
:100350001D2CC638D107C9F70E94091A0C94802EAB
:100360000C9400003FB7F8948091B8029091B902C4
:10037000A091BA02B091BB0226B5A89B05C02F3F41
:1003800019F00196A11DB11D3FBFBA2FA92F982FBB
:100390008827820F911DA11DB11DBC01CD0142E036
:1003A000660F771F881F991F4A95D1F7089585ED2D
:1003B0008093BC008091BC0084FDFCCF109270053E
:1003C000089540918E02262F30E0240F311D2132F6
:1003D0003105DCF4209170052430C9F4FC0180E083
:1003E00090E0861758F430918E022191DC01A459D7
:1003F000BD4FA30FB11D2C930196F3CF80918E02B8
:10040000680F60938E0280E0089581E0089582E095
:1004100008950895E091720580917105E81730F410
:10042000F0E0ED58FA4F808190E008958FEF9FEF54
:1004300008959091720580917105981750F4E92FF5
:10044000F0E0ED58FA4F208130E09F5F9093720505
:1004500002C02FEF3FEFC90108958091710590E030
:1004600020917205821B91090895CF92DF92EF923D
:10047000FF920F931F93CF93DF937C01262F972F2B
:100480008A018091C402882391F0C62FD72F6E0174
:10049000C40ED51ECC15DD0571F06991D701ED9123
:1004A000FC910190F081E02DC7010995F3CF642FF5
:1004B000822F0E94E101C801DF91CF911F910F911E
:1004C000FF90EF90DF90CF900895CF93DF931F922E
:1004D000CDB7DEB769832091C4022223D1F02091E9
:1004E000C102203240F021E030E0FC01338322835E
:1004F00080E090E015C08091C202E82FF0E0E45B5C
:10050000FD4F998190838F5F8093C2028093C102D7
:1005100005C061E0CE0101960E94E10181E090E01A
:100520000F90DF91CF910895089580E090E00895B5
:100530000895362F90E0FC01E750FE4F4491FC01F6
:10054000E953FD4F2491FC01E755FD4F8491882329
:1005500009F451C04423E1F150E0FA013197EF3042
:10056000F105B0F5EA5AFF4F0C941D2C90918000D4
:100570009F7707C0909180009F7D03C0909180007D
:10058000977F9093800024C094B59F7702C094B564
:100590009F7D94BD1DC0909190009F7707C0909162
:1005A00090009F7D03C090919000977F9093900062
:1005B0000FC09091C0009F7703C09091C0009F7DB5
:1005C0009093C00005C09091C200977F9093C200A5
:1005D000E82FF0E0EE0FFF1FE357FD4FA591B49118
:1005E0008FB7F894EC91311103C020952E2301C0F0
:1005F0002E2B2C938FBF08951F93CF93DF93182F2B
:10060000EB010E94C112209711F460E004C0CF3FBB
:10061000D10539F461E0812FDF91CF911F910C94C6
:100620009902E12FF0E0E750FE4FE4914E2F50E0A9
:10063000FA013197EF30F10508F06CC0EB59FF4F2C
:100640000C941D2C84B5806884BDC7BD68C084B57A
:10065000806284BDC8BD63C0809180008068809343
:100660008000D0938900C093880059C08091800099
:10067000806280938000D0938B00C0938A004FC02B
:1006800080918000886080938000D0938D00C0931B
:100690008C0045C080919000806880939000D0933A
:1006A0009900C09398003BC0809190008062809335
:1006B0009000D0939B00C0939A0031C0809190002D
:1006C000886080939000D0939D00C0939C0027C0C9
:1006D0008091C00080688093C0008091C0008F7BB3
:1006E0008093C000C093CF001AC08091C000806288
:1006F0008093C000C093D00012C08091C200886077
:100700008093C2008091C2008B7F8093C200C0930F
:10071000D20005C0C038D1050CF07CCF76CFDF9178
:10072000CF911F9108958F929F92AF92BF92CF92D7
:10073000DF92EF92FF926B017C010E94B2014B01AC
:100740005C01C114D104E104F104F1F00E94B20192
:10075000DC01CB0188199909AA09BB09883E93409D
:10076000A105B10570F321E0C21AD108E108F10832
:1007700088EE880E83E0981EA11CB11CC114D10420
:10078000E104F10419F7DDCFFF90EF90DF90CF90F7
:10079000BF90AF909F908F9008952FB7F89460917D
:1007A000B4027091B5028091B6029091B7022FBF4A
:1007B00008951F920F920FB60F9211242F933F931B
:1007C0008F939F93AF93BF938091B4029091B502A2
:1007D000A091B602B091B7023091B30223E0230F8B
:1007E0002D3720F40196A11DB11D05C026E8230F69
:1007F0000296A11DB11D2093B3028093B402909381
:10080000B502A093B602B093B7028091B80290915E
:10081000B902A091BA02B091BB020196A11DB11D0F
:100820008093B8029093B902A093BA02B093BB022E
:10083000BF91AF919F918F913F912F910F900FBEDC
:100840000F901F9018951F920F920FB60F921124C0
:100850002F933F934F935F936F937F938F939F93C8
:10086000AF93BF93EF93FF938091B900887F803659
:1008700009F49CC068F5883209F45BC090F48031BB
:1008800009F454C038F4882309F4F6C0883009F418
:100890004DC0F6C0883109F44CC0803209F45DC007
:1008A000EFC0803409F468C048F4803309F455C0BF
:1008B000883309F0E5C080936E05D8C0803509F40F
:1008C0004FC0883509F45DC0883409F0D9C0D6C05E
:1008D000883909F4C7C0A8F4883709F467C038F428
:1008E000883609F463C0803709F460C0C9C088380D
:1008F00009F4B8C0803909F45FC0803809F0C0C07D
:100900005BC0803B09F486C038F4803A09F466C0C5
:10091000883A09F47FC0B4C0803C09F4A7C0883C81
:1009200009F4A4C0883B09F48AC0AAC080916B0571
:1009300010C090916D0580916C05981770F5E0914D
:100940006D0581E08E0F80936D05F0E0E65BFA4F58
:1009500080818093BB0085EC86C080936E058EC03D
:10096000E0916D0581E08E0F80936D058091BB0055
:10097000F0E0E65BFA4F808390916D0580916C0505
:100980006EC0E0916D0581E08E0F80936D058091C2
:10099000BB00F0E0E65BFA4F808380916F05811128
:1009A0006DC081E080936A0584EA61C083E0809332
:1009B00070051092B202CFCF8091B202803208F05F
:1009C00051C0E091B20281E08E0F8093B20280911B
:1009D000BB00F0E0EE56FD4F8083BDCF85EC8093E9
:1009E000BC00109270058091B202803230F4E09128
:1009F000B202F0E0EE56FD4F10826091B20270E05C
:100A0000E0919002F091910282E992E009951092B2
:100A1000B20236C084E08093700510928F0210926B
:100A20008E02E0918C02F0918D02099580918E02E8
:100A3000811105C081E080938E0210926C02E091DA
:100A40008F0281E08E0F80938F02F0E0E459FD4F1A
:100A500080818093BB0090918F0280918E029817C5
:100A600008F479CF85E88093BC000AC085EC8093B8
:100A7000BC001092700504C010926E050E94D70150
:100A8000FF91EF91BF91AF919F918F917F916F9166
:100A90005F914F913F912F910F900FBE0F901F903C
:100AA00018952091C1029091C302213208F04AC0EA
:100AB000809170058111FCCF32E03093700531E0F8
:100AC00030936F053FEF30936E0510926D052093C4
:100AD0006C05ACE4B2E04AE455E0FA013E2F341B69
:100AE000321718F43D913193F9CF10926B05209194
:100AF0006B05990F922B90936B0590916A0591303D
:100B000061F410926A0590916B059093BB009091EF
:100B1000BC0093FDF8CF95EC01C095EE9093BC001E
:100B2000909170059230E1F390916E059F3F79F0BE
:100B300080916E05803241F080916E05803331F0F6
:100B400084E005C081E003C082E001C083E0109230
:100B5000C2021092C1021092C4020895DC01ED910C
:100B6000FC910190F081E02D09942F923F924F92D9
:100B70005F926F927F928F929F92AF92BF92CF922D
:100B8000DF92EF92FF920F931F93CF93DF93CDB736
:100B9000DEB728970FB6F894DEBF0FBECDBF1C019D
:100BA0002A013B0109831A832B833C83DC015B967A
:100BB000BC92AE925A9781E0AA94AB2809F080E0EB
:100BC000F10183AF408251826282738289819A816E
:100BD000AB81BC8184839583A683B783C086D1868D
:100BE000E286F38666A577A580A991A90E9473285D
:100BF00020E030E04AE754E40E945B2A6D837E8364
:100C00008F839887F10144865586668677869B0197
:100C1000AC0169817A818B819C810E94D4284B012F
:100C20005C01D10150966D937D938D939C93539766
:100C30002D813E814F815885C701B6010E945B2AF4
:100C40006B017C01F101648B758B868B978B808D9A
:100C5000918D019741F5A301920160E070E0CB0115
:100C60000E94EE29D1011C966D937D938D939C93E8
:100C70001F97A501940160E070E0CB010E94EE296E
:100C8000F101608B718B828B938BA701960160E0E1
:100C900070E0CB010E94EE29D10154966D937D93B3
:100CA0008D939C93579728960FB6F894DEBF0FBE8E
:100CB000CDBFDF91CF911F910F91FF90EF90DF900B
:100CC000CF90BF90AF909F908F907F906F905F90EC
:100CD0004F903F902F9008954F925F926F927F9226
:100CE0008F929F92AF92BF92CF92DF92EF92FF923C
:100CF000C0900805D0900905E0900A05F0900B051A
:100D000020E030E0A901C701B6010E946E28809062
:100D10004B0490904C04A0904D04B0904E0487FF7B
:100D20004FC020E030E0A901C701B6010E945B2B53
:100D30002601370118169CF077FA709477F87094B2
:100D400020E030E0A901C301B2010E945B2B18161C
:100D500024F0C12CD12C760102C073016201A501DF
:100D60009401C701B6010E94D4280E94CD2A709335
:100D7000420460934104072E000C880B990B0E94DB
:100D800075289B01AC01C501B4010E94EE290E94A7
:100D9000CD2A709344046093430420E030E0A9011D
:100DA000C301B2010E945B2B18160CF041C08DE00C
:100DB00090E0909346048093450460E08AE02FC061
:100DC000A5019401C701B6010E94D4280E94CD2A32
:100DD0007093420460934104072E000C880B990B1A
:100DE0000E9475289B01AC01C501B4010E94EE2947
:100DF0000E94CD2A709344046093430420E030E0C5
:100E0000A901C701B6010E945B2B18168CF48AE079
:100E100090E0909346048093450460E08DE00E944A
:100E2000990261E088E00E94990281E08093490480
:100E3000FF90EF90DF90CF90BF90AF909F908F90FA
:100E40007F906F905F904F900895CF92DF92EF92D6
:100E5000FF926B017C0120E030E0A9010E946E2826
:100E600087FD11C020E030E040E85FE3C701B60134
:100E70000E945B2B181654F4C12CD12C30E8E32EC1
:100E80003FE3F32E03C0C12CD12C760180913F02A9
:100E9000882359F120E030E04AEF54E4C701B6015D
:100EA0000E94D4280E94D42A60933702709338029B
:100EB0008093390290933A0220EDC22E27E0D22E81
:100EC000E12CF12CA7019601261B370B480B590B7F
:100ED00020930001309301014093020150930301DC
:100EE000FF90EF90DF90CF90089520E030E04FE743
:100EF00053E4C701B6010E94D4280E94CD2A89E09C
:100F0000FF90EF90DF90CF900C94FC02CF92DF9295
:100F1000EF92FF92CF93C0901001D0901101E0901A
:100F20001201F090130120E030E040E751E4C701E6
:100F3000B6010E946E2887FD15C020E030E040E732
:100F400051E4C701B6010E945B2B181614F520E08E
:100F500030E04CE052E4C701B6010E946E2887FDE4
:100F600003C017C0C1E016C0A7019601609114012B
:100F70007091150180911601909117010E94EE2940
:100F8000C1E020E030E040E05FE30E945B2B1816F8
:100F90000CF0C0E08C2FCF91FF90EF90DF90CF90BE
:100FA00008954F925F926F927F92AF92BF92CF92CD
:100FB000DF92EF92FF920F931F93CF93DF93CDB702
:100FC000DEB72A970FB6F894DEBF0FBECDBF6B0118
:100FD0007C0120E030E040E151EC0E946E2887FF68
:100FE0001BC01A8219821C821B821E821D826AEB20
:100FF00071E0CE0101960E940F0CCE0101960E9475
:101000004F12CE0101960E946F0CC12CD12C90E1A1
:10101000E92E91ECF92E24C020E030E046EC52E4B9
:10102000C701B6010E945B2B1816D4F41A821982EC
:101030001C821B821E821D826AE771E0CE0101962E
:101040000E940F0CCE0101960E944F12CE01019614
:101050000E946F0CC12CD12C86ECE82E82E4F82E75
:101060000E948607882351F00E94CD0360933B02C3
:1010700070933C0280933D0290933E02C092100117
:10108000D0921101E0921201F09213010E948607A2
:10109000882351F00E94CD0360933B0270933C0281
:1010A00080933D0290933E0281E08093D9048CEDC1
:1010B00095E09093DB048093DA04C0901001D09007
:1010C0001101E0901201F090130120911401309170
:1010D00015014091160150911701C701B6010E94F8
:1010E000EE2920E030E040E05FE30E945B2B181621
:1010F0000CF099C020E030E040E751E4C701B601B0
:101100000E946E2887FF0EC0A12CB12CC12CD12CBF
:1011100076010FE812EC25E73CE34DE35AE067E582
:101120007EE37DC020E030E040E252E4C701B6013A
:101130000E946E28181674F0A12CB12CC12CD12C51
:10114000760106EA1BE924E43CE34BE754E16EE256
:101150007EE365C020E030E048EC52E4C701B60110
:101160000E945B2B87FD0EC0A12CB12CC12CD12C71
:1011700076010CEE11E528EB3CE348EB5EE165E817
:101180007EE34DC020E030E040E252E4C701B6010A
:101190000E94EE2920E030E040E752E40E945B2A02
:1011A0006B017C0122E338E04CE25CE30E94D4282E
:1011B00026EA3BE944E45CE30E94EF296F837887E9
:1011C00089879A872AEE31E548EB5DE3C701B601CE
:1011D0000E94D4282BE734E14EE25EE30E94EF291F
:1011E0002B013C0120E030E0A9010E946E2887FD20
:1011F0001AC020E030E0A9016F81788589859A8541
:101200000E946E2887FD0FC0A12CB12CC12CD12CBF
:1012100076010F81188529853A85B301A2018CE0FA
:1012200095E00E94B5052A960FB6F894DEBF0FBE72
:10123000CDBFDF91CF911F910F91FF90EF90DF9085
:10124000CF90BF90AF907F906F905F904F90089538
:10125000CF92DF92EF92FF920F931F93CF93DF9382
:10126000EB017B0124E0E20EF11C8B016C01C61A3C
:10127000D70AC601800F911F0E949529F80181931A
:101280008F01EE15FF05A9F7CE01DF91CF911F91D8
:101290000F91FF90EF90DF90CF9008954091BE02A4
:1012A0005091BF022091BC023091BD0242175307FA
:1012B000B4F49091E8009570E1F39091E80092FD0C
:1012C00019C08093F1008091BE029091BF020196F7
:1012D0008F739927892B19F48EEF8093E800809102
:1012E000BE029091BF0201969093BF028093BE020E
:1012F00081E0089580E00895CF92DF92EF92FF920F
:101300000F931F93CF93DF931F92CDB7DEB7182FA4
:10131000062FE42E862F880F8E5F99830E944E0938
:1013200083E00E944E09F12EC12E9981D92E8C2D79
:101330008F19801798F4F601E7FE02C0849101C06E
:1013400080810E944E09182F80E00E944E0981235F
:10135000FFEFCF1ADF0A8111EACF01C081E00F90C1
:10136000DF91CF911F910F91FF90EF90DF90CF9081
:101370000895DF92EF92FF920F931F93CF93DF9325
:10138000D82E8A017B01E40EF51EEB01CE15DF0598
:1013900071F0D7FE03C0FE01849101C088810E94D4
:1013A0004E0921968111F2CF8FEF9FEF01C0C80146
:1013B000DF91CF911F910F91FF90EF90DF900895F3
:1013C000CF92DF92EF92FF920F931F93CF93DF9311
:1013D0006C017A018B01C0E0D0E0CE15DF0589F009
:1013E000D8016D918D01D601ED91FC910190F081B4
:1013F000E02DC6010995892B11F47E0102C02196CA
:10140000ECCFC701DF91CF911F910F91FF90EF902B
:10141000DF90CF900895CF93DF931F92CDB7DEB7C3
:101420006983DC01ED91FC910280F381E02D41E0C4
:1014300050E0BE016F5F7F4F09950F90DF91CF9114
:10144000089583E08093E9008091F200882319F0E9
:101450008AE38093E8000895FC018485958597FDD3
:101460000BC09FB7F89482E08093E9008091F2006E
:101470009FBF90E0019608959FB7F89482E0809313
:10148000E9008091F2009FBF90E008950E942E2E07
:101490000F931F93CF93DF93EC018881998100977D
:1014A00029F02A813B812617370788F48B016F5F6B
:1014B0007F4F0E94642D009761F0998388831B837E
:1014C0000A832C813D81232B11F4FC01108281E0E1
:1014D00001C080E0DF91CF911F910F910895CF93CC
:1014E000DF93EC0188819981009711F00E94CC2C48
:1014F000198218821D821C821B821A82DF91CF9171
:1015000008950F931F93CF93DF931F92CDB7DEB74C
:1015100082E0898342E450E069E072E080E80E9462
:10152000B9090E94F519DC0112960D911C911397CF
:101530000115110569F0D801ED91FC910280F3814C
:10154000E02DBE016F5F7F4FC801099597FF07C06F
:1015500089810F90DF91CF911F910F910895F8012C
:1015600000851185E5CF8F929F92AF92BF92CF9267
:10157000DF92EF92FF920F931F93CF93DF935C0163
:101580006B017A0180910F01882309F459C0809181
:101590004905882309F454C08091350280FF05C0B5
:1015A0008091E00082608093E000E70110E00AEFA4
:1015B00083E0882E9AE3992E2097D1F10E94E419B6
:1015C000811109C00150E1F161E070E080E090E03C
:1015D0000E949303F1CF282F30E0C217D3070CF4F9
:1015E0008C2F4FB7F8948092E9009091E80095FF16
:1015F0001DC0282F30E0C21BD30BF601982F91504D
:1016000020F081918093F100FACFC20ED31E1123F6
:1016100019F09092E80009C08091E80085FD06C0AD
:101620009092E80011E0209709F010E04FBFC4CF7E
:101630001111C4CF84E68093C0021E141F0444F02D
:1016400081E090E0F5019383828380E090E001C027
:10165000C701DF91CF911F910F91FF90EF90DF9025
:10166000CF90BF90AF909F908F9008950E94E41903
:1016700090E00895CF93DF931F92CDB7DEB7FC01C2
:101680008485958597FD05C02FEF3FEF358724872B
:101690000BC0CE0101960E94BB19019719F48981F4
:1016A00090E002C08FEF9FEF0F90DF91CF910895F0
:1016B0000F931F93CF93DF931F92CDB7DEB78C01AB
:1016C000FC018485958597FF0EC0CE0101960E948E
:1016D000BB19019719F4298130E002C02FEF3FEFC9
:1016E000F80135872487F801848595850F90DF916F
:1016F000CF911F910F910895CF93DF93DC01149642
:10170000ED91FC9115976E177F0728F5411551054E
:1017100011F19F01261B370B4217530708F49A015A
:10172000DB01EC0188819981E21BF30BFD83EC83E3
:10173000AF01461B570B260F371FBC01620F731FEB
:101740008A0F9B1F0E94572EE881F9818C819D8111
:10175000E80FF91F1082DF91CF910895EF92FF9269
:101760000F931F93CF93DF9300D0CDB7DEB78C01DB
:1017700069831A82FC01E480F580FFEFEF1AFF0A0B
:10178000B7010E94480A882381F0F8012081318145
:1017900084819581BE016F5F7F4F820F931F0E94EE
:1017A000502EF801F582E48281E00F900F90DF91D6
:1017B000CF911F910F91FF90EF900895EF92FF92BC
:1017C0000F931F93CF93DF93FB0124813581E0803A
:1017D000F180FC0104811581E114F10411F480E031
:1017E00017C02115310599F0EC01020F131FB80144
:1017F0000E94480A882399F3288139818C819D8130
:10180000B701820F931F0E94502E1D830C8381E02D
:10181000DF91CF911F910F91FF90EF900895EF927C
:10182000FF920F931F93CF93DF93EC018B01611510
:10183000710551F0CB010E94E7267C01BC01CE016D
:101840000E94480A811104C0CE010E946F0A07C09D
:10185000FD82EC82B801888199810E94E026CE0148
:10186000DF91CF911F910F91FF90EF900895EF922C
:10187000FF920F931F93CF93DF93EC017B018A01BB
:10188000BA010E94480A811104C0CE010E946F0A69
:1018900007C01D830C83B701888199810E94502E57
:1018A000CE01DF91CF911F910F91FF90EF9008959E
:1018B000CF93DF93EC016115710559F0FB010190A5
:1018C0000020E9F73197AF01461B570B0E94370CF8
:1018D00002C00E946F0ACE01DF91CF910895FC01F2
:1018E000808191810C94CC2CFC0111821082138296
:1018F0001282158214826115710551F0FB0101906D
:101900000020E9F73197AF01461B570B0C94370CB9
:1019100008951F920F920FB60F9211248F939F93E9
:101920008091E1009091E100937F9093E10083FF2B
:101930000FC01092E90091E09093EB001092EC0040
:1019400092E39093ED001092490598E09093F00097
:1019500082FF1CC093E09093E9009091F2009923DC
:1019600019F09AE39093E8009091C002992329F02E
:101970009091C00291509093C00290914805992394
:1019800029F09091480591509093480584FF10C02C
:101990008091E2008E7E81608093E2008091E10080
:1019A0008F7E8093E100809135028E7E806111C030
:1019B00080FF11C08091E2008E7E80618093E20002
:1019C0008091E1008E7E8093E100809135028E7ED1
:1019D0008160809335029F918F910F900FBE0F9081
:1019E0001F9018951F920F920FB60F921124CF924D
:1019F000DF92EF92FF920F931F932F933F934F939A
:101A00005F936F937F938F939F93AF93BF93EF9366
:101A1000FF93CF93DF93CDB7DEB76C97DEBFCDBF1B
:101A20001092E9008091E80083FFFFC1FE017596E6
:101A3000DE2ECF2E88E08E0F8E1729F09091F100C8
:101A400090833196F9CF84E68093480582EF8093A6
:101A5000E8008D8987FF05C09091E80090FFFCCFDA
:101A600003C09EEF9093E800982F907609F0C5C0D0
:101A70009E892F89188D91110CC0803829F480918E
:101A800036028093F10002C01092F1001092F10032
:101A90004FC1422F50E0512B913051F4811148C178
:101AA0004130510509F044C1809136028D7F0BC051
:101AB000933061F481113CC14130510509F038C1C6
:101AC0008091360282608093360232C1953041F4B3
:101AD0008091E80080FFFCCF20682093E30028C1BC
:101AE000963009F05EC0EB8CFC8C1092E9001092ED
:101AF000BF021092BE02123091F51092BD021092F8
:101B0000BC020E94810A99E0BE016F5F7F4FDB013A
:101B1000E92F1D92EA95E9F799831A8391E09E8354
:101B200090EA98879AEF99872091BE023091BF0280
:101B3000275F3F4F3C832B838D831092E9001092E7
:101B4000BF021092BE02F092BD02E092BC0249E0D8
:101B500050E080E00E94B9090E94810AE9C0F09239
:101B6000BD02E092BC020E94F519DC011296ED90D4
:101B7000FC901397E114F10409F4C7C0D701ED916B
:101B8000FC910480F581E02D6D2D7C2DC701099518
:101B9000009719F00CF0CCC0CFC0F701E084F184BD
:101BA000E9CF973009F4C8C0983021F481E08093E0
:101BB000F100BEC0993009F0BBC0837009F0BCC011
:101BC000EFE1F1E081E021E036E39081992361F0DB
:101BD0008093E9002093EB0091919093EC00309377
:101BE000ED008F5F873089F78EE78093EA001092CF
:101BF000EA008F89809349059BC08B8D9C8D109244
:101C0000E9001092BF021092BE029093BD02809331
:101C1000BC02898D81115FC08E899D89913A59F4EA
:101C2000813209F089C047E050E068E071E080E06F
:101C30000E94B9097DC0913209F07EC0833289F4D7
:101C4000888D90E0982F88272F89822BA0E0B0E024
:101C50008093040190930501A0930601B0930701BE
:101C600067C08032B1F48091E80082FFFCCFE8E0E9
:101C7000F1E087E08E0F8E1729F09091F1009083AC
:101C80003196F9CF84E6809348058BEF8093E80086
:101C900006C0823209F04CC08F8980930F01809179
:101CA0003402882319F0EEEFFAE002C0E0E0F8E039
:101CB0008091080190910901A0910A01B0910B0156
:101CC000803B9440A105B10509F07AC080910F01D5
:101CD00080FF92C075C00E94F519DC0112960D912B
:101CE0001C9113970115110539F1D801ED91FC9163
:101CF0000190F081E02D6D2D7C2DC8010995811199
:101D000017C0F80100851185EDCF113009F44EC0E0
:101D1000133091F48F89882309F445C0823081F40F
:101D200040E862E18AE792E00E947C09882321F082
:101D30008EEF8093E80079C081E28093EB0075C05C
:101D4000813029F440E868E181E692E0EDCF83300C
:101D500099F70E94F519DC011296ED90FC9013970B
:101D60008E010F5F1F4F6801E114F10479F0D70174
:101D7000ED91FC910680F781E02DB801C70109952E
:101D8000080F111DF701E084F184EECFD8011C92F9
:101D9000F60101900020E9F73197BF016C197D0928
:101DA00040E0C601C1CF6BE472E002C06FE472E0B4
:101DB0006115710509F2FB01449150E080E838CFCC
:101DC0000FB6F894A89580916000886180936000B8
:101DD000109260000FBEA895EE3F2AE0F20739F09E
:101DE0008091FE0A9091FF0A91838083A1CF109287
:101DF000FF0A1092FE0A9CCFEE3F8AE0F80731F00E
:101E0000808191819093FF0A8093FE0A87E797E78C
:101E1000918380839BE088E10FB6F894A895809326
:101E200060000FBE9093600083CF6C960FB6F8945D
:101E3000DEBF0FBECDBFDF91CF91FF91EF91BF917C
:101E4000AF919F918F917F916F915F914F913F9152
:101E50002F911F910F91FF90EF90DF90CF900F90F7
:101E60000FBE0F901F901895E091C502F091C60229
:101E7000DC0114964D915C9115976D917C910280D7
:101E8000F381E02D85EC92E00994CF92DF92FF92EE
:101E90000F931F93CF93DF931F92CDB7DEB7F62E2C
:101EA000072F152F97E5C92E94E0D92EF6019081C2
:101EB00021E02093C4029093C3021092C2021092B8
:101EC000C102A181B281ED91FC91119724E0829F22
:101ED000C0011124BC016A5F7F4F0190F081E02DA9
:101EE000CD01498309956F2D702FF6018181928173
:101EF0000E94AE05602F70E0F601818192810E9400
:101F0000AE054981642F712FF601818192810E9473
:101F1000AE05612F70E0F601818192810E94AE05CD
:101F2000F601818192810F90DF91CF911F910F91E6
:101F3000FF90DF90CF900C945105CF92DF92EF92FB
:101F4000FF92CF93C82FCB01BA0120E030E040E8E8
:101F500053E40E94D42820E030E040E851E40E949D
:101F6000D4286B017C0120E030E0A9010E946E289A
:101F700087FD12C020E030EF4FE755E4C701B601FE
:101F80000E945B2B18165CF4C12C80EFD82E8FE7D3
:101F9000E82E85E4F82E03C0C12CD12C7601C701B0
:101FA000B6010E94D42AAB0160E070E08C2FCF9183
:101FB000FF90EF90DF90CF900C94450FCF92DF927F
:101FC000EF92FF92CF93C82FCB01BA0120E030E00F
:101FD00040E853E40E94D42820E030E040E851E497
:101FE0000E94D4286B017C0120E030E0A9010E940E
:101FF0006E2887FD12C020E030EF4FE755E4C7019F
:10200000B6010E945B2B18165CF4C12C80EFD82E11
:102010008FE7E82E85E4F82E03C0C12CD12C760181
:10202000C701B6010E94D42A4FEF5FE08C2FCF91F9
:10203000FF90EF90DF90CF900C94450F8F929F927E
:10204000AF92BF92CF92DF92EF92FF920F931F93C6
:10205000CF93DF93EC017B0101E614E04C0187E0B4
:10206000880E911C8BE4A82EB12CC5010197F1F7C5
:10207000699170E080E090E00E9473282091CD0487
:102080003091CE044091CF045091D0040E94D428C6
:10209000AB01BC01F8013797808190E00E94DE0F10
:1020A000C5010197F1F7F70161917F0170E080E0D0
:1020B00090E00E9473282091CD043091CE0440918D
:1020C000CF045091D0040E94D428AB01BC01F80188
:1020D00080810F5F1F4F90E00E94DE0FC815D90569
:1020E00009F0C3CFDF91CF911F910F91FF90EF9037
:1020F000DF90CF90BF90AF909F908F9008950F93F7
:102100001F930E94CD036093CD027093CE02809303
:10211000CF029093D002E091C502F091C6020284F2
:10212000F385E02D85EC92E0099597FF1FC00E9492
:10213000CD030091CD021091CE022091CF023091BB
:10214000D002DC01CB01801B910BA20BB30B0091E1
:10215000C9021091CA022091CB023091CC028017A3
:102160009107A207B307B8F28FEF9FEF1F910F916E
:102170000895BC01009791F0FC0101900020E9F75F
:102180003197AF01481B590BE091C502F091C6028F
:102190000280F381E02D85EC92E0099480E090E0EC
:1021A00008958F929F92AF92BF920F931F93CF93F8
:1021B000DF93CDB7DEB7A1970FB6F894DEBF0FBEA1
:1021C000CDBF19A2423008F44AE08E010F5D1F4FC7
:1021D000842E912CA12CB12CA50194010E94FB2BE3
:1021E000E62FB901CA0101501109EA3014F4E05D8B
:1021F00001C0E95CD801EC93232B242B252B61F73C
:10220000C8010E94B910A1960FB6F894DEBF0FBEA8
:10221000CDBFDF91CF911F910F91BF90AF909F9055
:102220008F9008958FE192E00E94B91085E192E0CD
:102230000E94B9108FE192E00E94B91085E192E00E
:102240000C94B9100F931F93CF93DF938C01C0E0D0
:10225000D0E0F801EC0FFD1F6491662371F0E0916E
:10226000C502F091C6020190F081E02D85EC92E06C
:102270000995892B11F02196ECCFCE01DF91CF91FA
:102280001F910F910895EF92FF920F931F93CF9399
:10229000DF937C018B01EA0187EF92E00E9422111B
:1022A000C7010E94340F8FEE92E00E942211C801F4
:1022B0000E94340F85EE92E00E942211CE010E940E
:1022C000340F85E192E0DF91CF911F910F91FF9044
:1022D000EF900C94B9104F925F926F927F928F9211
:1022E0009F92AF92BF92CF92DF92EF92FF926B01DB
:1022F0007C01B42E9B01AC010E94682B882319F04D
:1023000082E292E027C026013701E89477F82FEFA8
:102310003FEF4FE75FE7C301B2010E94682B8111D5
:102320000DC02FEF3FEF4FE75FE7C301B2010E94FF
:102330006E2818161CF486E292E00CC02FEF3FEFD7
:102340004FE75FE4C701B6010E945B2B181684F4C7
:102350008AE292E0FF90EF90DF90CF90BF90AF9035
:102360009F908F907F906F905F904F900C94B910DA
:102370002FEF3FEF4FE75FECC701B6010E946E28D9
:1023800087FDE6CF20E030E0A901C701B6010E9439
:102390006E2887FF11C0E091C502F091C60201903E
:1023A000F081E02D6DE285EC92E009954C01F7FAA1
:1023B000F094F7F8F09402C0812C912CA12C60E0ED
:1023C00070E080E09FE3AB1441F020E030E040E2B9
:1023D00051E40E945B2AA394F6CF9B01AC01C70194
:1023E000B6010E94EF292B013C010E94D42A6B0107
:1023F0007C010E9473289B01AC01C301B2010E94C1
:10240000EE292B013C014AE0C701B6010E94D11020
:102410007C01E80CF91CBB2069F0E091C502F09149
:10242000C6020190F081E02D6EE285EC92E0099504
:10243000E80EF91EDB2CDD2021F120E030E040E247
:1024400051E4C301B2010E94D4282B013C010E9437
:10245000D42A4B01A12CB12C4AE0C501B4010E9441
:10246000D110E80EF91EC501B4010E9473289B012A
:10247000AC01C301B2010E94EE292B013C01DA94A8
:10248000DACFC701FF90EF90DF90CF90BF90AF9071
:102490009F908F907F906F905F904F9008950E94D3
:1024A000340F85E192E00C94B9109C01662381F011
:1024B0008091C5049091C6042817390711F080E077
:1024C00020C08091C7049091C80428173907B9F338
:1024D0008091C3049091C404662351F001968D321B
:1024E00041E094072CF49093C4048093C304E7CF95
:1024F0001092C4041092C3043093C8042093C704FC
:1025000081E03093C6042093C5048823C9F1C90132
:1025100037FF04C088279927821B930B6AE070E07D
:102520000E94E72BFB0137FF0BC027E0289FB0017B
:10253000299F700D112463587B4F86E794E01EC0DD
:102540002A3031055CF427E0289FB001299F700DE7
:10255000112463587B4F88E694E010C047E0489F01
:102560009001499F300D1124B90163587B4F4E9F54
:10257000C0014F9F900D112483589B4F0C941E1047
:10258000089590E0FC01E953FD4F2491FC01E755CB
:10259000FD4F8491882399F090E0880F991FFC01EA
:1025A000E556FD4FA591B491FC01E357FD4F859190
:1025B00094918FB7F894EC91E22BEC938FBF089530
:1025C0004F925F926F927F928F929F92AF92BF9243
:1025D000CF92DF92EF92FF920F931F93CF93DF93EF
:1025E000CDB7DEB728970FB6F894DEBF0FBECDBFCC
:1025F0002B013C0129833A834B835C83ED82FE826D
:102600000F8318878091D9048823C9F00E94CD03D5
:10261000C090D104D090D204E090D304F090D404C0
:102620006C157D058E059F0508F042C06093D104AE
:102630007093D2048093D3049093D40439C0C09093
:10264000D504D090D604E090D704F090D80420E0D0
:1026500030E040E85FE3C701B6010E946E2887FFC3
:1026600016C026E636E646E65FE3C701B6010E94DD
:102670005B2B181664F480E090E0A0E8BFE3809341
:10268000D5049093D604A093D704B093D80420E047
:1026900030E040E85FE36091D5047091D60480910A
:1026A000D7049091D8040E946E288111AFCF67C0E3
:1026B0008090DA049090DB04092C000CAA08BB0877
:1026C000C090D104D090D204E090D304F090D40410
:1026D000C80CD91CEA1CFB1CC616D706E806F9066E
:1026E00040F4C092D104D092D204E092D304F0928C
:1026F000D404C090D104D090D204E090D304F090E0
:10270000D4046C197D098E099F090E9473286B01FE
:102710007C01C501B4010E9475289B01AC01C70171
:10272000B6010E945B2A2BED3FE049E450E40E9491
:10273000D4289B01AC010E94EF290E94602B20E06D
:1027400030E040E05FE30E94D42820E030E040E049
:102750005FE30E94EF2926E636E646E65FE30E9445
:10276000D4282DEC3CEC4CEC5DE30E94EF29609307
:10277000D5047093D6048093D7049093D8048090A6
:10278000C9049090CA04A090CB04B090CC04C0902F
:10279000D504D090D604E090D704F090D804A501D9
:1027A0009401C301B2010E94D428A70196010E949E
:1027B000D4282B013C016093DC047093DD048093EA
:1027C000DE049093DF0420E030E0A901C501B401EC
:1027D0000E94D428A70196010E94D4286093E004A7
:1027E0007093E1048093E2049093E304A5019401C3
:1027F00069817A818B819C810E94D428A7019601EE
:102800000E94D4286093E4047093E5048093E60466
:102810009093E704A50194016D817E818F81988555
:102820000E94D428A70196010E94D4286093E8044E
:102830007093E9048093EA049093EB048CEDA82E46
:1028400084E0B82E10E0F501C190D190E190F190B4
:102850005F012485358546855785C701B6010E94ED
:102860006E28811111E0F501C486D586E686F786CB
:10287000FCEEAF16F4E0BF0631F7112309F44EC0A9
:1028800020E030E04FE753E4C301B2010E94D428B6
:102890000E94CD2A85E00E94FC024091E004509104
:1028A000E1046091E2047091E30480E090E00E9412
:1028B0009D0F20E030E04FE753E46091E404709115
:1028C000E5048091E6049091E7040E94D4280E94D8
:1028D000CD2A86E00E94FC024091E8045091E90470
:1028E0006091EA047091EB0487E090E028960FB6BF
:1028F000F894DEBF0FBECDBFDF91CF911F910F9136
:10290000FF90EF90DF90CF90BF90AF909F908F900F
:102910007F906F905F904F900C949D0F28960FB60C
:10292000F894DEBF0FBECDBFDF91CF911F910F9105
:10293000FF90EF90DF90CF90BF90AF909F908F90DF
:102940007F906F905F904F9008951F93CF93DF9388
:10295000162FC7E5D4E0988121E02093C40290931C
:10296000C3021092C2021092C102A981BA81ED91F4
:10297000FC9111970190F081E02D682FCD01099510
:1029800089819A81DC01ED91FC910190F081E02D2B
:10299000612F099589819A81DF91CF911F910C94C4
:1029A00051054F925F926F927F928F929F92AF925A
:1029B000BF92CF92DF92EF92FF92412C512C3201C5
:1029C000CC24CA94DC2C76014B015C0120E2820EFF
:1029D000911CA11CB11C481459046A047B0408F022
:1029E00057C0C2010E949529A70196012827DA0144
:1029F000C9018F709927AA27BB27880F991F880FB5
:102A0000991FFC01EF5DFC4F80819181A281B38110
:102A100034E0F694E794D794C7943A95D1F7C82652
:102A2000D926EA26FB26C2010E94952990E044E0BF
:102A3000959587954A95E1F7092E000CAA0BBB0BDB
:102A40008C259D25AE25BF258F709927AA27BB27EA
:102A5000880F991F880F991FFC01EF5DFC4F808143
:102A60009181A281B38164E0F694E794D794C794EE
:102A70006A95D1F7C826D926EA26FB26C094D094B9
:102A8000E094F0943FEF431A530A630A730AA3CF0A
:102A9000C701B601FF90EF90DF90CF90BF90AF904D
:102AA0009F908F907F906F905F904F900895CF93FD
:102AB000DF9326E636E646E65FE30E94D4289B01D4
:102AC000AC0160E27CEB8EEB95E40E945B2A20E097
:102AD00030E040E85FE30E94EE2920E030E040E093
:102AE0005FE30E94EF290E94032B0E94D42AD62F75
:102AF0008091570491E09093C4028093C302109296
:102B0000C2021092C1028091580490915904DC01D4
:102B1000ED91FC910190F081E02D60E009958091AC
:102B20005804909159040E94510580915704909146
:102B300070059111FCCF91E09093700590936F0513
:102B40002FEF20936E0510926D0510926C059093F7
:102B50006B0590916B05880F892B80936B05809195
:102B60006A05813061F410926A0580916B0580934B
:102B7000BB008091BC0083FDF8CF85EC01C085EEE1
:102B80008093BC00809170058130E1F380916D05E8
:102B9000811103C080916D0501C081E0AAE4B5E018
:102BA00023E735E0F9019E2F921B981718F49D91A9
:102BB0009193F9CF1092720580937105809158041A
:102BC00090915904DC01ED91FC910284F385E02D94
:102BD0000995C82F8F76682F606180E00E94A51448
:102BE0006D2F8EEF0E94A5146C2F80E00E94A5141B
:102BF00065E070E080E090E00E9493036C2F606AD3
:102C000080E0DF91CF910C94A5144F925F926F9268
:102C10007F92AF92BF92CF92DF92EF92FF920F938B
:102C20001F93CF93DF93CDB7DEB7A0970FB6F8947D
:102C3000DEBF0FBECDBF8C015B0167E172E0C50155
:102C40000E94580C19821A821B821C8201151105E0
:102C500089F001301105E9F460E270E080E090E075
:102C60000E94D1142B013C01BE016F5F7F4F80E6B3
:102C700090E00CC060E070E0CB010E94D1142B0109
:102C80003C01BE016F5F7F4F80E490E00E94280905
:102C900003C0412C512C320189819A81AB81BC81C6
:102CA000481659066A067B0649F082E08093610364
:102CB0006EE272E0C5010E94580C2CC0011511058E
:102CC00049F00130110549F490E2C92ED12CE12CD4
:102CD000F12C03C0C12CD12C7601FE01319680E28B
:102CE000DF011D928A95E9F78F01CE1ADF0A80E293
:102CF000F82EFE0EC601800F911F0E949529F80143
:102D000081938F01882331F0682FC5010E94AE0B9B
:102D1000F012F0CFA0960FB6F894DEBF0FBECDBF75
:102D2000DF91CF911F910F91FF90EF90DF90CF90A7
:102D3000BF90AF907F906F905F904F900895CF922B
:102D4000DF92EF92FF92CF93DF93C1E4D4E0CA8485
:102D5000DB84EC84FD8420E030E0A901C701B601EA
:102D60000E94D4280E94CD2A79836883072E000C04
:102D7000880B990B0E9475289B01AC01C701B60115
:102D80000E94EE290E94CD2A7B836A8360E08DE059
:102D90000E94990260E08AE00E94990260E088E067
:102DA0000E9499021886DF91CF91FF90EF90DF90FB
:102DB000CF9008952F923F924F925F926F927F92A1
:102DC0008F929F92AF92BF92CF92DF92EF92FF923B
:102DD0000F931F93CF93DF93C7E9D3E0C12CD12C7E
:102DE000760169917991072E000C880B990B0E944E
:102DF00075289B01AC01C701B6010E94EF296B0148
:102E00007C0183E0C53BD80761F720E030E040E774
:102E100051E4C701B6010E945B2A6B017C016093FB
:102E2000B5037093B6038093B7039093B803609192
:102E30003D0470913E04072E000C880B990B0E94F4
:102E400075289B01AC01C701B6010E946E2887FF5F
:102E500005C060913F047091400416C06091B903B1
:102E60007091BA03072E000C880B990B0E947528ED
:102E70009B01AC01C701B6010E945B2B18165CF4E4
:102E80006091BB037091BC03072E000C880B990B5B
:102E90000E94752897C029EBA22E23E0B22E00E0F5
:102EA00010E0F501C081D1811801FFEF2F1A3F0A10
:102EB000F50184809580B401092C000C880B990BD6
:102EC0000E9475289B01AC01C701B6010E945B2BD3
:102ED00087FD6FC0BE010D2E000C880B990B0E9460
:102EE00075282B013C019B01AC01C701B6010E9472
:102EF0006E2818160CF45DC0A7019601C301B2013B
:102F00000E94EE296B017C0120E030E0A9010E94C3
:102F10005B2B181624F0F7FAF094F7F8F094000FF2
:102F2000111F000F111FF801EA56FC4F05A116A151
:102F3000B801012E000C880B990B0E9475282B01FB
:102F40003C01C819D909D7FF03C0D195C195D10952
:102F5000BE01DD0F880B990B0E9475289B01AC0107
:102F6000C701B6010E945B2A6B017C01F101EE0FE3
:102F7000FF1FEE0FFF1FEA56FC4F65A176A1601BF5
:102F8000710B77FF03C0719561957109072E000CD5
:102F9000880B990B0E9475289B01AC01C701B601F3
:102FA0000E94D4289B01AC01C301B2010E94EF2909
:102FB00009C0F4E0AF0EB11C81010132110509F026
:102FC00070CF04C0262F572F482F392F622F752F0F
:102FD000842F932FDF91CF911F910F91FF90EF904E
:102FE000DF90CF90BF90AF909F908F907F906F9029
:102FF0005F904F903F902F900895E4E0F3E0E491CC
:1030000020917B00E3FB882780F990E035E0880F72
:10301000991F3A95E1F7922F9F7D892B80937B0032
:10302000E770E064E0937C0080917A008064809394
:103030007A0080917A0086FDFCCF80917800209103
:10304000790090E0922B08952F923F924F925F92D9
:103050006F927F928F929F92AF92BF92CF92DF92A8
:10306000EF92FF920F931F93CF93DF93CDB7DEB70D
:103070002D970FB6F894DEBF0FBECDBF0E94CD03D3
:103080006D837E838F83988780912E0590912F0585
:10309000A0913005B09131054D815E816F817885B9
:1030A000481B590B6A0B7B0B80913A0590913B05AD
:1030B000A0913C05B0913D05481759076A077B0769
:1030C00008F423C12091280530912905D9018D915B
:1030D0009D910D90BC91A02D89839A83AB83BC8375
:1030E000E0912C05F0912D059C01AD01608171816D
:1030F000828193810E94EE294B015C01209136056B
:1031000030913705409138055091390569817A81B0
:103110008B819C810E94EE296B017C0120911C0512
:1031200030911D0540911E0550911F05C501B40148
:103130000E94D42820913205309133054091340506
:10314000509135050E94EF292B013C016093320517
:10315000709333058093340590933505309047057F
:1031600031101AC0209118053091190540911A05A7
:1031700050911B05C701B6010E94D4289B01AC01E8
:10318000C301B2010E94EE296093320570933305AA
:103190008093340590933505409032055090330567
:1031A000609034057090350510914205B09143054B
:1031B000BD872090440500914505212F3B2F422DCE
:1031C000502FC301B2010E945B2B18162CF4812FE3
:1031D0009D85A22DB02F18C080913E0590913F058E
:1031E000A0914005B091410589879A87AB87BC873C
:1031F0009C01AD01C301B2010E946E2887FF0CC083
:1032000089859A85AB85BC8580933205909333057B
:10321000A0933405B0933505332079F0209118053B
:103220003091190540911A0550911B05C501B40153
:103230000E94D4284B015C0103C0812C912C5401C5
:1032400020912005309121054091220550912305C0
:10325000C701B6010E94D4289B01AC0160913205E0
:103260007091330580913405909135050E94EE29C7
:103270009B01AC01C501B4010E94EF296B017C01E7
:10328000212F3D85422D502F0E945B2B1816BCF03C
:1032900010913E0590913F059D872090400500913B
:1032A0004105212F392F422D502FB601C7010E9411
:1032B0006E2887FD04C01C2DDD862E2C0F2DE0917D
:1032C0002A05F0912B05812F9D85A22DB02F80839B
:1032D0009183A283B38389819A81AB81BC818093DE
:1032E000360590933705A0933805B09339058D8145
:1032F0009E81AF81B88580932E0590932F05A09372
:103300003005B093310581E001C080E02D960FB605
:10331000F894DEBF0FBECDBFDF91CF911F910F910B
:10332000FF90EF90DF90CF90BF90AF909F908F90E5
:103330007F906F905F904F903F902F900895CF9324
:10334000DF932091000530910105232B79F0FC01DA
:10335000C091FC04D091FD0460817181CE010E9476
:10336000662E009719F08C1B9D0B02C08FEF9FEF0C
:10337000DF91CF910895FC0180914905811103C02F
:103380008FEF9FEF08959FB7F89482E08093E90054
:103390002091F20030E01216130614F421E030E020
:1033A0002115310551F084E6809348058091F100A4
:1033B00080838091F200882319F09FBFC90108958E
:1033C0008BE68093E800F9CF2FB7F89483E08093E1
:1033D000E9009091E800892F807295FF04C09091D8
:1033E000F20080E4891B2FBF089580919705811119
:1033F0000DC082E08093930584E080939405109241
:1034000096051092950581E08093970583E995E0F4
:103410000895CF93DF93CDB7DEB7A0970FB6F8949A
:10342000DEBF0FBECDBF789484B5826084BD84B505
:10343000816084BD85B5826085BD85B5816085BDAF
:1034400080916E00816080936E0010928100809167
:1034500081008260809381008091810081608093EF
:103460008100809180008160809380008091910034
:10347000826080939100809191008160809391009F
:10348000809190008160809390008091C100846061
:103490008093C1008091C10082608093C1008091BF
:1034A000C10081608093C1008091C30081608093DE
:1034B000C3008091C00082608093C0008091C200F0
:1034C00081608093C20080917A00846080937A004A
:1034D00080917A00826080937A0080917A00816086
:1034E00080937A0080917A00806880937A001092AD
:1034F000490510923602109235028091D700816002
:103500008093D70080EA8093D80089B5806189BD17
:1035100089B5826089BD09B400FEFDCF61E070E02D
:1035200080E090E00E9493038091D8008F7C8061BE
:103530008093D8008091E000807F8093E0008091AC
:10354000E1008E7E8093E1008DE08093E200EEEF5B
:10355000FFE7859194918B3F9C4D19F481E0809316
:1035600034020FB6F894A89580916000886180932A
:103570006000109260000FBE64EF71E088E693E097
:103580000E94580C69EF71E08EE693E00E94580C9F
:103590006EEF71E08AE793E00E94580C63E072E0FE
:1035A00084E793E00E94580C67E072E080E893E0C3
:1035B0000E94580C8FEF9FEF9093D2028093D1021C
:1035C00083E090E0A0E0B0E08093C9029093CA024B
:1035D000A093CB02B093CC028BE00E94C11289E091
:1035E0000E94C11260E070E0CB010E94250780E0DC
:1035F00090E0AAE7B3E480934B0490934C04A0932B
:103600004D04B0934E048DE00E94C1128AE00E94E6
:10361000C11288E00E94C1120E949F160E949F164C
:1036200062E075E080E090E00E9405161092610370
:103630006CEF74E081E090E00E9405161092610347
:103640006BE072E0CE0101960E94740CCE010196EF
:103650000E949F198C01CE0101960E946F0C1016DA
:10366000110624F481E080933F0215C060E172E00E
:10367000CE0101960E94740CCE0101960E949F1902
:103680008C01CE0101960E946F0C101611061CF4DD
:1036900081E080934A0285E00E94C11286E00E9488
:1036A000C1128CE08093B8001092720510927105DF
:1036B0001092C2021092C1021092700581E08093B4
:1036C0006F0510926A0561E082E00E94990261E054
:1036D00083E00E9499028091B9008E7F8093B900A7
:1036E0008091B9008D7F8093B90088E48093B80001
:1036F00085E48093BC0060E880E00E94A5146AE045
:1037000070E080E090E00E94930360E070E08AE760
:1037100094E40E9457150BE410E0C8010197F1F7FB
:1037200060E070E088EC94E40E945715C8010197AE
:10373000F1F780E090E0A0E8BEE38093CD049093A1
:10374000CE04A093CF04B093D00480E090E0A0E03A
:10375000BFE38093C9049093CA04A093CB04B093B1
:10376000CC040091960310E00E94FD17000F111F7A
:10377000F801EA56FC4F92838183809196038F5F14
:10378000809396038F3068F3109296030E94DA16A6
:1037900060931401709315018093160190931701A3
:1037A00080E090E0A8EBB1E48093100190931101C8
:1037B000A0931201B09313018091460500912A0550
:1037C00010912B05811145C0F801C080D180E280A5
:1037D000F380C0923205D0923305E0923405F09226
:1037E0003505E0912805F091290580819181A2811C
:1037F000B3818093360590933705A0933805B09335
:1038000039058090420590904305A0904405B09002
:103810004505A5019401C701B6010E945B2B18164E
:1038200084F080903E0590903F05A0904005B090B8
:103830004105A5019401C701B6010E946E2887FFCA
:1038400008C08092320590923305A0923405B09260
:10385000350581E08093460560913A0570913B05FE
:1038600080913C0590913D050E9473289B01AC011D
:1038700060E070E08AEF93E40E945B2A6B017C01B8
:103880009B01AC0160911C0570911D0580911E0586
:1038900090911F050E94D42860931C0570931D050C
:1038A00080931E0590931F05A70196016091200546
:1038B0007091210580912205909123050E945B2A39
:1038C0006093200570932105809322059093230532
:1038D00084EF91E0A0E0B0E080933A0590933B053F
:1038E000A0933C05B0933D05C12CD12CB0E8EB2E44
:1038F000BFEBFB2EC0923E05D0923F05E092400503
:10390000F0924105412C512C80E8682E8FE3782EEF
:1039100040924205509243056092440570924505DD
:10392000F80180809180A280B380A3019201C5013B
:10393000B4010E945B2B181634F4F80140825182C6
:10394000628273820FC020E030E040E85FEBC50187
:10395000B4010E946E2887FF05C0F801C082D182A1
:10396000E282F3828090320590903305A090340576
:10397000B0903505C0904205D0904305E0904405D5
:10398000F0904505A7019601C501B4010E945B2B8B
:10399000181684F0C0903E05D0903F05E090400599
:1039A000F0904105A7019601C501B4010E946E285F
:1039B00087FF08C0C0923205D0923305E0923405EB
:1039C000F092350580914605811101C0FFCF0E941C
:1039D0002418382E8823B1F360E070E088EB91E47E
:1039E0000E94D10710924B021092D90460911401E9
:1039F0007091150180911601909117010E94CD2AB6
:103A00006B8B7C8B8D8B9E8B2B893C8938A32F8F66
:103A10004090C9045090CA046090CB047090CC04CC
:103A20008090CD049090CE04A090CF04B090D004AC
:103A30001092C9041092CA041092CB041092CC04C4
:103A4000E12CF12C00E81FE320E030E0A901CA01DD
:103A5000B9010E94E012E092CD04F092CE040093EE
:103A6000CF041093D00460E088E590E00E945512E6
:103A70000E94CD036F8B788F898F9A8F0E94CD0320
:103A80000E9473286B017C016F89788D898D9A8DD6
:103A90000E94732820E030E04AE754E40E94EF29B6
:103AA0009B01AC01C701B6010E946E2887FF45C08B
:103AB0000E94CD032F89388D498D5A8D621B730B5F
:103AC000840B950B0E94732820E030E04AE754E411
:103AD0000E945B2A9B01AC0160E070E080E89FE3FC
:103AE0000E94EE296B017C0120E030E0A9010E94D8
:103AF0006E2887FD11C020E030E040E85FE3C70199
:103B0000B6010E945B2B181654F4C12CD12CF0E89E
:103B1000EF2EFFE3FF2E03C0C12CD12C7601C09203
:103B2000CD04D092CE04E092CF04F092D00460E0B5
:103B300088E590E00E945512A1CF1092C90410921E
:103B4000CA041092CB041092CC041092CD041092AF
:103B5000CE041092CF041092D00460E08B899C892F
:103B60000E9455120E94CD036F8B788F898F9A8F98
:103B70000E94CD030E9473286B017C016F89788DB0
:103B8000898D9A8D0E94732820E030E04AE754E442
:103B90000E94EF299B01AC01C701B6010E946E286B
:103BA00087FF7DC00E94CD032F89388D498D5A8DA6
:103BB000621B730B840B950B0E94732820E030E08E
:103BC0004AE754E40E945B2A6B8F7C8F8D8F9E8F17
:103BD000A50194010E94D4286B017C0120E030E013
:103BE000A9010E946E2887FD11C020E030E040E866
:103BF0005FE3C701B6010E945B2B181654F4C12C79
:103C0000D12CE0E8EE2EEFE3FE2E03C0C12CD12C28
:103C10007601C092CD04D092CE04E092CF04F0920F
:103C2000D00460E08F8D98A10E945512A3019201EB
:103C30006B8D7C8D8D8D9E8D0E94D4286B017C01B7
:103C400020E030E0A9010E946E2887FD11C020E02D
:103C500030E040E85FE3C701B6010E945B2B181615
:103C600054F4C12CD12C70E8E72E7FE3F72E03C06B
:103C7000C12CD12C7601C092C904D092CA04E09222
:103C8000CB04F092CC04E12CF12C00E81FE320E0FF
:103C900030E0A901CA01B9010E94E01269CF20E019
:103CA00030E0A901C501B4010E946E2887FD11C052
:103CB00020E030E040E85FE3C501B4010E945B2BE7
:103CC000181654F4812C912C50E8A52E5FE3B52EE4
:103CD00003C0812C912C54018092CD049092CE048B
:103CE000A092CF04B092D00460E08B899C890E949E
:103CF000551220E030E0A901C301B2010E946E28F4
:103D000087FD11C020E030E040E85FE3C301B2016D
:103D10000E945B2B181654F4412C512C40E8642E61
:103D20004FE3742E03C0412C512C32014092C90440
:103D30005092CA046092CB047092CC04E12CF12C16
:103D400000E81FE320E030E0A901CA01B9010E94A8
:103D5000E01285E192E0C82E880FDD0882E993E049
:103D600033E0380F3B8B80914904882309F455C018
:103D70002091430430914404809141049091420485
:103D8000232B21F4181619060CF463C0892B09F4AF
:103D900044C00E94CD0360935304709354048093F5
:103DA00055049093560400914F04109150042091B3
:103DB000510430915204601771078207930740F451
:103DC00060934F0470935004809351049093520475
:103DD00040914A0400914F041091500420915104E5
:103DE000309152044423E1F0409041045090420449
:103DF000052C000C66087708040D151D261D371DBF
:103E0000061717072807390738F560934F04709392
:103E10005004809351049093520410924A041CC0A1
:103E20004090430450904404052C000C6608770829
:103E3000040D151D261D371D0617170728073907FE
:103E400058F460934F0470935004809351049093FE
:103E5000520481E080934A0460914A0480914504B1
:103E60000E94990285EC92E00E942C0A892B09F4A9
:103E70006CC280919003909191038536910530F04A
:103E800067E172E08CE893E00E94580C67E172E011
:103E9000CE0101960E94740C0E947F1097FD09C00C
:103EA0008C159D0531F0682FCE0101960E94AE0B56
:103EB000F3CFBE016F5F7F4F8CE893E00E94DE0B73
:103EC000CE0101960E946F0C2091900330919103D6
:103ED000A901425051094217530708F036C26091B8
:103EE0008C0370918D036115710509F42EC2FB01DD
:103EF000E40FF51F80818D3009F027C2C9010197B9
:103F00008217930708F021C2FB01E80FF91F808197
:103F10008A3009F01AC210E0612F70E0809190039E
:103F2000909191036817790718F580918C0390910F
:103F30008D03009719F4A0E4B2E003C0DC01A60FE2
:103F4000B71FE2E9F3E0009711F4109240022191CB
:103F50003C91321308C041E050E08CE893E00E94AD
:103F60007C0B115003C04B894E13EDCF1F5FD4CF94
:103F70006CE873E086E893E00E94DE0B67E172E094
:103F80008CE893E00E94580C8FEF9FEF90936303AF
:103F90008093620380918A0390918B03892B09F4AB
:103FA000D2C108E613E0E12CF12CF80164807580A1
:103FB00067E172E0CE0101960E94740C80918A0341
:103FC00090918B030097E9F043018815990508F457
:103FD0004C01E0918603F0918703E80DF91D708094
:103FE00010826091860370918703CE0101960E9432
:103FF000580C8091860390918703FC01E80DF91D10
:1040000070822D813E81F8018481958128173907BE
:1040100021F589819A8160817181009719F061157C
:104020007105A9F46115710551F02115310539F0BB
:10403000FB01808190E09195819591090AC00097DC
:1040400071F0232B61F0FC01808190E002C00E949E
:10405000472E99249394892B19F0912C01C0932C0D
:10406000CE0101960E946F0C992009F459C1F80104
:104070004481558160E070E086E893E00E947C0B0B
:10408000F0926303E0926203F2E0EF16F10459F458
:1040900060E070E088EB91E40E94D10710924B023F
:1040A0001092D90471CF23E0E216F1040CF0A5C000
:1040B000EA94EF28B1F180914B02409014015090A6
:1040C000150160901601709017018823A1F080906F
:1040D000100190901101A0901201B090130185E49D
:1040E00091E00E94221143E0C501B4010E946B11CE
:1040F00081E491E00AC081E591E00E9422118CE404
:1041000091E00E94221188E491E00E94221143E094
:10411000C301B2010E946B1185E192E00E94B910C7
:1041200033CF80918A0390918B03892B09F454C07B
:10413000E0908603F090870363E570E0C7010E947A
:104140003C2E009709F448C08C010E191F0917FD79
:1041500043C067E172E0CE0101960E94740CF12C1D
:104160000F5F1F4F80918A0390918B0308171907E7
:10417000F0F48091860390918703009729F0FC0169
:10418000E00FF11F608101C060E080ED860F8A3092
:1041900008F4F2C16D3231F48D819E81892B09F4CE
:1041A000EAC105C06E3219F4FF2009F4EAC1898121
:1041B0009A81009711F4912C0AC00E94DC2660932A
:1041C0006403709365038093660390936703CE0145
:1041D00001960E946F0C292C222009F4D5CE609103
:1041E00064037091650380916603909167030E9458
:1041F000D10751E050934B02C7CE43E0E416F104DF
:1042000009F047C068E172E0CE010D960E94740C7F
:1042100018861F821A8619861C861B866091FC04EC
:104220007091FD046115710541F0409100055091B8
:104230000105CE0107960E94370C1A8219821C8252
:104240001B821E821D82609102057091030561151B
:10425000710541F04091060550910705CE01019688
:104260000E94370CAE01435F5F4FBE01695F7F4F15
:10427000CE0101960E944311CE0101960E946F0C5F
:10428000CE0107960E946F0CCE010D960E946F0C16
:104290007BCE54E0E516F10409F00DCF0E94121117
:1042A0001A8219821C821B821E821D8264E571E0C3
:1042B000CE0101960E940F0CCE0101960E944F1272
:1042C000CE0101960E946F0C0E94CD032B013C0190
:1042D0000E94CD03DC01CB0184199509A609B70919
:1042E000883B9B40A105B10598F398E088E10FB6A3
:1042F000F894A895809360000FBE909360000E9490
:10430000CD032B013C010E94CD03DC01CB018419BC
:104310009509A609B7094997A105B105A0F334CEBF
:104320008FEFE81AF80A0A5F1F4F95E0E916F104CB
:1043300009F03BCE41E050E060E070E086E893E0B9
:104340000E947C0B27CE0E9412110091960310E070
:104350000E94FD17000F111FF801EA56FC4F9283CF
:104360008183809196038F5F8F3018F4809396033A
:1043700047C0109296030E94DA164B015C0120E0C0
:1043800030E048EB51E40E94EE292B013C016093A0
:10439000410270934202809343029093440220E0D2
:1043A00030E0A9010E945B2B18166CF420E030E08D
:1043B00040E952E4C301B2010E945B2A23E333E3E4
:1043C00043EB5FEB0DC0C301B201905820E030E039
:1043D0004EE851E40E945B2A2DEC3CEC4CEC5DEB8A
:1043E0000E94D4289B01AC01C501B4010E94EF29B1
:1043F0006093140170931501809316019093170137
:1044000080913F02882309F46BC08090370290901E
:104410003802A0903902B0903A0281149104A104AC
:10442000B10489F1409000015090010160900201B7
:1044300070900301411451046104710409F449C0EE
:1044400080914902882331F10E94CD0340904502BA
:10445000509046026090470270904802DC01CB0108
:1044600084199509A609B70988169906AA06BB06F4
:10447000B8F50E94CD036093450270934602809385
:1044800047029093480260E089E00E9499021092EE
:10449000490226C00E94CD030091450210914602B8
:1044A0002091470230914802DC01CB01801B910B27
:1044B000A20BB30B481659066A067B0688F40E94C5
:1044C000CD03609345027093460280934702909318
:1044D000480261E089E00E94990281E080934902EC
:1044E00020E030E040E05FE360911401709115013D
:1044F00080911601909117010E94EF290E94CD2A08
:10450000DC01CB0161E00E94551210914B02112396
:1045100009F444C020911401309115014091160115
:104520005091170160911001709111018091120159
:10453000909113010E94EE292B013C0120E030E014
:10454000A9010E945B2B18165CF420E030E040E0EB
:104550005FE3C301B2010E946E2887FF2DC01EC019
:1045600020E030E040E05FEBC301B2010E945B2B32
:104570001816A4F021C06DE2CE0101960E94AE0B88
:10458000EFCD8D819E81892B09F411CE6EE2CE0193
:1045900001960E94AE0BFF24F394E2CD1092D90451
:1045A000111113C0E12CF12C00E81FE320E030E0F2
:1045B000A901CA01B90129C081E08093D9048CED19
:1045C00095E09093DB048093DA0420E030E048EB40
:1045D00051E460911001709111018091120190914C
:1045E00013010E946E28E12CF12C870187FF07C080
:1045F00020E030E040E85FE3C801B70106C0A80151
:10460000970160E070E080E89FE30E94E0128091F3
:104610004605882309F477C00E942418882309F4EA
:1046200072C080914B02882309F443C00E94CD03DD
:1046300000913B0210913C0220913D0230913E02DC
:10464000601771078207930740F460933B027093F1
:104650003C0280933D0290933E0200913B021091F8
:104660003C0220913D0230913E0228013901E0EDEB
:104670004E0EE7E05E1E611C711C64157505860513
:10468000970530F40E949F1660E070E0CB0139C0BE
:104690000056104F2F4F3F4F601771078207930747
:1046A000D0F560E070E0CB010E9425070E946C0607
:1046B0002AC020E030E04CE552E460911401709192
:1046C000150180911601909117010E945B2B18161D
:1046D000CCF60E946C0680913F02882329F063E3A8
:1046E00073E383E79FE30DC080914A02882329F09A
:1046F0006DEC7CEC8CEC9DE304C06DEC7CEC8CEC04
:104700009EE30E94250780E090E0892B09F42BCBE3
:104710000E94000023CB0E948607882329F060E0D6
:1047200070E080E89FE3C0CF80913F02882329F0AA
:1047300063E373E383E79FE3B7CF80914A02882363
:1047400029F06DEC7CEC8CEC9DE3AECF6DEC7CEC59
:104750008CEC9EE3A9CFCF93DF938CE893E00E948B
:104760006F0C86E893E00E946F0C88E693E0892B3B
:1047700051F48CEF94E00E946F0C82E095E0DF91A1
:10478000CF910C946F0CC0E8D3E0CE010E946F0C67
:10479000269783E0C236D807C1F7EBCFAF92BF921E
:1047A000CF92DF92EF92FF920F931F93CF93DF93FD
:1047B0001092C8021092C70288EE93E0A0E0B0E029
:1047C0008093C9029093CA02A093CB02B093CC020B
:1047D00024ED31E03093C6022093C5022FEF3FEF66
:1047E0003093D2022093D102109218031092170333
:1047F0008093190390931A03A0931B03B0931C0397
:1048000086EE91E0909316038093150388E095E07F
:1048100090932B0580932A0584E191E090932905DC
:104820008093280580E191E090932D0580932C05DD
:104830001092460510923E0510923F0510924005D9
:104840001092410580E090E0AFE7B3E48093420529
:1048500090934305A0934405B093450584E690E00A
:10486000A0E0B0E080933A0590933B05A0933C050F
:10487000B0933D051092250510922405A12CB12C72
:10488000C12CD12C76010EEA17E421EE3CE34CE575
:104890005FE862EC7EE38CE095E00E94B5050E9443
:1048A000CD0300913A0510913B0520913C053091D4
:1048B0003D05DC01CB01801B910BA20BB30B809358
:1048C0002E0590932F05A0933005B093310567E135
:1048D00072E082E095E00E94740C67E172E08CEF78
:1048E00094E00E94740C8EE0E5E2F1E0AAE5B4E009
:1048F00001900D928A95E1F787E0E8E6F4E0DF01A8
:10490000982F1D929A95E9F7E3E3F1E0AFE6B4E062
:1049100001900D928A95E1F7109276041092770437
:10492000109278041092790410927A0410927B0409
:1049300081E080937C0486E4EAE3F1E0ADE7B4E053
:1049400001900D928A95E1F71092C4041092C3046D
:104950008CE99FEF9093C6048093C5049093C8049C
:104960008093C70480E090E0A0E8BFE38093C9048F
:104970009093CA04A093CB04B093CC048093CD044D
:104980009093CE04A093CF04B093D0041092D1049E
:104990001092D2041092D3041092D4048093D504C0
:1049A0009093D604A093D704B093D8041092D9045E
:1049B0008CED95E09093DB048093DA0480E1E0E8ED
:1049C000F1E0ACEDB4E001900D928A95E1F780E161
:1049D000E0E8F1E0ACEEB4E001900D928A95E1F7E9
:1049E00080E48093570485E193E090935904809389
:1049F00058041092490410924A0480E090E0AAE71B
:104A0000B3E480934B0490934C04A0934D04B09373
:104A10004E0410924F0410925004109251041092C0
:104A200052041092530410925404109255041092A0
:104A300056041092960388E8E9EBF3E0DF011D923B
:104A40008A95E9F782EE93E09093BA038093B903D5
:104A500088ED9FEF9093BC038093BB0387ED93E0B9
:104A60009093BE038093BD038DED9FEF9093C003A1
:104A70008093BF0388EC93E09093C2038093C103BB
:104A800082EE9FEF9093C4038093C30386EB93E081
:104A90009093C6038093C50387EE9FEF9093C8035E
:104AA0008093C70380EA93E09093CA038093C9037D
:104AB0008CEE9FEF9093CC038093CB0384E893E03C
:104AC0009093CE038093CD0381EF9FEF9093D0031B
:104AD0008093CF0381E693E09093D2038093D10338
:104AE00086EF9FEF9093D4038093D3038AE393E000
:104AF0009093D6038093D5038BEF9FEF9093D803C9
:104B00008093D7038DE093E09093DA038093D903E9
:104B10008CED92E09093DE038093DD0385E090E0DE
:104B20009093E0038093DF0388EA92E09093E2039E
:104B30008093E1038AE090E09093E4038093E303A1
:104B400080E792E09093E6038093E5038FE090E0A6
:104B50009093E8038093E70388E392E09093EA035D
:104B60008093E90384E190E09093EC038093EB035E
:104B700080E092E09093EE038093ED0389E190E072
:104B80009093F0038093EF0389EC91E09093F2030C
:104B90008093F1038EE190E09093F4038093F3030C
:104BA00085E991E09093F6038093F50383E290E02A
:104BB0009093F8038093F70385E691E09093FA03CE
:104BC0008093F90388E290E09093FC038093FB03C9
:104BD00089E391E09093FE038093FD038DE290E0E2
:104BE000909300048093FF0381E191E0909302048D
:104BF0008093010482E390E0909304048093030483
:104C00008DEE90E0909306048093050487E390E096
:104C100090930804809307048EEC90E090930A042C
:104C2000809309048CE390E090930C0480930B0430
:104C300083EB90E090930E0480930D0481E490E068
:104C40009093100480930F048BE990E090931204EA
:104C50008093110486E490E09093140480931304ED
:104C600086E890E090931604809315048BE490E01E
:104C7000909318048093170484E790E090931A04AB
:104C80008093190480E590E090931C0480931B04AA
:104C900085E690E090931E0480931D0485E590E0E6
:104CA0009093200480931F0488E590E09093220461
:104CB000809321048AE590E0909324048093230458
:104CC0008DE490E090932604809325048FE590E096
:104CD000909328048093270483E490E090932A041F
:104CE0008093290484E690E090932C0480932B0415
:104CF0008CE290E090932E0480932D0483E790E063
:104D00009093300480932F0486E290E090933204D5
:104D10008093310488E790E09093340480933304C7
:104D200082E290E090933604809335048DE790E022
:104D30009093380480933704C0926403D092650343
:104D4000E0926603F0926703C0E0D0E0269667E148
:104D500072E0CE018E599C4F0E94740CCE31D10569
:104D6000A9F767E172E086E893E00E94740C67E1BE
:104D700072E08CE893E00E94740C80E280939203CE
:104D80008DE0809393038AE08093940310929503BF
:104D900080E4E0E9F1E0A1E2B3E001900D928A95B0
:104DA000E1F7DF91CF911F910F91FF90EF90DF908E
:104DB000CF90BF90AF900895662777270C94F02688
:104DC000FB01DC0105900D920020E1F70895FC0144
:104DD00005900020E9F7809590958E0F9F1F08950C
:104DE000A0E0B0E0E6EFF6E20C94AC29EC017B0128
:104DF0006115710519F0DB018D939C938E010F5F96
:104E00001F4F7880872D90E00E944D28892B11F04C
:104E1000E801F4CFBDE27B1205C00F5F1F4F798020
:104E2000C1E008C0EBE27E1204C08E010E5F1F4F8E
:104E30007980C0E06801F1E0CF1AD10843E050E08A
:104E40006EE071E0C6010E945628892BF1F46801DA
:104E500022E0C20ED11C45E050E069E071E0C601DD
:104E60000E945628892B21F4680187E0C80ED11CC6
:104E7000E114F10419F0D701CD92DC92C111FFC009
:104E800060E070E080E89FE703C143E050E066E047
:104E900071E0C6010E945628892B51F4E114F104F7
:104EA00009F4F2C00E5F1F4FF70111830083ECC0BD
:104EB000680160E070E0CB0100E010E0F601D0EDA9
:104EC000D70DDA3058F52C2F2260622E2C2F287047
:104ED000C2FF05C0211128C00F5F1F4F25C022232C
:104EE00011F001501109A5E0B0E09B01AC010E9456
:104EF0009D294B015C01880C991CAA1CBB1CC50197
:104F0000B4016D0F711D811D911D6839A9E97A07E2
:104F10008A07A9E19A0740F0C66005C0DE3F51F458
:104F2000C3FD44C0C8606C2EBFEFCB1ADB0A708093
:104F3000C62DC4CF2D2F2F7D2531C1F540814D3297
:104F400011F4C06106C04B3221F0319621E030E00F
:104F500006C03296D60111964C9122E030E0A0EDC9
:104F6000A40FAA3018F0E21BF30B20C040E050E081
:104F70004038BCE05B075CF49A01220F331F220F1C
:104F8000331F420F531F440F551F4A0F511D3196B7
:104F9000DF0111972C91A0EDA20FAA3048F3C4FFB6
:104FA00003C0519541955109040F151FC1FF07C05A
:104FB000E114F10421F03197D701ED93FC930E94A5
:104FC0007328C370C33019F06B017C0106C06B01FC
:104FD0007C01F7FAF094F7F8F09420E030E0A901B2
:104FE000C701B6010E946E28882309F445C017FF47
:104FF00006C0119501951109C5E2D1E002C0CDE3CB
:10500000D1E05E01B8E1AB1AB1084601BE2DAF2D6B
:1050100090E2E92EF12C0E151F0584F0FE0125917A
:10502000359145915491B4018B2F9A2F0E94D42829
:105030004B01B82FA92F0E191F09EDCF2497F59416
:10504000E794CA15DB0539F76401EB2EFA2E8E2D95
:10505000880F8F2D881F8F3F49F020E030E0A90195
:10506000C701B6010E946E28811106C082E290E05D
:105070009093A00580939F05C701B60109C060E029
:1050800070E080E89FEF04C060E070E080EC9FE794
:10509000CDB7DEB7EEE00C94C82991110C944129EC
:1050A000803219F089508550C8F70895FB01DC0162
:1050B0004150504088F08D9181341CF08B350CF4B8
:1050C000805E659161341CF06B350CF4605E861B6C
:1050D000611171F3990B0895881BFCCF0E94B028D1
:1050E00008F481E00895E89409C097FB3EF4909598
:1050F0008095709561957F4F8F4F9F4F9923A9F0B1
:10510000F92F96E9BB279395F6958795779567953F
:10511000B795F111F8CFFAF4BB0F11F460FF1BC083
:105120006F5F7F4F8F4F9F4F16C0882311F096E916
:1051300011C0772321F09EE8872F762F05C06623C4
:1051400071F096E8862F70E060E02AF09A95660F7D
:10515000771F881FDAF7880F9695879597F9089536
:10516000990F0008550FAA0BE0E8FEEF1616170678
:10517000E807F907C0F012161306E407F50798F0E0
:10518000621B730B840B950B39F40A2661F0232BF9
:10519000242B252B21F408950A2609F4A140A69575
:1051A0008FEF811D811D08950E94E7280C945B29D3
:1051B0000E944D2938F00E94542920F0952311F0C7
:1051C0000C9444290C944A2911240C948F290E9490
:1051D0006C2970F3959FC1F3950F50E0551F629FA6
:1051E000F001729FBB27F00DB11D639FAA27F00D40
:1051F000B11DAA1F649F6627B00DA11D661F829F67
:105200002227B00DA11D621F739FB00DA11D621F4B
:10521000839FA00D611D221F749F3327A00D611D68
:10522000231F849F600D211D822F762F6A2F11244A
:105230009F5750409AF0F1F088234AF0EE0FFF1F7D
:10524000BB1F661F771F881F91505040A9F79E3FD4
:10525000510580F00C9444290C948F295F3FE4F3AE
:10526000983ED4F3869577956795B795F795E7952A
:105270009F5FC1F7FE2B880F911D9695879597F933
:10528000089599278827089597F99F6780E870E027
:1052900060E008959FEF80EC089500240A941616AC
:1052A000170618060906089500240A941216130614
:1052B000140605060895092E0394000C11F48823A2
:1052C00052F0BB0F40F4BF2B11F460FF04C06F5FBE
:1052D0007F4F8F4F9F4F089557FD9058440F551F94
:1052E00059F05F3F71F04795880F97FB991F61F068
:1052F0009F3F79F087950895121613061406551FDF
:10530000F2CF4695F1DF08C0161617061806991F4A
:10531000F1CF86957105610508940895E894BB273F
:1053200066277727CB0197F90895F999FECF92BDAB
:1053300081BDF89A992780B508950E94DF29A59F1D
:10534000900DB49F900DA49F800D911D1124089580
:105350002F923F924F925F926F927F928F929F9285
:10536000AF92BF92CF92DF92EF92FF920F931F9373
:10537000CF93DF93CDB7DEB7CA1BDB0B0FB6F89424
:10538000DEBF0FBECDBF09942A88398848885F8464
:105390006E847D848C849B84AA84B984C884DF80D5
:1053A000EE80FD800C811B81AA81B981CE0FD11DB9
:1053B0000FB6F894DEBF0FBECDBFED010895A29FDA
:1053C000B001B39FC001A39F700D811D1124911DD9
:1053D000B29F700D811D1124911D08955058BB2757
:1053E000AA270E94062A0C945B290E944D2938F0B6
:1053F0000E94542920F039F49F3F19F426F40C94AC
:105400004A290EF4E095E7FB0C944429E92F0E9409
:105410006C2958F3BA17620773078407950720F0C1
:1054200079F4A6F50C948E290EF4E0950B2EBA2F84
:10543000A02D0B01B90190010C01CA01A00111249A
:10544000FF27591B99F0593F50F4503E68F11A1646
:10545000F040A22F232F342F4427585FF3CF4695D7
:1054600037952795A795F0405395C9F77EF41F16F9
:10547000BA0B620B730B840BBAF09150A1F0FF0FC3
:10548000BB1F661F771F881FC2F70EC0BA0F621FAF
:10549000731F841F48F4879577956795B795F7959F
:1054A0009E3F08F0B0CF9395880F08F09927EE0F34
:1054B0009795879508950E946F2A0C945B290E9406
:1054C000542958F00E944D2940F029F45F3F29F0FB
:1054D0000C94442951110C948F290C944A290E9450
:1054E0006C2968F39923B1F3552391F3951B550B60
:1054F000BB27AA2762177307840738F09F5F5F4FA7
:10550000220F331F441FAA1FA9F335D00E2E3AF0E5
:10551000E0E832D091505040E695001CCAF72BD0FD
:10552000FE2F29D0660F771F881FBB1F261737074E
:105530004807AB07B0E809F0BB0B802DBF01FF2780
:1055400093585F4F3AF09E3F510578F00C944429F0
:105550000C948F295F3FE4F3983ED4F386957795BA
:105560006795B795F7959F5FC9F7880F911D969539
:10557000879597F90895E1E0660F771F881FBB1F95
:10558000621773078407BA0720F0621B730B840B42
:10559000BA0BEE1F88F7E09508950E94D42A68940C
:1055A000B1110C948F2908950E94742988F09F5797
:1055B00098F0B92F9927B751B0F0E1F0660F771F37
:1055C000881F991F1AF0BA95C9F714C0B13091F02D
:1055D0000E948E29B1E008950C948E29672F782FB0
:1055E0008827B85F39F0B93FCCF3869577956795F2
:1055F000B395D9F73EF490958095709561957F4F5E
:105600008F4F9F4F08950E94432B90F09F3748F48F
:10561000911116F00C948F2960E070E080E89FEB08
:10562000089526F41B16611D711D811D0C941A2B03
:105630000C94352B882371F4772321F09850872B15
:10564000762F07C0662311F499270DC09051862B41
:1056500070E060E02AF09A95660F771F881FDAF7EE
:10566000880F9695879597F908959F3F31F091504F
:1056700020F4879577956795B795880F911D969536
:10568000879597F908950E947429A0F0BEE7B9178D
:1056900088F4BB279F3860F41616B11D672F782F4A
:1056A0008827985FF7CF869577956795B11D939575
:1056B0009639C8F308950E94B02808F48FEF089532
:1056C0009F930E946F2B0F9007FCEE5F0C94982B1A
:1056D0000E94B028880B990B08950C944A290E94C7
:1056E0007429D8F3E894E0E0BB279F57F0F02AED47
:1056F0003FE049EC06C0EE0FBB0F661F771F881F07
:1057000028F0B23A62077307840728F0B25A620B96
:10571000730B840BE3959A9572F7803830F49A9561
:10572000BB0F661F771F881FD2F790480C94372B4A
:10573000EF93E0FF07C0A2EA2AED3FE049EC5FEB00
:105740000E94062A0E945B290F90039401FC905846
:10575000E8EEF0E00C94AC2B9F938F937F936F93C4
:10576000FF93EF939B01AC010E94D428EF91FF912E
:105770000E94C02B2F913F914F915F910C94D428A0
:10578000DF93CF931F930F93FF92EF92DF927B01F2
:105790008C01689406C0DA2EEF010E94E728FE0112
:1057A000E894A5912591359145915591A6F3EF0186
:1057B0000E94062AFE019701A801DA9469F7DF909A
:1057C000EF90FF900F911F91CF91DF91089597FB7C
:1057D000072E16F4009407D077FD09D00E94232CE1
:1057E00007FC05D03EF4909581959F4F08957095E4
:1057F00061957F4F0895A1E21A2EAA1BBB1BFD01E4
:105800000DC0AA1FBB1FEE1FFF1FA217B307E4079F
:10581000F50720F0A21BB30BE40BF50B661F771FF7
:10582000881F991F1A9469F76095709580959095D7
:105830009B01AC01BD01CF010895EE0FFF1F059044
:10584000F491E02D0994AA1BBB1B51E107C0AA1FCC
:10585000BB1FA617B70710F0A61BB70B881F991F11
:105860005A95A9F780959095BC01CD010895CF93E5
:10587000DF938230910510F482E090E0E091A3057F
:10588000F091A40520E030E0C0E0D0E0309711F1C5
:105890004081518148175907C0F04817590761F4F2
:1058A00082819381209719F09B838A832BC09093E8
:1058B000A4058093A30526C02115310519F04217D0
:1058C000530718F49A01BE01DF01EF010280F38152
:1058D000E02DDCCF2115310509F1281B390B2430CF
:1058E000310590F412968D919C9113976115710575
:1058F00021F0FB019383828304C09093A4058093DD
:10590000A305FD01329644C0FD01E20FF31F819310
:105910009193225031092D933C933AC02091A105D7
:105920003091A205232B41F420911A0130911B01E3
:105930003093A2052093A1052091180130911901FF
:105940002115310541F42DB73EB740911C0150910E
:105950001D01241B350BE091A105F091A205E21772
:10596000F307A0F42E1B3F0B2817390778F0AC0182
:105970004E5F5F4F2417350748F04E0F5F1F50935F
:10598000A2054093A1058193919302C0E0E0F0E06D
:10599000CF01DF91CF9108950F931F93CF93DF93A2
:1059A000009709F48CC0FC01329713821282009197
:1059B000A3051091A4050115110581F42081318101
:1059C000820F931F2091A1053091A2052817390756
:1059D00079F5F093A205E093A10571C0D80140E0EC
:1059E00050E0AE17BF0750F412962D913C911397DB
:1059F000AD012115310509F1D901F3CF9D01DA017E
:105A00003383228360817181860F971F82179307EA
:105A100069F4EC0128813981260F371F2E5F3F4F33
:105A2000318320838A819B8193838283452B29F450
:105A3000F093A405E093A30542C01396FC93EE9364
:105A40001297ED01499159919E01240F351FE217DC
:105A5000F30771F480819181840F951F029611964E
:105A60009C938E938281938113969C938E9312972D
:105A7000E0E0F0E0D80112968D919C911397009789
:105A800019F0F8018C01F6CF8D919C9198012E5F51
:105A90003F4F820F931F2091A1053091A205281737
:105AA000390769F4309729F41092A4051092A305E0
:105AB00002C0138212821093A2050093A105DF9108
:105AC000CF911F910F910895A0E0B0E0EAE6FDE2CA
:105AD0000C94AC29EC01009721F4CB010E94372CE7
