:020000040020DA
:10000000008020009D002000D5201000D720100087
:1000100000000000000000000000000000000000E0
:1000200000000000091256344C0A0000D9201000CC
:100030000000000000000000DB201000DD201000A8
:10004000DF201000E900200061231000DF201000F5
:100050008522100099221000DF201000DF20100000
:10006000DF20100051231000E1201000E1201000DB
:10007000052410002D2410004D241000DF20100056
:10008000DF2010005329CD680348854600F016F89C
:1000900000480047E100200000802000054880471C
:1000A00005480047FEE7FEE7FEE7FEE77047FEE78C
:1000B00070470000ED6D100089002000064C0125FE
:1000C000064E05E0E36807CC2B430C3C9847103400
:1000D000B442F7D3FFF7DCFF4C0A20004C0A2000A3
:1000E00000F0AAF800F0F8F870B50D4D2C6BA007E1
:1000F00006D501F70FF9203006F7B9FAFF2802D02C
:1001000002F7D4F870BD0749087007488068804737
:10011000064881790622114381712C6340BF70BD6E
:100120000010014039452000383C2000BC3C200034
:10013000FFB583B00020009003981C460068401A69
:100140000112002900DC0021D0B200F0C3FA0546FC
:100150001F4FA000C019FF300130406A019000F02D
:10016000D3FA6E280DD09626B54228DA3C212846CF
:1001700001F7BCFF3C2141436C1A002C03DC012435
:1001800004E04B26F0E73C2C00DD3C248000C01945
:10019000FF300130C76A006B3C21381A01F7A6FF17
:1001A0006043391A019802F761F94904C00B08430A
:1001B00003994968814202DA0120009001E0B542CA
:1001C00002DB0C9800210160009807B0F0BD000030
:1001D000803A20000A4900B5884201DDFF2000BDB9
:1001E0002928FCDB00F012F806494018064948436C
:1001F00005210012C90240188030001200BD000025
:1002000024842E00AEFAFFFF420D00000102002000
:100210008022930003E0491C4910FF3001309942CD
:10022000F9DC49430912994202DB491C4910801844
:100230005210F6D17047000070B51E4802F726FD37
:100240000446012813D004F7D7F9807E06F715FA83
:10025000204602F769FD204602F7F0FC0221142037
:1002600004F74CFE0321132004F748FE70BD02F78B
:10027000BBFC11480121C26A89038A43C2628030F3
:10028000026E144B8A4302660D490C48C8600E4842
:100290000C4981630D4941600D4A00214800155AFF
:1002A000C0184030491CC5862129F7DB00F046FA0A
:1002B000D1E70000A8801000403E2000290920005E
:1002C000383F200079032000383C20002D08200012
:1002D000080A2000803A2000264C01F781F82830D7
:1002E00006F7C5F9401CC0B20A2104F707FE05F75E
:1002F000F1FE07F7E3F8002801D000F0DBFA04F77D
:10030000EDFB002801D004F7E5FC07F7ABFD002862
:1003100001D004F7AFFDA06B804700281FD004F781
:10032000E7FB002805D004F76DFD0321FF2007F748
:10033000EBF804F7BFFB002801D004F7F3F804F74B
:1003400085F904F7F5F900F0DBFA0028C5D000F0D4
:1003500029FB002808D0616818208847BDE704F70A
:1003600063FB206C8047E4E71A21802004F7C6FD78
:10037000B3E70000383F2000F7B59EB0144604F7FD
:100380003BF91490C9480F90002C03D1008A0F99B3
:10039000401C088204F730F93030119024220021EB
:1003A00004A807F7ADFCC24D0020696810911E9E9D
:1003B00013A90190029003900091BE480123476B5E
:1003C00004AA80213046B8471099696000280CD0F3
:1003D000B948B84F1590BB6E224680219847B34864
:1003E00080381090002C03D008E0242021B0F0BD0C
:1003F00000206860A8601098B049C1610498C013DB
:10040000810088190246803AD26F715840685118AD
:100410000918A7485822C160A448E038017F203855
:100420001790204650431290002911D004F7E4F8A9
:10043000A34930304A68002A1FD08030418F0029FC
:100440001BD0D003FFF676FE17998863012510E1D3
:100450001199049A41189B480A6188630120179AF0
:10046000C00390630120032382008A180D69401C99
:10047000156193630A28F7DBE8E701211798C903A0
:100480008163E3E78B4EF06A002800D08047242286
:10049000002104A807F734FC1E98690208180D9083
:1004A00011991298864F4118A800199008181A90AF
:1004B0000269A000C019806A7E4E8030016B336FE4
:1004C0000D989847002213A901950292009103907C
:1004D000766B032304AA80210D98B047189000285A
:1004E0007ED01A98012103690F98C9038269179871
:1004F000806B401A42431013181A019000201A9082
:1005000006460120169016A8009023462A4604A805
:100510000199FFF70DFE002802D00126049900E0A2
:1005200001990F98028A408A824201D90F9A10825B
:100530002820634A60438218199817180F98FF37CC
:10054000028A4137386803F740F9386002901698FC
:10055000012804D11498016A0198401A02900020E1
:100560001B907FE0002E0ED0169800280BD016A806
:1005700000900C203146414304A8081823462A461F
:100580000199FFF7D5FD30460C21484304A91C9082
:10059000085805220199D2038918884201DA0121FD
:1005A0001A911699002901D0029903E01A9900299D
:1005B000FAD00199401A011200D50021E8B200F0EA
:1005C00089F8071E00DC01271698012806D1394852
:1005D0000D9A436F38460199984707461B9800E0EB
:1005E00044E002283ADA3848874237DA1C9904A8EE
:1005F000081813991C904068491C01F777FD304991
:1006000009680979090601D5FFF7E4FDFF2800D93B
:10061000FF20274912238A78521C8A701B9A5A435A
:10062000E300E318D2185219521E9200511888752F
:100630008F82CD751098C069B84201D91098C761F2
:100640001098C822016A384603F788F8002805D0B8
:1006500017481C9982688968511881601B98401C52
:10066000761C1B901898864200DA7BE76D1C0A2DD9
:1006700004DA16480078002800D103E70D4D234620
:100680006E6E0B4A80211598B0471148006B804769
:10069000611C884202D11098C16901622B6C22460C
:1006A0001F991E98984740B2A0E60000003C200029
:1006B00088442000383C2000084220003F420F00C0
:1006C000803A200030750000B41400000040200083
:1006D000383F200040080A4A8000801840680F23F5
:1006E000800848430749400B4843916A8031096AB2
:1006F0008A02920F09029A1AC90F511A08417047CB
:10070000803A20005107000001480078704700003F
:10071000C85920009200521801E008C908C08A4256
:10072000FBD1704710B59200121803E00C68036803
:1007300010C008C18242F9D110BD0000F8B5184FB1
:10074000184D0024B4206043C11914206043461999
:10075000361D05223046A831FFF7DCFF304600F099
:1007600007F9641CE4B2022CECD30E482C3000F0E4
:10077000F3F80020014682005219401CD1632F2853
:10078000F9D308483124E030047503F735FFE03031
:1007900004726F202870192104F7B0FBF8BD000027
:1007A000C03D2000C8592000F8B51B4D06462878EA
:1007B000B04230D0194F0024B4206043C119142036
:1007C000604340190522001DA831FFF7ABFF641CF0
:1007D000E4B2022CF0D31048042211492C30FFF768
:1007E000A1FF03F709FF01460B482F2230313C30AF
:1007F000FFF798FF03F700FFE0300A49007A4870DE
:10080000072104F77BFB0848806A80472E70192176
:10081000304604F773FBF8BDC8592000C03D2000E6
:10082000E43C2000A03A2000383C200070B514467B
:100830000D4603F79DF8FFF767FF6E2815D1803549
:10084000286B0A4D294601F729FE4904C00B0843CD
:10085000074E002C706208D080342946206B01F7C7
:100860001DFE4904C00B0843B06270BDA704000020
:10087000803B200070B506460D4800240068C5B2D4
:1008800003F7BAFEC17E0807800F8907890F05406C
:1008900001408D4205D103F7AFFE807E05F7EDFEE6
:1008A00000E00D242146304606F72EFE70BD000004
:1008B0000000044010B572B61048047800216E2C78
:1008C00006D06F2C04D0212C0CD0FF2C11D012E0BC
:1008D000017062B62046FFF767FF0021204606F749
:1008E00013FE04E0017062B62046FFF7C3FF40BF6D
:1008F00010BD04F787FA06F765FD10BD39452000E5
:1009000008480169C9070AD08168406A7D22D2007F
:10091000904204D98908814201D201207047002009
:10092000704700000000024070B5B422094B4243FA
:10093000D4188C34A26A1F261304F602B243DD0ECB
:10094000A26207F70FF8A06AE902B0430843A06269
:1009500070BD0000C03D20000022044942600160DB
:100960000249C260C539816070470000CD6C00004B
:100970003F22C168520191430722D2018918074AD8
:100980009143C1604168520491434160044A016847
:1009900091430322D20289180160704718007C003D
:1009A000007C003F70B5154CE06C804703F724FED7
:1009B0001349407E4A6BC0061304C00EDB0E0028AC
:1009C0001AD0984218D1401E1F23C006DB02050C26
:1009D0009A432A43084680304A63816E99432943EB
:1009E0008166206B8047616B8847064806F721FACD
:1009F000206C8047002070BD032070BD383F200070
:100A0000403E20009880100000008805370B271119
:100A10006517021E1E25BF2CF534C73D2747F6502B
:100A2000095B3865616F72796283308DDC9662A0F4
:100A3000BAA9D9B2AEBB2BC43FCCE9D32EDB06E2B8
:0C0A40008BE8B8EEA9F468FAFFFF000094
:04000005002000894E
:00000001FF
