:1070000055C000006EC000006CC000006AC00000E7
:1070100068C0000066C0000064C0000062C00000DC
:1070200060C000005EC00000BAC400005AC000008A
:1070300058C0000056C0000054C0000052C00000FC
:1070400050C00000DFC000004CC000004AC000007B
:1070500048C0000046C0000044C0000042C000001C
:1070600040C000003EC000003CC000003AC000002C
:1070700038C0000036C0000034C0000032C000003C
:1070800030C000002EC000002CC000002AC000004C
:1070900028C0000026C0000024C0000022C000005C
:1070A00020C000001EC000001CC0000011241FBE34
:1070B000CFEFDAE0DEBFCDBF11E0A0E0B1E0EAE75C
:1070C000FEE702C005900D92AA3DB107D9F721E075
:1070D000AAEDB1E001C01D92A03FB207E1F75BD37A
:1070E000CAC68ECF84E08093E9008091E80085FFD6
:1070F00003C08091F10008958091E8008B77809320
:10710000E8008091E80082FDF0CF8EB38111F9CFC5
:1071100080E0089593E09093E9009091E80095FF56
:107120000AC08093F1005D9884E690E09093DF01BF
:107130008093DE0108959091E8009E779093E80097
:107140009091E80090FDEDCF9EB39111F9CF089595
:10715000F89410926F0010928100109285001092A6
:10716000840081E085BF15BE76985D9A289A0C94BC
:10717000000008952091E4013091E5012F5F3F4F19
:107180003093E5012093E401832F37FF02C08EEF97
:10719000831B880F821710F476980895769A0895C5
:1071A00084B7877F84BF0FB6F894A895809160005C
:1071B000886180936000109260000FBE90E880E0CC
:1071C0000FB6F89490936100809361000FBE81E048
:1071D00085BF82E085BF269A2E9A6E9A209A559A8C
:1071E000E1E6F0E09083108276985D9A289A1092FA
:1071F00089009AEF9093880080936F0083E08093DA
:107200008100B5C31F920F920FB60F9211242F93D6
:107210008F939F93EF93FF931092850010928400B9
:107220008091DE019091DF01009741F001979093EA
:10723000DF018093DE01892B09F45D9A8091DC01E6
:107240009091DD01009741F001979093DD018093CB
:10725000DC01892B09F4289AF0E0E0E08591949113
:10726000019649F08091DA019091DB0101969093AB
:10727000DB018093DA01FF91EF919F918F912F9124
:107280000F900FBE0F901F90189542E061EC82E0C6
:1072900003D342E161E883E0FFD242E160E884E0A9
:1072A000FBC28091E801982F9F779132B9F49091B9
:1072B000E9019032A1F0913289F4813A79F4809118
:1072C000E800877F8093E80067E070E083E091E06A
:1072D00017D48091E8008B778093E800089581327D
:1072E000E9F78091E800877F8093E80067E070E02D
:1072F00083E091E05ED48091E8008E77EDCF6F92CD
:107300007F928F929F92AF92BF92CF92DF92EF9235
:10731000FF920F931F93CF93DF9384E08093E90054
:107320008091E80082FF28C2289884E690E090933C
:10733000DD018093DC01D6DEC82F853451F58CE465
:107340009DE19093DB018093DA0107B600FCFDCF4D
:10735000F999FECF81E180935700E8958DE0DADE60
:1073600083E08093E9009091E8008091E8008E77B7
:107370008093E80095FFF3C18091E80080FFF9C198
:1073800084E08093E9008091E8008B778093E800A7
:10739000F3C1843511F4A6DEE1CF8C34F9F28035E7
:1073A000E9F2843721F484E4B5DE80E0D8CF89E5C2
:1073B000C136A9F2C134D1F495DEC82F93DE2C2F4B
:1073C00030E0322F2227330F90E0880F991F822B55
:1073D000932B092E000CAA0BBB0B8093E00190931A
:1073E000E101A093E201B093E301B8CF83E5C03798
:1073F00009F4B5CFC33549F4C2ECD1E089918ADEF6
:1074000021E0C93CD207D1F7ABCFC63521F481E3E7
:1074100081DE80E3A4CFC33731F487E87BDE85E9E2
:1074200079DE8EE19CCFC536B9F4F0E0E0E083E090
:1074300095E080935700E89507B600FCFDCF909348
:107440005700E89507B600FCFDCFE058FF4FE11567
:1074500020E7F20771F782CF89E0E1E0F0E0C23780
:1074600079F089E0F0E0E0E0C63451F089E0E3E053
:10747000F0E0CE3429F0C13539F489E0E2E0F0E003
:107480008093570084916BCFC23631F489E542DE98
:1074900080E040DE80E863CFC23419F0C73609F0DF
:1074A000CEC01092DB011092DA011CDE082F10E032
:1074B000102F002717DE082B15DED82F8BEB8D0F32
:1074C000823010F08FE34BCF10926F00C73609F077
:1074D00045C081E180935700E895C0E0BB24B39498
:1074E0000150110920F482E080936F0039CFC090E1
:1074F000E001D090E101E090E201F090E301D634A8
:10750000B9F4EC2FF0E0EC29FD29849103DECC23C3
:1075100069F082E0C80ED11CE11CF11CC092E001B0
:10752000D092E101E092E201F092E301CB25D8CFC5
:10753000D701C601B695A7959795879586D4EADDBC
:10754000E2E0CE0ED11CE11CF11CC092E001D09211
:10755000E101E092E201F092E301C2CF8090E0010C
:107560009090E101A090E201B090E301D63441F4A3
:1075700083E0F40180935700E89507B600FCFDCF47
:10758000712CC0E06624639424C0D63409F034C062
:10759000CC2379F1C090E001D090E101E090E201CC
:1075A000F090E3019FDD982F872DF6010C0160928A
:1075B0005700E8951124F2E0CF0ED11CE11CF11C1C
:1075C000C092E001D092E101E092E201F092E30189
:1075D000C62501501109C8F6D63441F485E0F401FE
:1075E00080935700E89507B600FCFDCF8DE092DD53
:1075F0007ACF78DD782EECCF75DD682F8091E001B1
:107600009091E101A091E201B091E301B695A795B7
:107610009795879522D48091E0019091E101A09106
:10762000E201B091E3010296A11DB11D8093E0013A
:107630009093E101A093E201B093E301CACFC33478
:1076400071F4C091E001D091E1014CDD90E021E0C6
:10765000FE010C0120935700E89511247FCEC3361C
:1076600001F5C090E001D090E101E090E201F090DE
:10767000E30138DDF601E16090E021E00C012093A8
:107680005700E8951124F2E0CF0ED11CE11CF11C4B
:10769000C092E001D092E101E092E201F092E301B8
:1076A0005DCECD3661F4E091E001F091E10185E03D
:1076B00080935700E89507B600FCFDCF4FCEC2354A
:1076C00051F4E091E001F091E101C591D4918D2F49
:1076D00021DD8C2F44CEC434D9F404DD682F809191
:1076E000E0019091E101A091E201B091E301B69532
:1076F000A79597958795B1D38091E0019091E1018D
:10770000A091E201B091E3010296A11DB11D65CEE9
:10771000C436F1F4C090E001D090E101E090E201C4
:10772000F090E301D701C601B695A7959795879587
:107730008CD3F0DC22E0C20ED11CE11CF11CC09203
:10774000E001D092E101E092E201F092E30108CE83
:10775000CB3109F405CEB6CE8EB3882369F0809183
:10776000E80080FFF9CF8091E8008E778093E800F1
:1077700003CE8EB3811100CEDF91CF911F910F9177
:10778000FF90EF90DF90CF90BF90AF909F908F9041
:107790007F906F9008952091000830910108109219
:1077A00001081092000884B714BE0FB6F894A8958B
:1077B00090916000986190936000109260000FBEFD
:1077C00081FD0AC080FF1BC0F0E0E0E045915491CC
:1077D0004F3F5F4FA1F0BCDCE3DC78941092DB01FB
:1077E0001092DA0180910201811117C08091E000AE
:1077F00081608093E000ACDC90E080E0089583FF3E
:10780000EBCF80910001909101018217930721F342
:10781000F0E0E0E085919491DFCF71DDFFD28091BF
:10782000DA019091DB0181349F4110F01092020146
:10783000A1DCD8CF292F30E02230310571F0233080
:10784000310581F02130310511F582E190E020EB26
:1078500031E0FA013183208308958EE390E022E73E
:1078600031E0F7CF882349F0813061F0823079F43C
:1078700084E390E02AE031E0ECCF84E090E02EE673
:1078800031E0E7CF8AE290E020E431E0E2CF90E01F
:1078900080E030E020E0DDCF8093E900EBEEF0E027
:1078A000808181608083EDEEF0E010826093EC00D7
:1078B00040838091EE00881F8827881F089580915B
:1078C000E80187FF11C08091E80082FF06C0809127
:1078D000E8008B778093E80003C08EB38111F3CF6B
:1078E00008958EB38823E1F38091E80080FFF9CFFB
:1078F0008091E8008E77EECF0F931F93CF93DF93A5
:1079000041D048D0C8EDD0E088818F7788838881C6
:107910008068888388818F7D888319BC1EBA109205
:10792000E60100EE10E0F80180818B7F8083888182
:107930008160888342E060E080E0AEDFE1EEF0E06D
:1079400080818E7F8083E2EEF0E0808181608083A1
:10795000808188608083F80180818E7F8083888128
:1079600080618883DF91CF911F910F910895E7ED9A
:10797000F0E08081816080838AE482BF81E080932F
:10798000E701BACFE8EDF0E080818E7F808310922E
:10799000E20008951092DA001092E10008951F921B
:1079A0000F920FB60F9211242F933F934F935F9333
:1079B0006F937F938F939F93AF93BF93EF93FF93B7
:1079C0008091DA0080FF17C08091D80080FF13C03B
:1079D0008091DA008E7F8093DA008091D90080FF59
:1079E0004EC080E189BD82E189BD09B400FEFDCFB2
:1079F00081E08EBB12D28091E10080FF17C08091A0
:107A0000E20080FF13C08091E2008E7F8093E2004D
:107A10008091E20080618093E2008091D8008062D2
:107A20008093D80019BC85E08EBBF7D18091E1002E
:107A300084FF30C08091E20084FF2CC080E189BDCA
:107A400082E189BD09B400FEFDCF8091D8008F7D11
:107A50008093D8008091E1008F7E8093E100809137
:107A6000E2008F7E8093E2008091E200816080934B
:107A7000E2008091E601882331F084E009C019BC5E
:107A80001EBACBD1B8CF8091E30087FDF6CF81E05D
:107A90008EBBC3D18091E10083FF21C08091E200C1
:107AA00083FF1DC08091E100877F8093E10082E029
:107AB0008EBB1092E6018091E1008E7F8093E10001
:107AC0008091E2008E7F8093E2008091E2008061ED
:107AD0008093E20042E060E080E0DEDE9ED1FF9134
:107AE000EF91BF91AF919F918F917F916F915F9136
:107AF0004F913F912F910F900FBE0F901F901895AF
:107B0000FC018091EE019091EF0186179707A0F09C
:107B10006115710529F49091E8009E779093E80033
:107B200090E06115710551F4911108C08091E80051
:107B300082FF34C080E00895BC01F2CF8EB3882369
:107B4000B1F1853081F18091E80083FD2EC08091F4
:107B5000E80082FDEBCF8091E80080FFE2CF20912A
:107B6000F3008091F200322F282F6115710519F072
:107B70002830310558F091E02830310509F090E0C7
:107B80002091E8002E772093E800CBCF819180935D
:107B9000F100615071092F5F3F4FE7CF8EB388230B
:107BA00031F0853019F683E0089581E0089582E090
:107BB0000895FC016115710529F49091E8009B7707
:107BC0009093E8006115710531F48091E80080FF21
:107BD0001EC080E008958EB3882311F18530E1F056
:107BE0008091E80083FD1AC08091E80082FFEACF0F
:107BF0002091F3008091F200322F282F232BE9F2FD
:107C00008091F10081936150710991F7D6CF8EB3C5
:107C1000882331F08530C9F683E0089581E0089526
:107C200082E008950F931F93CF93DF9300D0CDB7D9
:107C3000DEB7E8EEF1E08091F100819381E0E03F72
:107C4000F807C9F72EDB8091E80083FF8AC0809196
:107C5000E8019091E9019A3008F083C0E92FF0E043
:107C6000ED5CF14CECC03D3E593EB13E593EB13E5B
:107C7000923EC63EB13EE43EF03E823809F071C00D
:107C80008091EC0187708093E9008091EB0085FB87
:107C9000882780F91092E9009091E800977F9093EF
:107CA000E8008093F1001092F1008091E8008E7757
:107CB00022C0282F2D7F09F054C0823009F051C016
:107CC0008091EA01811112C08091EC01877009F462
:107CD00048C08093E9002091EB0020FF07C093305B
:107CE00071F48091EB0080628093EB001092E900C8
:107CF0008091E800877F8093E800E1DD32C09091B9
:107D0000EB0090619093EB0021E030E001C0220F86
:107D10008A95EAF72093EA001092EA008091EB003E
:107D20008860E2CF81111DC01091EA011F770FB763
:107D3000F8948091E800877F8093E800C0DD80910F
:107D4000E80080FFFCCF8091E3008078812B809356
:107D5000E30080688093E30082E0111183E08EBB32
:107D60000FBF8091E80083FF0AC08091EB00806222
:107D70008093EB008091E800877F8093E8000F906C
:107D80000F90DF91CF911F910F910895805882300D
:107D900040F7AE014F5F5F4F6091EC018091EA01C7
:107DA0009091EB0147DDBC01892BD9F29091E8005D
:107DB000977F9093E80089819A81A2DE8091E80004
:107DC0008B778093E800CDCF803859F68091E8001A
:107DD000877F8093E8008091E6018093F10065CF72
:107DE0008111BFCF9091EA01923008F0BACF809113
:107DF000E800877F8093E8009093E60160DD809142
:107E0000E601882311F084E005C08091E30087FD3E
:107E1000FACF81E08EBB39DAA4CF0895CF938EB329
:107E2000882359F0C091E900C7701092E900809151
:107E3000E80083FDF7DEC093E900CF910895EE0FCF
:107E4000FF1F0590F491E02D0994F999FECF92BDA2
:107E500081BDF89A992780B50895262FF999FECF0C
:107E60001FBA92BD81BD20BD0FB6F894FA9AF99A57
:0A7E70000FBE01960895F894FFCFAD
:107E7A007777010000000000000834034D00690014
:107E8A00630072006F0063006800690070002000E0
:107E9A0054006500630068006E006F006C006F009C
:107EAA0067007900200049006E0063002E00000080
:107EBA002A034F00540020004D006100670064004F
:107ECA00650063006B00200042006F006F007400C1
:107EDA006C006F006100640065007200000004031A
:107EEA00090409023E00020100803209040000016F
:107EFA0002020100052400100104240204052406DC
:107F0A000001070582030800FF09040100020A00B4
:107F1A000000070504021000010705830210000192
:107F2A001201100102000008D8045AEE01000201F1
:107F3A0000014341544552494E415F4F70656E748A
:0A7F4A00726F6E735F4D6F640000EC
:040000030000700089
:00000001FF
