:10000000FC7F00200D060000FD0500000106000039
:1000100000000000000000000000000000000000E0
:1000200000000000000000000000000005060000C5
:100030000000000000000000090600006107000049
:1000400010B5064C2378002B07D1054B002B02D0AE
:10005000044800E000BF0123237010BD5C000020B5
:1000600000000000C818000008B5084B002B03D0A2
:100070000748084900E000BF07480368002B03D089
:10008000064B002B00D0984708BDC046000000007A
:10009000C818000060000020580000200000000088
:1000A000154A164B1178002909D115491878097895
:1000B0004118C9B2197080201249000108601178F6
:1000C0000131C9B211701978F02902D819780929BB
:1000D00009D80B4908784042C0B2087018780978EE
:1000E0004118C9B2197012781B789A4203D1802244
:1000F000044B12011A6070477800002001000020B4
:10010000000000209C44004110B5C3699C07FCD44A
:1001100003680224A3430360C46901231C42FBD18A
:100120000468234303600368DC07FCD4C46901232B
:100130001C42FBD1C469DC401C42F7D1084B1A4376
:100140000260C3695A07FCD4C0239B0243608181CB
:10015000C3699C07FCD4036802221343036010BDEB
:1001600004000040037EDA07FCD5018570470000DB
:10017000027E01235107FBD5428B1A4207D1428BE5
:10018000DA401A4203D1428B92081A4202D0034B42
:1001900001221A70008DC0B27047C046790000205D
:1001A00070B50368041C988B1A1C0821FF320842A2
:1001B00026D0802099839872112353704021144BCC
:1001C000917150715E68134DC0202E40800506432A
:1001D0005E605E693540284358610F4818600F48DB
:1001E00018615D680E4828408025AD02284358609C
:1001F0005868800B8003586000235171237105E01B
:10020000137ADA0602D5201C00F0E4FA207970BDDA
:1002100094010020FFFFFF8F9400002014010020B4
:10022000FF3F00F0002303714371044B01608360C2
:100230000B78022213430B707047C046A1010000E7
:1002400038B5364B2021DA6901200A43DA61344B94
:1002500006241A7802431A70324B0F221978914300
:1002600019701978214319702F490C7820430870B0
:1002700019780A401A701A7860210A431A702B4BB9
:100280002B4A5A805A7852B2002AFBDB294B0121B3
:100290001A780A431A709A78D107FCD42648026863
:1002A000510B1F221140914200D1052111408C01B8
:1002B0001D8D22492940214319850468A10C0A405B
:1002C0001F2A00D11D221C8D1F210A408C4322436E
:1002D0001A8502680721D20D0A408A4200D1032202
:1002E0000A40188D1103164A02400A431A851978EC
:1002F0007F220A401A701A78042112480A431A70A1
:1003000058621A890C218A431A811A8901218A4369
:100310001A810021802201F050F938BD000400400C
:10032000584400413C44004159440041000C004005
:100330000640000000500041246080003FF8FFFFAD
:10034000FF8FFFFF94010020F7B5141C1F4A5F01C7
:1003500001971D1CD319061C5869271C4000400F2B
:1003600003301033C74006D00F1C80225968120694
:100370000A435A6009E02F1C7B1E9F41144BBF01AA
:10038000FF18381C221C01F00FF901990F4808359D
:1003900042181761131C5269A104920B890C920335
:1003A0000A435A6159690B4A0A405A616B01F318B2
:1003B0000222DA715979802252420A435A716B0142
:1003C000F318DB799A07FAD5201CFEBD94010020B2
:1003D00014010020FF3F00F0F8B51A4E051C3378D9
:1003E000141C002B12D1184B184A1A645A6C920B29
:1003F00092035A64586C164A02405A64A2235B0066
:10040000EA5C40200243EA54012333704827FF3757
:10041000EA5D0123134012D00B4B5A6C9204920CEC
:10042000A24202D25C6CA404A40C081C221C074942
:1004300001F0BAF80123EB550023337000E01C1CD7
:10044000201CF8BD7A00002094010020D400002078
:10045000FF3F00F0FF3083792022002900D11022D5
:100460001343837170470000084BFF305A69920BA9
:1004700092035A6102230372827980235B42134301
:100480008371037A9A07FCD57047C0469401002017
:1004900080235B421943C9B28172704770B5A023B3
:1004A00003225B00C254134B134A5C6CC0211440FE
:1004B00089050C4346255C64FF35402444550F4DA7
:1004C00030261D6490256D0046555D6B154029430F
:1004D000922559636D0080214155094D1D63B0255A
:1004E0006D0044555C6F22405A67B2235B00C154D3
:1004F00070BDC04694010020FFFFFF8FD400002094
:1005000054010020024B5B785BB2002BFADB704792
:10051000000C0040024BDB68DA06FBD57047C04692
:1005200000080040F8B52A4B1E2259689143022268
:1005300011435960274B28491E1C9982998A0A4306
:100540009A82F3680227234C3B42FAD0234D0123C1
:10055000AB60FFF7D7FF224B6B60FFF7D3FF82231F
:10056000DB016B80FFF7CEFFA38C80229343A38433
:10057000FFF7D0FF1B4BE362FFF7CCFFA38C1A4AB7
:100580001343A384FFF7C6FFA38C1F43A784F3681C
:100590001A06FCD50F4BDB685A06F8D50024FFF786
:1005A000B9FFAC60FFF7AEFF104B6B60FFF7AAFF1F
:1005B0000F4B104AC0215A600F4A0906106A000208
:1005C000000A0143116207229C601A60F8BDC04610
:1005D00000400041000800400C060000000C0040F4
:1005E00001050100B805FF7D040A000000070300B3
:1005F00010E000E0E703000000ED00E00EBEFEE7C3
:100600000DBEFEE705BEFEE702BEFEE70E4A0F483E
:1006100038B5824204D10E4A0E4B93420ED10AE005
:100620000D4C9442F7D00023D1188842F3D9E558F5
:1006300004330D60F8E700F011F804E09342FAD2B9
:10064000002102C3FAE7FEE7000000205C00002062
:10065000A40300205C000020CC18000038B5344B07
:100660001A681C1C013221D0324A191D1160D9B2FE
:1006700000291BD1304A1078012210402F4A0AD19C
:1006800015682F498D4201D110600FE011602D498E
:1006900001390029FCD11160226882F30888FF2209
:1006A0009343294A9360224B5B681847FFF73AFF50
:1006B00062B600F0A7FD00F059F8244A8021090134
:1006C0001160234B8022D2019A605A6180229203EA
:1006D0009A609A611F4B204A041C5A601A4AC02132
:1006E000106A09060002000A0143116200229A60A2
:1006F00007221A60A368201C9847184B002801D0D5
:1007000001221A701A78002A05D0002000F08CFA15
:1007100000F004FBFCE71B78002BEBD100F0E6FDBA
:100720000028E7D0012000F07FFA00F0F7FAFCE79C
:10073000002000001402002038040040FC7F00204C
:100740003581730748E8010000ED00E0884400416E
:100750000044004110E000E0E70300007B000020BF
:1007600008B5FFF79DFC00F0C3FA08BD10B5054BB6
:10077000054C2360FFF764FD201C2168FFF752FD44
:10078000201C10BD005000411802002070B5051C4F
:10079000C0B0081C161C0C1C00F017FF40006A4675
:1007A000032302305370107076080123E218013AD7
:1007B00011785A00002906D1281C69460023FFF74A
:1007C000C3FD40B070BDB342F6DA684681520133D2
:1007D000ECE70000F7B5BA4A04681378B949271C5A
:1007E000FF37051C102038720B705378B648B74E8F
:1007F000037093783380D178338809020B433380B8
:100800001179B34B1980517918880902084318806F
:100810009079B0490880D2790888120202430A8090
:1008200040227A71A84F3A78A64F120238780F1CEE
:100830000243A9488446181C624500D1C2E020DC6E
:10084000802149008A4200D16EE109DC812A00D171
:1008500092E0822A00D195E0802A00D064E18BE00A
:1008600081235B009A4200D1CFE000DA58E1C02337
:100870009B009A4200D157E1984B9A4200D14FE138
:1008800052E190231B019A4269D015DCD023DB0092
:100890009A4222D088231B019A4269D0A023DB0010
:1008A0009A4200D040E1201CFFF7DEFD3188286825
:1008B00089B2FFF7EDFD3BE1894B9A4200D12FE170
:1008C00000DC31E1874B9A4200D11DE1864B9A4210
:1008D00000D029E133886B7122E133881B0A012B98
:1008E00008D10B8812222868934201D80A8892B254
:1008F0007E4911E133881B0A022B08D10B88432261
:100900002868934201D80A8892B2794904E1338871
:100910001B0A032B00D007E13388DBB2012B17D071
:10092000002B07D0022B00D0FEE00A882868D2B244
:10093000704911E0042201A86F4900F035FE3B88A0
:1009400004222868934201D83A8892B201A9E3E0D0
:100950000A8828686949D2B2FFF718FFE8E03388AF
:10096000201C2B71FFF780FD201CFFF797FDDFE0B7
:10097000291C01C90122CFE0614900230B802868AE
:100980000222CAE05E4900220A80188850221040E4
:100990005C4A10701E880F20304018801888032889
:1009A00000D9C1E012781B8808335B01E418A379F1
:1009B000002A01D09B0600E0DB06DB0F0B802868D5
:1009C0000222A9E019887F2291434E4AC9B21170D0
:1009D00018880F21014019803188002900D0A3E038
:1009E0001988002900D19FE01988032900D99BE0CC
:1009F00012781B8808335B01E318002A02D02022FA
:100A00005A718DE0102159718AE002887F239A4340
:100A10003C4BD2B21A7001880F220A400280328801
:100A2000002A00D080E00288002A00D17CE0028801
:100A3000032A00D978E01B78002B1FD003880833E5
:100A40005B01E3189B799A066AD503882022083354
:100A50005B01E3181A71038808335B01E318DB7943
:100A60005F065DD50388402208335B01E318DA7125
:100A70000388022208335B01E3181EE00388083371
:100A80005B01E3189B79D9064AD503881022083305
:100A90005B01E3181A71038808335B01E318DB7903
:100AA0009A063DD50388202208335B01E318DA71EA
:100AB0000388012208335B01E3181A7130E0C04655
:100AC000940000207D00002082000020840000208F
:100AD00086000020800000200203000001030000C7
:100AE00021200000A1210000212200001C1600008E
:100AF0000400002000160000F0150000F4150000AE
:100B00007E0000207C0000200B8808222868934289
:100B100001D80A8892B207490023FFF715FC07E0C5
:100B2000201CFFF7A1FC03E0201C0121FFF792FC31
:100B3000F7BDC0464800002007B5054B01220190D3
:100B400001A91868131CFFF7FFFB01200EBDC0466A
:100B50001802002013B5054B6C4607341868211C99
:100B60000122FFF739FC207816BDC046180200208C
:100B700010B5074C201CFFF713FB031C0020834219
:100B800005D022684823FF33D05C0123184010BDF4
:100B90001802002010B5054A0C1C031C191C106813
:100BA0000123221CFFF7D0FB201C10BD18020020DF
:100BB00070B5084C061C201C0D1CFFF7F1FA002331
:100BC000984205D02068311C2A1CFFF705FC031C45
:100BD000181C70BD18020020F8B50C4C051C201C18
:100BE0000E1CFFF7DDFA0023271C341C98420AD0A4
:100BF000002C07D0291C221C3868FFF7EDFB241AB3
:100C00002D18F5E7331C181CF8BDC046180200204B
:100C100008B5031C081C111C9847024B64221A805B
:100C200008BDC0468C000020012805D1054B064AAE
:100C30001A60064B187004E0002802D1044A014BE8
:100C40001A60704788020020501600008E000020B5
:100C50009C16000030B50A1C1C4985B00978031C9D
:100C600000292AD0042A01D1006804E0022A01D117
:100C7000008800E00078520004A98B180B3B9C1AF6
:100C8000A3420BD00F210140092902D83025294366
:100C900000E0373119700009013BF1E701A9302369
:100CA0000B7078234B700A208B1898700D20D87029
:100CB000074B04321B68D86803E005490968C86817
:100CC000191CFFF7A5FF05B030BDC0468800002005
:100CD0008802002072B6EFF30883044A13600368A9
:100CE00083F30888436818477047C0468C02002089
:100CF000084B1A88002A03D01A88013A92B21A8047
:100D0000054B1A88002A03D01A88013A92B21A8039
:100D10007047C0468C0000208A000020F0B591B0DA
:100D200008A9CC4A0B1C31CA31C351CA51C360CA8D
:100D300060C3C94BC9489A687A255203520F920082
:100D40005258C74902609C68A4B262430C60C5490E
:100D500000240A60C44A1460C44C2570C44CC54DBC
:100D60002368281C1B6940219847002802D0C24BE9
:100D700064221A80C14B00221860C14B1D60C14B18
:100D8000C04DBE4F1A602A683B689A42E6D2BC4BFF
:100D90001B681A78FF2A00D114E2232A00D0EBE165
:100DA000B94E3378002B06D0B14BB8491B680222EC
:100DB000D868FFF72DFFAD4B1B78532B3CD13B6818
:100DC0002A6893421ED9AE4801322A609A1AB04B63
:100DD00001681B6801310160AE4E9A4201D2326057
:100DE00000E03360A04832680068049000F0DCFB4B
:100DF000336829685A182A60A14A1668F1181160E8
:100E0000A54A13702B68013B2B609D4B1A68013A71
:100E10001A60A14B9E4A1B7811688B420AD2226845
:100E20009148C91A006892699047002802D0924BF5
:100E300064221A80C0468DE1522B0AD18A48944A16
:100E40002368006811685B69039098476422934B9C
:100E50000DE04F2B05D1844B8D4A1B6812681A7028
:100E600078E1482B05D1804B894A1B6812681A80AB
:100E700070E1572B05D17C4B854A1B6812681A60BC
:100E800068E16F2B03D1784B0121186807E0682BCC
:100E900008D1754B7E481B6802211B880360FFF751
:100EA000D9FE57E1772B06D16F4B79481B68042197
:100EB0001B680360F3E7472B13D1754B1868FFF7E6
:100EC00009FF774B1B6883F3088862B6754B1B7864
:100ED000002B00D13EE1664B06201B681B6898473B
:100EE00038E1542B04D101233370614B1B6864E05B
:100EF0004E2B0CD13378002B06D15D4B63491B6818
:100F00000222D868FFF784FE0023337022E1562BBB
:100F100057D123686449D8680122FFF779FE236816
:100F20006249D8680322FFF773FE614D2368291CCC
:100F3000D8680122FFF76CFE23685E49D8680D224D
:100F4000FFF766FE2368291CD8680122FFF760FEC0
:100F50004B4F4C4D5849002339602B603A1C281CDC
:100F600013685E1C16601B780593002B03D0036882
:100F700001330360F4E73E4E2A683368D868FFF710
:100F800047FE33684A49D8680122FFF741FE0599B8
:100F900029604A4939603A4A1368581C10601B7826
:100FA000002B04D0374B1A6801321A60F3E733681C
:100FB0002A68D868FFF72CFE3368D86833490222C4
:100FC000C6E0334A582B17D1244E264D3668136895
:100FD0002A68B10093420AD21F4D5808E861384888
:100FE00028801D4D287DC607FBD55B18F2E7204BF6
:100FF00034491B68D868AAE0592B79D112681A4B7A
:101000003149002A02D11B680B606CE0124D086860
:1010100019686B68104E8025AB4392087360002AF4
:1010200061D02A4B0C4D2B800B4E337DDD07FBD559
:1010300000230A4D2D680195AD08AB4203D3244D22
:10104000054E358046E09342F9D09D004659013364
:101050004E51EEE7301600000040004140020020F3
:1010600038020020340200208402002030020020D8
:1010700088020020440200208A000020280200206C
:101080002C0200203C020020880000209016000066
:101090009002002094020020240200208C000020F6
:1010A0008C0200208E0000206C16000095160000B7
:1010B0006E160000B8160000701600007C160000C6
:1010C00002A5FFFF851600009000002044A5FFFF49
:1010D00004A5FFFF3F4E357DEE07FBD59D00491966
:1010E0004019D21A9BE73C4B3C491B68D8682EE05C
:1010F0005A2B2FD13A4B17681D680026EF19BD42B5
:1011000006D02878311C00F013F90135061CF6E7EB
:10111000314B34491B680122D868FFF779FD07235A
:101120000F223240111C36093031092A00DD073107
:101130001820C0186A468154013BF1D2236806A9E1
:10114000D8680822FFF764FD23682749D86803227E
:10115000FFF75EFD254B7A221A70254B00221A609C
:10116000244B1B7893422DD01B4B23491B68012233
:10117000D868FFF74DFD25E0111C3039C8B21C4B73
:10118000092804D81D682A01114319601AE0111CAE
:101190004139052903D81E68373A310106E0111C90
:1011A0006139052904D81868573A01010A4308E053
:1011B0002C2A03D10A4A1968116001E00B490A7010
:1011C00000221A600D4B1A6801321A600C4B1A6823
:1011D0000132D5E500400041880200208916000058
:1011E000840200208D1600008F16000030020020BF
:1011F0009002002088000020931600003C0200208E
:101200002C02002010B51C4B01201A780224024346
:101210001A701A4B0F2219789143197019782143CB
:10122000197017490C782043087019780A401A7011
:101230001A7820210A431A70124B04211A6A0A43B1
:101240001A62114B114A5A805A7852B2002AFBDBBB
:10125000C4220F480F499203FEF756FF0E4A00239F
:1012600013700E4A13700E4A13700E4A13700E4A12
:1012700013700E4A137010BD4A44004135440041BA
:101280004B44004100040040000C004014400000AA
:10129000000800422AF60000980200201F030020E8
:1012A000990200209C020020200300201D03002042
:1012B00008B5C1B20248FEF755FF012008BDC0467F
:1012C00000080042024B187E4007C00F7047C0461E
:1012D0000008004208B5FFF7F5FF0028FBD00248E0
:1012E000FEF746FF08BDC0460008004208B5FFF7FC
:1012F000E9FF0023984205D0FFF7ECFF031C233BD6
:101300005A425341181C08BD70B5041C0D1C4618E8
:10131000B44204D02078FFF7CBFF0134F8E7281C53
:1013200070BD10B5041CFFF7D5FF2070012010BD63
:101330000B0A5840034B4000C05A0902484080B293
:101340007047C046C6160000F0B53E4E85B000227C
:1013500003900C1C32703C4B914201D1012201E000
:101360003A490C801A707F231C4201D080349C4380
:10137000FFF7B0FF3378C0B2002B07D000253570DF
:10138000FFF7A8FF3378C0B2AB4236D1432803D071
:10139000712853D01528EBD1012300930120FFF7CA
:1013A00087FF0098FFF784FF00998025C843C0B2EB
:1013B000FFF77EFF039B00270293244A1388002B2C
:1013C0001DD1214901930978002918D10198FFF70F
:1013D0006FFF391C0198FFF7ABFF013D071C002D83
:1013E000EBD1000AC0B2FFF763FFF8B2FFF760FF6E
:1013F000FFF770FF3378002B0AD035701FE0029999
:10140000013B09781380029B019101330293DDE7D0
:10141000C0B2062807D1009B03990133DBB28031AB
:101420000093803C0391002CB8D10420FFF740FFCB
:10143000FFF750FF044B01251C7000E00025281C1D
:1014400005B0F0BD1D0300201E0300209A020020FD
:10145000F7B50024051C0F1C261CBC4220D0FFF74A
:1014600039FF114BC0B21B780190002B1AD1311CEF
:10147000FFF75EFF0D4B061C1A88002A04D10C4AA8
:1014800011782A1C002907D001996A1C2970802F25
:1014900002D11988013919800134A4B2151CDCE786
:1014A000301C00E00120FEBD1D0300209A02002038
:1014B0001E030020F0B5384C87B000230190237044
:1014C000994201D1012301E0344A1180344A642653
:1014D00013704320FFF7ECFE324FFFF7F3FE0028B6
:1014E00003D1002F03D0013FF7E7002F03D1013EC6
:1014F000002EEED14DE00125FFF7ECFE2378002B06
:1015000038D1C0B20290012805D004283DD1062070
:10151000FFF7CEFE39E005AE0221301CFFF798FF41
:1015200001988021FFF794FF23780390002B18D1B6
:10153000FFF7D0FE0702FFF7CDFEBFB223783F18BA
:10154000BFB2012B0DD0039B9F4207D13378AB4232
:1015500004D1EB437278DBB29A4204D01820FFF733
:10156000A7FE002303E00620FFF7A2FE029B2278DD
:10157000002A02D0002626700BE0012B05D1019A2B
:101580006B1C8032DDB20192B6E7054A002313706E
:101590000126301C07B0F0BD1D0300209A02002078
:1015A0001E03002000350C0010B50023934203D029
:1015B000CC5CC4540133F9E710BD031C821893427C
:1015C00002D019700133FAE770470023C25C01337F
:1015D000002AFBD1581E7047F8B5C046F8BC08BCBD
:1015E0009E467047F8B5C046F8BC08BC9E4670479A
:1015F0000403090441726475696E6F204C4C43000A
:101600004F70656E74726F6E7320546865726D6F83
:101610006379636C65724D300000000012010002B6
:1016200002000040D80412ED000201020001000097
:101630000800000010000000200000004000000032
:101640008000000000010000000200000004000013
:10165000B1120000D5120000C512000009130000ED
:101660002313000049130000B51400007600200089
:101670004F637420203420323031390031353A3113
:10168000303A323400580A0D00590A0D005A00232E
:101690000A0D003E00322E3000000000390B000021
:1016A000550B0000710B0000950B0000B10B000002
:1016B000950B0000D90B00005B41726475696E6F79
:1016C0003A58595A5D00000021104220633084408E
:1016D000A550C660E770088129914AA16BB18CC101
:1016E000ADD1CEE1EFF13112100273325222B55278
:1016F0009442F772D662399318837BB35AA3BDD351
:101700009CC3FFF3DEE36224433420040114E66447
:10171000C774A44485546AA54BB528850995EEE5A0
:10172000CFF5ACC58DD55336722611163006D77657
:10173000F6669556B4465BB77AA719973887DFF7F0
:10174000FEE79DD7BCC7C448E5588668A77840081F
:10175000611802282338CCC9EDD98EE9AFF9488940
:1017600069990AA92BB9F55AD44AB77A966A711AB7
:10177000500A333A122AFDDBDCCBBFFB9EEB799B90
:10178000588B3BBB1AABA66C877CE44CC55C222C07
:10179000033C600C411CAEED8FFDECCDCDDD2AADE0
:1017A0000BBD688D499D977EB66ED55EF44E133E97
:1017B000322E511E700E9FFFBEEFDDDFFCCF1BBF30
:1017C0003AAF599F788F8891A981CAB1EBA10CD10A
:1017D0002DC14EF16FE18010A100C230E320045012
:1017E000254046706760B9839893FBA3DAB33DC385
:1017F0001CD37FE35EF3B1029012F322D232354262
:10180000145277625672EAB5CBA5A89589856EF514
:101810004FE52CD50DC5E234C324A01481046674B1
:10182000476424540544DBA7FAB79987B8975FE764
:101830007EF71DC73CD7D326F2369106B016576601
:101840007676154634564CD96DC90EF92FE9C899EC
:10185000E9898AB9ABA94458654806782768C01851
:10186000E1088238A3287DCB5CDB3FEB1EFBF98BC4
:10187000D89BBBAB9ABB754A545A376A167AF10AA1
:10188000D01AB32A923A2EFD0FED6CDD4DCDAABDD4
:101890008BADE89DC98D267C076C645C454CA23CF1
:1018A000832CE01CC10C1FEF3EFF5DCF7CDF9BAFA4
:1018B000BABFD98FF89F176E367E554E745E932E41
:0C18C000B23ED10EF01E0000000000003F
:1018CC0001140000090243000201008032090400E7
:1018DC00000102020000052400100104240200058E
:1018EC00240600010524010001070583030800FFFD
:1018FC0009040100020A00000007058102400000F3
:10190C00070502024000000000C2010000000800B0
:0C191C0069000000410000000000000015
:040000030000060DE6
:00000001FF
